:020000040000FA
:1000000018F09FE518F09FE518F09FE518F09FE5C0
:1000100018F09FE50000A0E1F0FF1FE518F09FE554
:1000200058000000400000004400000048000000AC
:100030004C000000000000005000000054000000D0
:10004000FEFFFFEAFEFFFFEAFEFFFFEAFEFFFFEA18
:10005000FEFFFFEAC90200EAA0009FE5AA10A0E3A4
:100060005520A0E32330A0E3043080E50130A0E375
:10007000003080E50C1080E50C2080E5083090E52C
:10008000013B13E2FCFFFF0A0330A0E3003080E5F0
:100090000C1080E50C2080E564009FE50410A0E3CF
:1000A000041080E50210A0E3001080E554009FE5F5
:1000B000DBF021E300D0A0E1000040E2D7F021E333
:1000C00000D0A0E1000040E2D1F021E300D0A0E1A7
:1000D000000040E2D2F021E300D0A0E1800040E245
:1000E000D3F021E300D0A0E1080040E210F021E3CA
:1000F00000D0A0E102AA4DE20C009FE510FF2FE125
:1001000080C01FE000C01FE0282500401001000053
:10011000000000EB330000EB2C008FE2000C90E8B5
:1001200000A08AE000B08BE001704AE20B005AE1C7
:100130000000001A2B0000EB0F00BAE818E04FE2B5
:10014000010013E303F0471013FF2FE11C0D000023
:100150003C0D0000102052E27800B0287800A12861
:10016000FBFFFF8A822EB0E13000B0283000A128CA
:1001700000409045004081451EFF2FE10030B0E374
:100180000040B0E30050B0E30060B0E3102052E262
:100190007800A128FCFFFF8A822EB0E13000A12860
:1001A000003081451EFF2FE17847C046780051E3BB
:1001B0004E00000A0000B0E31EFF2FE101C08FE2F5
:1001C0001CFF2FE11FB5059886460FBC009C02B0AE
:1001D0007047000001C08FE21CFF2FE130B475466C
:1001E000AE4630BC70470000A30000EB0210A0E157
:1001F000F1FFFFEB1CC09FE50FC08CE001001CE38A
:100200000DE08F120FE0A0011CFF2FE101C08FE273
:100210001CFF2FE100F062F9E40B00007847C046B4
:1002200003002DE9EAFFFFEB0300BDE8E00200EB6D
:100230000C009FE50C109FE504209FE508309FE52A
:100240001EFF2FE1A0040040A0240040A0040040B5
:100250001EFF2FE101C08FE21CFF2FE10FB4054903
:1002600010B503AA029800F0EDF810BC08BC04B069
:100270001847000000000040F8B50E000400002000
:100280002062E168200000F093FD00282BD0252893
:1002900002D06268A16821E0E1680027200000F038
:1002A00087FD05001FD028004138192802D80127F2
:1002B000FF0220353200290020002760FFF774FF7D
:1002C000002808D0012804D0F61DF608F6000836EC
:1002D000D7E7361DD5E76268A168280000F069FD00
:1002E000206A401CCCE7206AF8BC08BC1847000014
:1002F00001C08FE21CFF2FE170B504000D001068F3
:100300002100C046C0462188090502D5104A7A441A
:1003100002E00F4A7A440E3200212300243305E024
:1003200006070009360F965D5E54491C0028F7D178
:1003300020780023000705D5702D03D0002901D0B7
:1003400002231132200000F008F870BC08BC1847E6
:100350002E0B0000704770477047FFB5040081B056
:1003600024300D0000902168880604D51022E06931
:100370009143216000E00120A84201DD471B00E01D
:1003800000270498A1697A191018081AA06120782A
:10039000C00602D42000C046C046002609E00398EB
:1003A000A1686268805D00F004FD206A401C761C34
:1003B000206204988642F2DB2078C0060BD520002C
:1003C000C046C04607E06268A168302000F0F1FC3A
:1003D000206A401C206238007F1E0028F3DC08E001
:1003E0000098A1686268405D00F0E3FC206A401C50
:1003F000206228006D1E0028F2DC2000C046C046A6
:100400002078000604D5022005B0F0BC08BC1847CF
:100410000120F9E701694A1C02610878704700B5BC
:100420008FB0029100210591054901937944039110
:10043000110004906846FFF71FFF0FB008BC184773
:10044000E5FFFFFF094B70B50D007B44FFF7E7FFA9
:100450000400280000F0B0FC002804D00020C043B5
:1004600070BC08BC18472000FAE700007A090000B9
:1004700000009FE51EFF2FE1400400400E50A0E168
:10048000FAFFFFEB05E0A0E10050B0E10D10A0E1A4
:100490000A30A0E10700C0E300D0A0E160D08DE207
:1004A00020402DE961FFFFEB2040BDE80060A0E3A4
:1004B0000070A0E30080A0E300B0A0E30710C1E358
:1004C00005C0A0E1C009ACE8C009ACE8C009ACE8CF
:1004D000C009ACE801D0A0E11EFF2FE110B5040077
:1004E000C046C0462000FFF799FE10BC08BC184764
:1004F00010402DE9012BA0E340109FE540009FE54F
:10050000140000EB0000A0E3F00F10E5900080E382
:100510000010A0E3F00F01E50000A0E3F40F10E5E8
:10052000100080E3F40F01E52700A0E3000E01E5D1
:1005300010009FE5000F01E51040BDE81EFF2FE110
:100540003000004030040040700C0000041090E5C2
:10055000081080E51EFF2FE1002080E50C1080E5EB
:100560000030A0E3083080E5043080E51EFF2FE175
:1005700070402DE90040A0E10150A0E10C0094E59D
:10058000041094E50150C0E70110A0E3002094E5B9
:10059000040084E2FA0100EB7040BDE81EFF2FE189
:1005A0000300A0E318109FE5140081E514009FE507
:1005B000180081E50100A0E3000081E5040081E569
:1005C0001EFF2FE1004000E09939000010402DE9A6
:1005D0000040A0E3C50000EA040184E01C139FE58D
:1005E0000001D1E7010000E2000050E3BD00000A75
:1005F000040184E00001D1E7020000E2A000A0E1D4
:10060000000050E3B700000A040184E0000181E02B
:100610000C00D0E5020000E2A000A0E1000050E3E1
:10062000B000001A040184E0000181E00C00D0E574
:10063000010000E2000050E3AA00000A040184E087
:10064000000181E0080090E5010080E2041184E0EF
:10065000A8229FE5011182E0080081E5040184E001
:10066000001082E2000181E0080090E5010070E3E3
:100670000600001A040184E0000181E00C00D0E5CE
:10068000080080E3041184E0011182E00C00C1E560
:10069000040184E064129FE50001D1E70310A0E3A8
:1006A000400101E0000050E30600000A010050E3B1
:1006B0003700000A020050E36000000A030050E324
:1006C0008700001A840000EA0000A0E1040184E031
:1006D00028129FE5000181E0080090E5041184E004
:1006E00018229FE5011182E0041091E5010050E11C
:1006F0002600003A040184E0001082E2000181E05B
:100700000C00D0E5040080E3041184E0011182E0D4
:100710000C00C1E5040184E0001082E2000181E0E8
:100720000C00D0E50100C0E3041184E0011182E077
:100730000C00C1E50000A0E3041184E0011182E097
:10074000080081E5040184E0001082E2000181E0FC
:10075000100090E5000050E30C00000A040184E062
:10076000000181E00C00D0E50400C0E3041184E046
:10077000011182E00C00C1E5040184E0000182E087
:10078000101090E50400A0E10FE0A0E111FF2FE1BF
:10079000530000EA0000A0E1040184E05C119FE541
:1007A000000181E0080090E5041184E04C219FE500
:1007B000011182E0041091E5010050E11E00001AD1
:1007C000040184E0001082E2000181E00C00D0E529
:1007D000040080E3041184E0011182E00C00C1E513
:1007E0000000A0E3041184E0011182E0080081E52B
:1007F000040184E0001082E2000181E0100090E535
:10080000000050E30C00000A040184E0000181E0D4
:100810000C00D0E50400C0E3041184E0011182E083
:100820000C00C1E5040184E0000182E0101090E5B5
:100830000400A0E10FE0A0E111FF2FE1280000EA91
:100840000000A0E1040184E0B0109FE5000181E018
:10085000080090E5041184E0A0209FE5011182E0EA
:10086000041091E5010050E11A00001A040184E02F
:10087000001082E2000181E00C00D0E5040080E37A
:10088000041184E0011182E00C00C1E5040184E060
:10089000001082E2000181E0100090E5000050E3CA
:1008A0000C00000A040184E0000181E00C00D0E5A6
:1008B0000400C0E3041184E0011182E00C00C1E5F2
:1008C000040184E0000182E0101090E50400A0E142
:1008D0000FE0A0E111FF2FE1010000EA0000A0E11C
:1008E0000000A0E10000A0E1010084E2FF4000E27E
:1008F000020054E337FFFFBA1040BDE81EFF2FE1AE
:10090000080000400010A0E1020051E3010000DAFD
:100910000000E0E31EFF2FE1010181E060209FE580
:100920000001D2E7010000E2000050E30100001ADC
:100930000000E0E3F6FFFFEA010181E040209FE5CF
:10094000000182E00C00D0E5020000E2A000A0E17E
:10095000000050E30100000A0000E0E3ECFFFFEAC2
:10096000010181E018209FE50001D2E7020080E349
:10097000012181E008309FE50201C3E70000A0E308
:10098000E3FFFFEA0800004010402DE90040A0E32B
:10099000190000EA0000A0E3041184E074209FE540
:1009A0000101C2E7041184E0011182E0040081E545
:1009B000041184E0011182E0080081E5041184E063
:1009C000011182E00C00C1E5041184E0011182E014
:1009D000100081E5040184E0001082E2000181E062
:1009E0000C00D0E5020080E3041184E0011182E0F4
:1009F0000C00C1E5010084E2FF4000E2020054E384
:100A0000E3FFFFBA050000EB0C109FE5B000C1E169
:100A10001040BDE81EFF2FE1080000400400004028
:100A20000020A0E30010A0E3090000EA010181E03A
:100A3000AC309FE50001D3E7010000E2000050E385
:100A40000100001A0120A0E3030000EA010081E296
:100A5000FF1000E2020051E3F3FFFFBA0000A0E143
:100A6000000052E31C00000A0000A0E3013181E015
:100A70006CC09FE50301CCE7013181E003318CE0DC
:100A8000040083E5013181E003318CE0080083E557
:100A9000013181E003318CE00C00C3E5010181E00C
:100AA00000308CE2000183E00C00D0E5020080E31E
:100AB000013181E003318CE00C00C3E5010181E0EC
:100AC00000308CE20001D3E7010080E3013181E0D6
:100AD0000301CCE70100A0E11EFF2FE10000E0E3ED
:100AE000FCFFFFEA0800004010402DE90040A0E1B3
:100AF000020054E3020000DA0000E0E31040BDE829
:100B00001EFF2FE1040184E06C109FE50001D1E796
:100B1000010000E2000050E30100001A0000E0E3E1
:100B2000F5FFFFEA0400A0E175FFFFEB040184E09C
:100B300044109FE50001D1E7020000E2A000A0E11F
:100B4000000050E30100001A0000E0E3EAFFFFEAC2
:100B5000040184E020109FE5000181E00C00D0E555
:100B6000010080E3041184E00C209FE5011182E084
:100B70000C00C1E50000A0E3DFFFFFEA0800004031
:100B80000F502DE92C009FE5000090E5010000E2E8
:100B9000000050E30500000A8BFEFFEB14009FE508
:100BA000000090E5010080E308109FE5000081E56A
:100BB0000F50BDE804F05EE2004000E034009FE525
:100BC000000090E5050080E328109FE5000081E526
:100BD0008300A0E30015C1E10C00C1E50100A0E322
:100BE0000000C1E50300A0E30C00C1E50100A0E3A3
:100BF0000800C1E51EFF2FE100C002E00010A0E1E7
:100C00000000A0E11C009FE51400D0E5200000E2F8
:100C1000000050E3FAFFFF0AFF0001E204209FE515
:100C20000000C2E51EFF2FE100C000E038009FE594
:100C3000000090E5050880E32C109FE5000081E5A9
:100C40008300A0E3071941E20C00C1E50800A0E31E
:100C50000000C1E50300A0E30C00C1E50100A0E332
:100C60000800C1E50400C1E51EFF2FE100C002E05D
:100C70003F502DE93C008FE275FDFFEB3C009FE506
:100C80000850D0E50700A0E3C50000E0020050E3F3
:100C90000400001A24009FE50040D0E50410A0E104
:100CA0001C009FE531FEFFEB0000A0E3D00F00E544
:100CB0003F50BDE804F05EE24953520A00000000D4
:100CC000000001E030040040F0412DE90040A0E1C7
:100CD0000150A0E10270A0E160008FE25CFDFFEB3B
:100CE0000060A0E3050000EA0610D4E754008FE29C
:100CF00057FDFFEB010086E20068A0E12668A0E155
:100D0000050056E1F7FFFF3A3C008FE250FDFFEB94
:100D100038009FE50CFEFFEB0030A0E3020000EA84
:100D20000300D4E70A0000EB013083E2050053E141
:100D3000FAFFFF3A0100A0E3F041BDE81EFF2FE1FA
:100D400054583A2000000000255820000A000000F6
:100D5000300400400010A0E10000A0E11C009FE56D
:100D60001400D0E5200000E2000050E3FAFFFF0A83
:100D7000FF0001E204209FE50000C2E51EFF2FE115
:100D8000000001E0003090E5013083E0003080E5B4
:100D9000020000EA003090E5023043E0003080E5D8
:100DA000003090E5020053E1F9FFFF2A1EFF2FE11A
:100DB000084710471EFF2FE17847C0460010A0E10A
:100DC0000000E0E31EFF2FE170402DE90040A0E1AC
:100DD0000150A0E10400A0E187FFFFEB7040BDE8F7
:100DE0001EFF2FE108D04DE240008FE218FDFFEB1F
:100DF000E4FEFFEBE9FDFFEB6FFFFFEBBBFDFFEB5D
:100E000030108FE2030091E803008DE886FFFFEBCE
:100E10000020A0E30510A0E30D00A0E1A9FFFFEB77
:100E20000400A0E12FFFFFEB0000A0E1FEFFFFEABE
:100E30004D61696E00000000FF00031D0C00000002
:100E40003031323334353637383941424344454600
:100E500040305800303132333435363738396162FA
:100E60006364656640307800880E00000000004032
:100E70000800000054010000900E0000080000402F
:100E8000202500007C0100000000000000000000A0
:0400000500000110E6
:00000001FF
