:020000040000FA
:1000000018F09FE518F09FE518F09FE518F09FE5C0
:1000100018F09FE50000A0E1F0FF1FE518F09FE554
:1000200058000000400000004400000048000000AC
:100030004C000000000000005000000054000000D0
:10004000FEFFFFEAFEFFFFEAFEFFFFEAFEFFFFEA18
:10005000FEFFFFEA130300EAA0009FE5AA10A0E359
:100060005520A0E32330A0E3043080E50130A0E375
:10007000003080E50C1080E50C2080E5083090E52C
:10008000013B13E2FCFFFF0A0330A0E3003080E5F0
:100090000C1080E50C2080E564009FE50410A0E3CF
:1000A000041080E50210A0E3001080E554009FE5F5
:1000B000DBF021E300D0A0E1000040E2D7F021E333
:1000C00000D0A0E1000040E2D1F021E300D0A0E1A7
:1000D000000040E2D2F021E300D0A0E1800040E245
:1000E000D3F021E300D0A0E1080040E210F021E3CA
:1000F00000D0A0E101AB4DE20C009FE510FF2FE125
:1001000080C01FE000C01FE0D009004010010000C7
:10011000000000EB2E0000EB2C008FE2000C90E8BA
:1001200000A08AE000B08BE001704AE20B005AE1C7
:100130000000001A260000EB0F00BAE818E04FE2BA
:10014000010013E303F0471013FF2FE1C80D000077
:10015000E80D0000102052E27800B0287800A128B5
:10016000FBFFFF8A822EB0E13000B0283000A128CA
:1001700000409045004081451EFF2FE10030B0E374
:100180000040B0E30050B0E30060B0E3102052E262
:100190007800A128FCFFFF8A822EB0E13000A12860
:1001A000003081451EFF2FE101C08FE21CFF2FE1CF
:1001B0001FB5059886460FBC009C02B07047000032
:1001C00001C08FE21CFF2FE130B47546AE4630BC53
:1001D000704700003B0000EB0210A0E1F1FFFFEBD5
:1001E0001CC09FE50FC08CE001001CE30DE08F12E6
:1001F0000FE0A0011CFF2FE101C08FE21CFF2FE1E7
:1002000000F0A8F85C0C00007847C04603002DE918
:10021000EAFFFFEB0300BDE8FE0200EB0C009FE5E8
:100220000C109FE504209FE508309FE51EFF2FE19D
:100230004805004048090040480500401EFF2FE1E6
:1002400001C08FE21CFF2FE10FB4054910B503AACE
:10025000029800F00BF810BC08BC04B0184700006E
:10026000040000407047704770470000094B70B5AC
:100270000D007B4400F015F80400280000F0CEFDCE
:10028000002804D00020C04370BC08BC18472000E0
:10029000FAE70000B60B000001694A1C0261087809
:1002A000704700B58FB00291002105910549019377
:1002B0007944039111000490684600F035F80FB0BE
:1002C00008BC1847E5FFFFFF0E50A0E1250000EB3A
:1002D00005E0A0E10050B0E10D10A0E10A30A0E17E
:1002E0000700C0E300D0A0E160D08DE220402DE9FE
:1002F000C9FFFFEB2040BDE80060A0E30070A0E371
:100300000080A0E300B0A0E30710C1E305C0A0E1B6
:10031000C009ACE8C009ACE8C009ACE8C009ACE869
:1003200001D0A0E11EFF2FE1F8B506004768806804
:1003300000240090F568300004E0009900F06BFDA7
:100340003000641C00F066FD0028F6D12000F8BCE7
:1003500008BC184710B50400C046C0462000FFF78F
:1003600053FF10BC08BC184700009FE51EFF2FE19B
:10037000E40400400000A0E3F00F10E5900080E3EB
:100380000010A0E3F00F01E50000A0E3F40F10E57A
:10039000100080E3F40F01E52700A0E3000E01E563
:1003A00004009FE5000F01E51EFF2FE1A00D0000F6
:1003B000002080E50C1080E50030A0E3083080E5E7
:1003C000043080E51EFF2FE170402DE90040A0E1E0
:1003D0000150A0E10C0094E5041094E50150C0E741
:1003E0000110A0E3002094E5040084E27D0200EB0C
:1003F0007040BDE81EFF2FE10300A0E318109FE549
:10040000140081E514009FE5180081E50100A0E3D8
:10041000000081E5040081E51EFF2FE1004000E0BF
:100420009939000010402DE90040A0E3C50000EA22
:10043000040184E01C139FE50001D1E7010000E204
:10044000000050E3BD00000A040184E00001D1E790
:10045000020000E2A000A0E1000050E3B700000AA3
:10046000040184E0000181E00C00D0E5020000E21C
:10047000A000A0E1000050E3B000001A040184E0F5
:10048000000181E00C00D0E5010000E2000050E333
:10049000AA00000A040184E0000181E0080090E560
:1004A000010080E2041184E0A8229FE5011182E0AE
:1004B000080081E5040184E0001082E2000181E08F
:1004C000080090E5010070E30600001A040184E0D2
:1004D000000181E00C00D0E5080080E3041184E015
:1004E000011182E00C00C1E5040184E064129FE583
:1004F0000001D1E70310A0E3400101E0000050E358
:100500000600000A010050E33700000A020050E331
:100510006000000A030050E38700001A840000EA2C
:100520000000A0E1040184E028129FE5000181E0C1
:10053000080090E5041184E018229FE5011182E093
:10054000041091E5010050E12600003A040184E026
:10055000001082E2000181E00C00D0E5040080E39D
:10056000041184E0011182E00C00C1E5040184E083
:10057000001082E2000181E00C00D0E50100C0E340
:10058000041184E0011182E00C00C1E50000A0E349
:10059000041184E0011182E0080081E5040184E097
:1005A000001082E2000181E0100090E5000050E3BD
:1005B0000C00000A040184E0000181E00C00D0E599
:1005C0000400C0E3041184E0011182E00C00C1E5E5
:1005D000040184E0000182E0101090E50400A0E135
:1005E0000FE0A0E111FF2FE1530000EA0000A0E1BD
:1005F000040184E05C119FE5000181E0080090E5C2
:10060000041184E04C219FE5011182E0041091E582
:10061000010050E11E00001A040184E0001082E293
:10062000000181E00C00D0E5040080E3041184E0C7
:10063000011182E00C00C1E50000A0E3041184E098
:10064000011182E0080081E5040184E0001082E2EB
:10065000000181E0100090E5000050E30C00000A6A
:10066000040184E0000181E00C00D0E50400C0E357
:10067000041184E0011182E00C00C1E5040184E072
:10068000000182E0101090E50400A0E10FE0A0E17D
:1006900011FF2FE1280000EA0000A0E1040184E03E
:1006A000B0109FE5000181E0080090E5041184E0AE
:1006B000A0209FE5011182E0041091E5010050E1C6
:1006C0001A00001A040184E0001082E2000181E0B7
:1006D0000C00D0E5040080E3041184E0011182E005
:1006E0000C00C1E5040184E0001082E2000181E019
:1006F000100090E5000050E30C00000A040184E0C3
:10070000000181E00C00D0E50400C0E3041184E0A6
:10071000011182E00C00C1E5040184E0000182E0E7
:10072000101090E50400A0E10FE0A0E111FF2FE11F
:10073000010000EA0000A0E10000A0E10000A0E14B
:10074000010084E2FF4000E20A0054E337FFFFBAF1
:100750001040BDE81EFF2FE11C040040001180E0A6
:100760001C209FE5011182E00C10D1E50410C1E3CB
:10077000002180E008309FE5022183E00C10C2E5F3
:100780001EFF2FE11C04004030002DE900C0A0E155
:100790000C018CE04C429FE50001D4E7010000E22F
:1007A000000050E30200001A0000E0E33000BDE862
:1007B0001EFF2FE10C018CE028429FE5000184E040
:1007C0000C00D0E50200C0E30C418CE014529FE520
:1007D000044185E00C00C4E5000051E30600000A76
:1007E000010051E31B00000A020051E33100000A3E
:1007F000030051E35400001A460000EA0000A0E1A3
:100800000C018CE0DC419FE50001D4E70C00C0E363
:100810000C418CE0CC519FE50401C5E7020052E396
:100820000700002A0C018CE0004085E2000184E012
:100830000C00D0E5020080E30C418CE0044185E02F
:100840000C00C4E50C018CE098419FE5000184E0B8
:10085000042080E54D0000EA0000A0E10C018CE0DE
:1008600080419FE50001D4E70800C0E3040080E375
:100870000C418CE06C519FE50401C5E7020052E396
:100880000700002A0C018CE0004085E2000184E0B2
:100890000C00D0E5020080E30C418CE0044185E0CF
:1008A0000C00C4E50C018CE038419FE5000184E0B8
:1008B000042080E5350000EA0000A0E10C018CE096
:1008C00020419FE50001D4E70400C0E3080080E375
:1008D0000C418CE00C519FE50401C5E7020052E396
:1008E0000700002A0C018CE0004085E2000184E052
:1008F0000C00D0E5020080E30C418CE0044185E06F
:100900000C00C4E50C018CE0D8409FE5000184E0B8
:10091000042080E51D0000EA0000A0E10C018CE04D
:10092000C0409FE50001D4E70C0080E30C418CE05F
:10093000B0509FE50401C5E70000A0E30C418CE046
:10094000044185E0040084E5100000EA0000A0E115
:100950000C018CE08C409FE50001D4E70C0080E3A3
:100960000C418CE07C509FE50401C5E70C018CE054
:10097000004085E2000184E00C00D0E5020080E345
:100980000C418CE0044185E00C00C4E50000A0E1CE
:100990000000A0E10C018CE048409FE5000184E0EC
:1009A0000C00D0E5020000E2A000A0E1000050E34E
:1009B0000100000A0000E0E37BFFFFEA000053E3D0
:1009C0000600000A0C018CE018409FE50001D4E706
:1009D000020080E30C418CE008509FE50401C5E76C
:1009E0000000A0E370FFFFEA1C0400400010A0E13B
:1009F0000A0051E3010000DA0000E0E31EFF2FE1EE
:100A0000010181E060209FE50001D2E7010000E2E2
:100A1000000050E30100001A0000E0E3F6FFFFEAE7
:100A2000010181E040209FE5000182E00C00D0E55B
:100A3000020000E2A000A0E1000050E30100000A73
:100A40000000E0E3ECFFFFEA010181E018209FE5F0
:100A50000001D2E7020080E3012181E008309FE538
:100A60000201C3E70000A0E3E3FFFFEA1C0400402B
:100A700010402DE90040A0E3190000EA0000A0E3C7
:100A8000041184E074209FE50101C2E7041184E0B1
:100A9000011182E0040081E5041184E0011182E08B
:100AA000080081E5041184E0011182E00C00C1E539
:100AB000041184E0011182E0100081E5040184E06A
:100AC000001082E2000181E00C00D0E5020080E32A
:100AD000041184E0011182E00C00C1E5010084E210
:100AE000FF4000E20A0054E3E3FFFFBA0E0000EB10
:100AF0000C109FE5B000C1E11040BDE81EFF2FE1E2
:100B00001C040040080000400010A0E1010181E049
:100B100010209FE5000182E00C00D0E5040000E217
:100B20002001A0E11EFF2FE11C0400400020A0E3F3
:100B30000010A0E3090000EA010181E0AC309FE56C
:100B40000001D3E7010000E2000050E30100001AB9
:100B50000120A0E3030000EA010081E2FF1000E2AF
:100B60000A0051E3F3FFFFBA0000A0E1000052E3E6
:100B70001C00000A0000A0E3013181E06CC09FE589
:100B80000301CCE7013181E003318CE0040083E50F
:100B9000013181E003318CE0080083E5013181E01F
:100BA00003318CE00C00C3E5010181E000308CE2F0
:100BB000000183E00C00D0E5020080E3013181E018
:100BC00003318CE00C00C3E5010181E000308CE2D0
:100BD0000001D3E7010080E3013181E00301CCE7AC
:100BE0000100A0E11EFF2FE10000E0E3FCFFFFEAAF
:100BF0001C0400400010A0E3002180E008309FE5C5
:100C0000022183E0081082E51EFF2FE11C04004052
:100C100010402DE90040A0E10A0054E3020000DA90
:100C20000000E0E31040BDE81EFF2FE1040184E076
:100C30006C109FE50001D1E7010000E2000050E3E5
:100C40000100001A0000E0E3F5FFFFEA0400A0E164
:100C500065FFFFEB040184E044109FE50001D1E74C
:100C6000020000E2A000A0E1000050E30100001A31
:100C70000000E0E3EAFFFFEA040184E020109FE5C2
:100C8000000181E00C00D0E5010080E3041184E064
:100C90000C209FE5011182E00C00C1E50000A0E3FB
:100CA000DFFFFFEA1C0400400F502DE970009FE5B4
:100CB000000090E5010000E2000050E31600000A89
:100CC00060009FE5000090E5010000E2000050E3B5
:100CD0000300000A0101A0E34C109FE5040081E538
:100CE000020000EA0101A0E33C109FE50C0081E551
:100CF00030009FE5000090E5010080E224109FE5B0
:100D0000000081E5C6FDFFEB14009FE5000090E5C3
:100D1000010080E308109FE5000081E50F50BDE869
:100D200004F05EE2004000E000000040008002E0CD
:100D300034009FE5000090E5050080E328109FE562
:100D4000000081E58300A0E30015C1E10C00C1E5CE
:100D50000100A0E30000C1E50300A0E30C00C1E531
:100D60000100A0E30800C1E51EFF2FE100C002E082
:100D70000010A0E10000A0E11C009FE51400D0E5F8
:100D8000200000E2000050E3FAFFFF0AFF0001E24A
:100D900004209FE50000C2E51EFF2FE100C000E037
:100DA0003F502DE934009FE50850D0E50700A0E34F
:100DB000C50000E0020050E30400001A1C009FE59B
:100DC0000040D0E50410A0E114009FE57DFDFFEB9D
:100DD0000000A0E3D00F00E53F50BDE804F05EE264
:100DE000000001E00C040040003090E5013083E099
:100DF000003080E5020000EA003090E5023043E078
:100E0000003080E5003090E5020053E1F9FFFF2A51
:100E10001EFF2FE1284738471EFF2FE17847C046C5
:100E20000010A0E10000E0E31EFF2FE170402DE97B
:100E30000040A0E10150A0E10400A0E1CBFFFFEBE6
:100E40007040BDE81EFF2FE108D04DE20000A0E396
:100E500004008DE505FFFFEB66FDFFEBB3FFFFEB45
:100E600043FDFFEB84009FE5040090E50302C0E32F
:100E700078109FE5040081E5010941E2080090E552
:100E8000010180E3011941E2080081E5012BA0E3A3
:100E90005C109FE55C009FE544FDFFEB22FFFFEB4C
:100EA0000040A0E10130A0E37D2EA0E30310A0E10B
:100EB0000400A0E133FEFFEB0400A0E14CFFFFEBD8
:100EC0000400A0E151FFFFEB070000EA0400A0E1ED
:100ED0000CFFFFEB000050E30300000A18008FE254
:100EE000D6FCFFEB0400A0E11BFEFFEBF6FFFFEAE0
:100EF00000C002E00C0000400C04004074657374F4
:100F00002074696D657220736F6674776172650A0B
:100F100000000000340F0000000000400C00000042
:100F200054010000400F00000C000040C409000004
:100F30007C01000000000000000000000000000034
:0400000500000110E6
:00000001FF
