:020000040800F2
:10000000984400209D010008330600083D030008C5
:100010003106000839030008E16400080000000010
:1000200000000000000000000000000019070008A8
:100030003B03000800000000350600087D070008AB
:10004000B7010008B7010008B7010008B7010008B0
:10005000B7010008B7010008B7010008B7010008A0
:10006000B7010008B7010008B7010008B701000890
:10007000B7010008B7010008B7010008B701000880
:10008000B7010008B7010008B7010008B701000870
:10009000B7010008B7010008B7010008B701000860
:1000A000B7010008B7010008B7010008B701000850
:1000B000B7010008B7010008B7010008B701000840
:1000C000B7010008B7010008B7010008B701000830
:1000D000B701000861640008B7010008B701000813
:1000E000B7010008B7010008B7010008B701000810
:1000F000B7010008B7010008B7010008B701000800
:10010000B7010008B7010008B7010008B7010008EF
:10011000B7010008B7010008B7010008B7010008DF
:10012000B7010008B7010008B7010008B7010008CF
:10013000B7010008B7010008B7010008B7010008BF
:10014000B7010008B7010008B7010008B7010008AF
:10015000B7010008B7010008B7010008B70100089F
:10016000B7010008B7010008B7010008B70100088F
:10017000B7010008B7010008B7010008000000003F
:10018000B7010008B7010008DFF80CD000F0C2F892
:1001900000480047316E0008984400200648804718
:1001A00006480047FEE7FEE7FEE7FEE7FEE7FEE75C
:1001B000FEE7FEE7FEE7FEE73508000889010008D4
:1001C000202A04DB203A00FA02F100207047914017
:1001D000C2F1200320FA03F319439040704710B591
:1001E000431A934209D28318881803E010F8011DBE
:1001F00003F8011D521EF9D210BD40EA01039B070E
:1002000003D009E008C9121F08C0042AFAD203E08B
:1002100011F8013B00F8013B521EF9D210BDD2B2D9
:1002200001E000F8012B491EFBD270470022F6E7DF
:1002300010B513460A4604461946FFF7F0FF20465C
:1002400010BD10B5044604E00B7800F8013B03B183
:10025000491C521EF8D2204610BD421C10F8011B4A
:100260000029FBD1801A704710B5002200E0521C13
:10027000835C8C5CA34201D1002BF8D1D8B2E1B2EF
:10028000401A10BD30B505460020034600E05B1C57
:10029000934205D2EC5CC85C201A01D1002CF6D147
:1002A00030BD000070B50F4D00B92868002412E081
:1002B0000A4602E09E4203D0521C1378002BF9D16B
:1002C000DAB2224305D02BB124B1002100F8011B82
:1002D00004E00446401C0678002EE9D12860204640
:1002E00070BD00000000002030B50B460146002024
:1002F0002022012409E021FA02F59D4205D303FAE8
:1003000002F5491B04FA02F52844151EA2F1010268
:10031000F1DC30BD064C074D06E0E06840F001031B
:1003200094E8070098471034AC42F6D3FFF730FF4B
:10033000487B0008687B0008FEE77047FEE7000086
:1003400081B005490A6802430A60096808400090C4
:10035000009801B0704700BF601002402DE9F047DF
:100360000E684FF0010896FAA6F2B2FA82F24FF048
:10037000030E4FF00F0C36FA02F349D008FA02F3DD
:1003800016EA030A41D09AFAAAF3B3FA83F94D6840
:100390004FEA490406680EFA04F705FA04F3BE436F
:1003A00033436E1E0360FB43012E05D88E688768B9
:1003B000A6401F403E4386600E69022D06FA04F4F3
:1003C000C66803EA060343EA0403C3601DD14B6910
:1003D000BAF1FF0F0AD84FEA8904056AA3400CFA64
:1003E00004F425EA0404234303620EE04FEA1A24CE
:1003F00094FAA4F4B4FA84F4A400456AA3400CFA75
:1004000004F425EA0404234343620E680132B2E790
:100410004A68013A012A05D8C96842687143B24363
:10042000114341600020BDE8F08700004FF47A716D
:10043000B0FBF1F0034901384860002088600520D6
:100440000860704710E000E010B5B0F5407F0AD0BA
:10045000C02820D1AC4CD4F88800C0F38110DFE86C
:1004600000F00B1C2026F04CD4F88800C0F30120CB
:10047000DFE800F00213171D00F0DEF8A168A268A3
:10048000364BC2F302229A5C354BC1F30311595C1F
:10049000C840D04010BD002010BDBDE8104000F0A5
:1004A000CBB820689949400501EAE07010BDD4F846
:1004B00090004FF4004101EA803010BD10B53028A3
:1004C00019D00C2820D003281CBF002010BDEA4CF6
:1004D0004FF44041D4F8880061F39F00A0F540300C
:1004E000DFE800F0022A2E3400F0A6F8A168A26826
:1004F000C2F3C22217E0E04CD4F88800C0F3011028
:10050000DFE800F00B1A1E24DB4CD4F88800C0F39F
:100510008100DFE800F00211151B00F08DF8A168E2
:10052000A268C2F302220D4B9A5C0D4BC1F303117A
:10053000595CC840D04010BDBDE8104000F07CB808
:1005400020687249400501EAE07010BDD4F89000BF
:100550004FF4004101EA803010BD00BF747A0008FA
:10056000647A000801490860704700BF0400002059
:1005700070B504460068C00746D10D46206827497B
:100580002E1D08404ECE08431843A9693043084346
:100590002060606820F44050104360606869A16882
:1005A00021F440710843A0601D4884420DD01D48CD
:1005B00084420CD01C4884420DD01C4884420CD08C
:1005C0006D48844220D1032002E00C2000E030205E
:1005D000FFF774FF05E0C02001E04FF44070FFF723
:1005E00033FF88B1296879B1AA69B2F5004F0DD1FE
:1005F0004A0802EB4000B0FBF1F04FF6F071014009
:10060000C0F34200084406E0012070BD00EB510039
:10061000B0FBF1F080B2E060002070BDF369FFEF45
:100620000044004000480040004C004000500040A2
:10063000FEE77047704700008F498868C0F3810269
:100640003248DFE802F0020D0C0E0A680868120753
:1006500000F0080007D458B10868002012E02C48C8
:10066000704700F013B840B1086800F0F00008E0EF
:10067000D1F89400C0F3032004E0D1F8940000F412
:1006800070600009234951F82000704710B57A487E
:10069000C16801F0030103290CD002290CD0012903
:1006A00002680168120701F0080107D459B1016816
:1006B000002112E0164913E0144911E041B101682C
:1006C00001F0F00108E0D0F89410C1F3032104E038
:1006D000D0F8941001F4706109090E4A52F8211003
:1006E000C268C368C0680224C0F34160C2F302124A
:1006F0000132B1FBF2F1C3F3062204EB4000514397
:10070000B1FBF0F010BD00BF001002400024F40067
:1007100000127A007C7A00087047000014490B68C8
:100720004A68934204D20B689A1A02F5807201E07B
:100730000B689A1AFF2A84BF4FF0FF3070470A688F
:100740000A441072086800220130086009480270EB
:100750000B68B3F5807F08BF0A60017931B90121C8
:1007600001710548016841F0800101600020704777
:100770005C01002038000020003801400248016878
:1007800001310160704700BF4C000020B0B5244823
:1007900001220168384D21F00701016000682148FD
:1007A000016862F34A210160286840F00100286076
:1007B00028688007FCD52868062140F008002860DA
:1007C000286861F307102860686820F47F4068603B
:1007D000A86820F00300A860A86810F00C0FFBD1F7
:1007E000A868124C20F0F000A860A86820F4E0602F
:1007F000A860A86820F46050A8602046FFF716FEA5
:100800000B48016841F0040101602046FFF7AAFE91
:10081000D5F8880020F00300C5F88800B0BD00BFFF
:1008200000200240007000400010024000093D001E
:1008300010E000E010B50F48104CD0F8801041F4E3
:100840007001C0F880100C490A6842F001020A6089
:1008500000228A600B6823400B604FF48053CB600A
:100860000B6823F480230B608A614FF00061016004
:1008700010BD00BF08ED00E000100240FFFFF6EAE7
:1008800010B50024C0E90C444182018201210170AD
:100890000299C0E906440375C26080F82C40846266
:1008A00080F8244080F8204041600472002010BD90
:1008B00010B52C492C4B2D4C02220271C0F8744605
:1008C000C0F87836C0F87C1600214FF4E133C0E957
:1008D000F111C0E9F311C0F800320523A0F8C033CC
:1008E000FF2380F8B0334FF47A7380F8011580F855
:1008F0001812C0F8143241F28833C0F8103280F870
:100900003C16C0E9FE1180F84116A0F83F1680F8A9
:100910003D264FF08072C0F80C12C0F8382600F562
:10092000C3620123A0F80A36C0F806164FF0081378
:10093000C0F810260EA2C0F8143680F80C16C0F8C5
:10094000EC13C0E98111082907D052F82130D0F802
:10095000104644F821300131F5E7BDE8104005F0BC
:10096000E1BC00BF1D280008AD470008693D000834
:100970008025000000C2010000100E00004B0000A6
:100980000096000000E1000000840300000807005A
:10099000F8B5084A084B094C094D0A4E0A4FC0E900
:1009A0000017C0E90265C0E90443826106F0E8FB74
:1009B0000020F8BD7D71000801730008E97200088D
:1009C0008D720008C5720008817100082DE9F04F92
:1009D000CBB0DDF850B107469BF80000DDF8589128
:1009E0008DF82B0199F800000D468DF82A0197F833
:1009F000C113DDF854C19A461646052930D129782D
:100A0000072900F29880B169327DD7F80C3217209F
:100A10000DF595748DE81F001FFA8CF30DF22B1263
:100A20003846514606F0DCFA02462878072800F2DC
:100A3000C481DFE810F008003F0156017A0135015A
:100A400088019C01B101F069144683680DF22B11F5
:100A500093F83F0000220090504602F00DFEABE1FB
:100A6000B069317D0DF59572002404231FFA8CF8CE
:100A7000CDE90030CDE9021404920DF22B12384674
:100A80005146434606F0ACFA97F87206DFF860B4B8
:100A900000F001008BF800002878CE4D482866D081
:100AA000492840F0B6809DF82B01002703308DF8CF
:100AB0002901ADF826704C46D6F81C9099F81430F0
:100AC000252B16D1FF20ADF824000DF12A00089047
:100AD00009F1080008A906F029F80246002840F0AC
:100AE0007481B06906F08CF900282A4600F06D8107
:100AF0002123D9F8180099F81C100DF22B158DE858
:100B0000830050462946424602F0E4FDF0690DF2AA
:100B10002916036950462946324602F095FA08AB79
:100B200050462946324602F0AFFA02460028A14656
:100B300040F04B8186E047296DD01A2940F0808033
:100B4000DFF8BC83012088F80000F569687D022881
:100B50007ED195F8391095F83800090441EA006013
:100B6000698F21F0FF021044C9B2014471E09DF881
:100B70002B01ADF8264003308DF82901F76997F86D
:100B80002030252B16D1FF20ADF824000DF12A00CE
:100B9000089007F1080008A906F04AF80246002864
:100BA00040F01381B06906F02BF900282A4600F0C6
:100BB0000C812123786A0DF22B15009050462946AE
:100BC000424602F0DFFDF0690DF229160369504636
:100BD0002946324602F038FA08AB504629463246DA
:100BE00002F052FA0246002840F0EF80C24900208D
:100BF000FA8D904226D20A889DF82B3101320A8064
:100C0000BA6A125C01300AF803205A1C8DF82B21B5
:100C1000EEE72A46D9E0A989B84A022900F0DC802B
:100C2000012940F0D280A868324601683846534610
:100C3000CDE900BCCDF80890FFF7C8FE0246C4E03D
:100C4000AC4AC2E000228BF80020DDF850B1B4E0DD
:100C5000E969C7F80C12B069327D0DF59573172458
:100C60000DF22B16CDE90040CDE9022104931FFAC5
:100C70008CF338465146324606F0B2F90746E8682A
:100C80002B7A297C2A7D00248DE8170050463146B6
:100C90004FF4FA6202F0DAFB3A4688F800408CE042
:100CA000F069144683680DF22B115046002202F0C1
:100CB0006FFC81E0F0691446037A0022042B24BF04
:100CC000012187F84016C168007CCDE90010CDE90C
:100CD00002220DF22B1150464FF4FA6202F0B6FBDD
:100CE0006AE0F5690026E8682B7A1446CDE900062B
:100CF0000DF22B115046002202F0F4FBE88A8642E6
:100D00005AD228699DF82B1100EB460040784A1C06
:100D10000AF801002869D2B210F8160001360AF864
:100D20000200881C8DF82B01E8E7F069144603895E
:100D30004189C0680022CDE900100DF22B11504608
:100D400002F056FC38E0F0691546037AD0E9031248
:100D5000C08A0024CDE90010CDE902240DF22B1148
:100D600050460022049402F0BFFA2A4625E0F069BA
:100D70001646417AD0E90324037AC08ACDE90012ED
:100D800002A9002531C10DF22B1150460022059514
:100D900002F004FA324610E0F0691446C368017AA2
:100DA000007C0022CDE90010CDE902220DF22B11CA
:100DB0005046002202F092F922469DF82B018BF852
:100DC00000009DF82A0189F8000010464BB000F0A1
:100DD00099B800BF01000003A9684868007801289D
:100DE000F3D10868007840F002000228EDD101201C
:100DF00087F85D06A8681724D0E90090D7F80C2280
:100E0000017CD0F80CB090F80880B0690791317D72
:100E1000CDE9004002A80DF595730EC01FFA8CF6BF
:100E20000DF22B1238465146334606F0D9F8A86821
:100E30000068017811B3079C02292AD1D9E9030778
:100E400099F808300021B9F81650CDE900010DF2EB
:100E50002B115046324602F045FBD5B178789DF80B
:100E60002B11013D0AF80100481C3A78C0B20AF87B
:100E70000020881C8DF82B010237EEE783680DF205
:100E80002B1193F83F0032460090504602F0F4FBDD
:100E9000079C1948DDF858910188013101809DF8BF
:100EA0002B110AF8018002884B1C043202804FEAA1
:100EB0001B62DBB20AF803208B1C4FEA1B42DBB239
:100EC0000AF80320CB1C4FEA1B22DBB20AF80320EE
:100ED0000A1DD2B20AF802B0028801320280481D0F
:100EE000C0B20AF80040881D8DF82B010022ACE644
:100EF0001F00002001000003220000200901000261
:100F00001B00002030BCBDE8C08FB0B50446D0F84F
:100F1000BC0320B9204600F09DF800B1B0BD002010
:100F2000C4E9F500C4E9F7000120012171290DD0C1
:100F30004B0904EB830301F01F02D3F8D45300FAEA
:100F400002F22A43C3F8D4230131EFE7002004283A
:100F500007D004EB8001D1F8D4230130C1F8C423B9
:100F6000F5E7002084F8540094F8C11384F8551074
:100F7000B0BD000010B5F54B5C8901345C818A700E
:100F80000322BDE8104004F043BE00BFF0B5C1B07D
:100F90000C46EE4915464A8901AE02324A8140F2BA
:100FA0006151ADF806103146042204F031FED0B98B
:100FB0009DF8051001220020D2B28A4211D2237876
:100FC00098420ED293195F799B7905F81070013B16
:100FD000B3FA83F305EB40075B097B700130023203
:100FE000EAE72070002041B0F0BD00BF10B5C2B0EC
:100FF000D64A5389DC1D54814FF48074ADF80E40FD
:10100000124CCDF80A4000248DF810400C780CB139
:101010000F4819E00C334968538120228DF81120C4
:101020000B228DF809200A0A8DF815108DF814206E
:101030000A0C090E8DF813208DF8121002A90DF17B
:101040000702002304F0E8FD42B010BD2F000003AA
:1010500003000003B0B5C0B00446F0484FF47A7204
:101060004189013141814FF48060ADF8010069464A
:10107000204604F033FE054620B904F56B7069463E
:1010800005F0F1FA284640B0B0BD00BF80B5C0B051
:1010900069462A22FFF76EFF40B080BD70B5F44C60
:1010A0006589013565810D786E1C0E704255628927
:1010B000023262810A78551C0D701D0A85540A7827
:1010C000551C0D708354049A3AB1628901326281D1
:1010D0000A78531C0B700023835462784AB1A278BB
:1010E0003AB96289013262810A78531C0B708821F7
:1010F000815470BD2DE9F043C1B00746DC488946F4
:1011000041890DF104080331418140F26140ADF89D
:10111000060097F85E0615468DF8080038464146E9
:10112000052204F075FD002841D19DF805109DF8B9
:101130000A00013901224FF0000C002387F85E06F7
:10114000D7B28F4230DA99F8002093422CD207EBC5
:1011500008029679032805F833600DD0022814D0D0
:1011600001281ED105EBC3040026A680B2F8072093
:1011700012BA120C628011E005EBC304C4F802C07D
:10118000B2F8072012BA160C08E005EBC3040026DB
:101190006680B2F8072012BA120CA28005EBC302D7
:1011A000D6800133FA1CCBE7002089F8003041B02B
:1011B000BDE8F08370B5C0B00C46AD496D464A89B4
:1011C00002324A8140F26161ADF8021029460422E0
:1011D00004F01EFDC8B9012100209DF80120C9B20C
:1011E000914210D240280ED0227990420BD24A1957
:1011F00053792668023106F83030927906EBC00345
:101200005A600130E9E76071002040B070BD00BF56
:1012100070B5C0B06E460C46314670220546FFF7E9
:10122000A9FE48BB002060719DF80110C0B2884241
:101230000FD2617922790131CBB29342617106D824
:10124000226852FA81F18219927901F8012C023058
:10125000EAE7002001210022C5F8BC0363799A4225
:1012600009D223689B5C0132013B01FA03F3184366
:10127000C5F8BC03F2E7002040B070BDB0B5C0B007
:101280006D460C4629467122FFF774FEB0B9002066
:10129000691D60719DF8012090420ED26279237918
:1012A0000132D5B29D42627105D825680B5C55FAB2
:1012B00082F202F8013C0130ECE7002040B0B0BD02
:1012C00010B5C0B00C4669466322FFF753FE10B953
:1012D0009DF80610217040B010BD70B5C0B06E46CC
:1012E00015460C4631466522FFF744FE98B99DF835
:1012F0000100002180082278042A0AD3814208D202
:1013000006EB8102D2F8052012BA45F821200131FE
:10131000F1E72070002040B070BD000010B5C0B0F3
:101320000C46F3494B8902334B8165218DF802103D
:101330008DF803206946042204F06AFC18B9DDF830
:10134000061009BA216040B010BD00BF180000208F
:101350000122FFF7E3BF0000F0B5C1B001AD0C46BC
:10136000074628464FF480711646FEF75FFFF548A2
:1013700041890231418101208DF8070046F2016068
:10138000ADF80500D7F814223846294604F0A6FC2B
:1013900040BB9DF805000321013890FBF1F0227855
:1013A000C1B2914288BF1046C1B2721C0623B9B1C6
:1013B000DEB2AE5D013902F8016C5E1CF6B2AE5DC4
:1013C000013EB6FA86F6760996709E1CF6B2AE5DC0
:1013D0000333013EB6FA86F6760916700432E6E764
:1013E0002070002041B0F0BD10B5C0B01446E34AF3
:1013F00053890233538196228DF802208DF8031011
:101400006946042204F004FC30B99DF80610013945
:10141000B1FA81F14909217040B010BD18000020D7
:10142000B0B5C0B01C46F74B8DF803105D89102194
:1014300003355D816D468DF802108DF80420294634
:10144000052204F0E5FB08B100210EE044989DF868
:1014500001106A1D0023994206D02578AB4203D2C1
:10146000D55CC5540133F6E70020217040B0B0BD13
:10147000180000200322FFF751BF10B5C0B00C4682
:1014800069466822FFF776FD10B99DF805102170B6
:1014900040B010BD2DE9F04FC3B01646794A8446DE
:1014A0005489F7B2A01C50816B208DF80E008DF886
:1014B0000F107549C6F3072AA1F1080B5846152FDE
:1014C00000F2978088460121704DB940294200936F
:1014D00000F08F80E01C0DF10C09350A5081604648
:1014E000494605228DF8105004F092FB002840F088
:1014F00080806FF0040050FA86F2E9B25846062A5E
:101500001BD8DFE802F00476767623273E00172901
:1015100047D89DF813204046DFE801F00C6E0C6BB5
:101520006B6B6B6B6B6B6B6B6B6B6B6B800C838B1D
:101530000C95A20C009802705AE0142F27D0152F9A
:1015400057D1AAF1010001282BD82CE0481E02280F
:1015500027D828E0AAF10100012822D89DF80D0023
:1015600001AD09F10701821E284606F09AF89DF8A0
:101570000D000238C1B2284601F0B6F90099088082
:1015800036E0481E022821D303290AD10BE0481E69
:1015900002281BD3032906D0042902D19DF8130089
:1015A00011E0404625E09DF80D0001AD09F107016D
:1015B000821E284606F075F89DF80D000238C1B26B
:1015C000284601F091F90099087011E09DF80D008E
:1015D00001AD09F10701821E284606F062F89DF868
:1015E0000D000238C1B2284601F07EF9009908606A
:1015F000002043B000F04CB89DF8140040EA0220EF
:10160000B8B3009A012836D040F20111884234D094
:10161000B0F5807F33D100201070EAE70098028097
:10162000E6E70099012A0A70E2D19DF8140048709B
:10163000DEE7DDF81600DDF81A10009A00BA09BAE4
:10164000C2E90001D4E79DF814009DF815100004CC
:101650009DF8163040EA026040EA01201844C5E7D0
:101660009DF814000099002A487018BF01220A70E2
:10167000BEE70220A7E7032002E0012000E00420EB
:101680001070B5E71800002009000003200E30009C
:1016900030BCBDE8C08F0000B0B5C0B00C46EE490C
:1016A0006D464A8902324A8140F26311ADF8021058
:1016B0002946042204F0ACFAC0B9002060719DF8FC
:1016C0000110C0B2013988420FDA61792279013103
:1016D000CBB29342617106D8226852FA81F1421965
:1016E000D27901F8012C0230E9E7002040B0B0BD0A
:1016F000180000200222FFF711BE622200F024B879
:1017000010B5C0B00C46E6494A8902324A814FF40E
:10171000B171ADF802106946042204F079FA70B98B
:10172000BDF8061009BA090C2180BDF8081009BAE5
:10173000090C6180BDF80A1009BA090CA18040B0FB
:1017400010BD00BF1800002010B5C0B00C46F34912
:101750008DF802204B89042202334B8100218DF841
:101760000310694604F054FA30B99DF806109DF84C
:10177000072042EA0121216040B010BD180000207E
:10178000B0B5C0B00D46E54914464A8903324A81D6
:101790004FF4B571ADF80210694605228DF804507A
:1017A00004F036FA002822D1DD48212D1FD89DF8FB
:1017B0000710DFE805F0171C1C151111111C171C70
:1017C00011171124151C1C1C1E1E1C1C1C1C1C1C6F
:1017D0001C111C1C151C1C15481EB0FA80F003E0DF
:1017E000217003E0B1FA81F040092070002040B080
:1017F000B0BD9DF8080040EA01202080F6E7216096
:10180000F4E700BF180000202DE9F041C0B0064603
:10181000C248904642896D460332428102208DF8CB
:10182000030046F602408DF80410ADF80100D6F82A
:1018300014223046294604F051FA002858D1B8F154
:10184000000F54D09DF8010008F5017C831CD6F8E8
:10185000040208F5827E467908F104020727FCB2EB
:10186000A34244D9285DC10716D1810729D40007B6
:10187000F6D502370024A64236D0F8B2285C0138EB
:10188000844204D1781CC0B2285C023700E00020FA
:101890004CF824000134EEE702370024A64223D09E
:1018A000F8B2285C0138844206D1053755FA87F032
:1018B00050F8040C00BA00E0002042F82400013483
:1018C000ECE702370024A6420ED0F8B2285C0138BB
:1018D000844204D1781CC0B2285C023700E00020AA
:1018E0004EF824000134EEE788F80060B7E70020E6
:1018F00040B0BDE8F08100BF2DE9F041C4B005461D
:10190000864814460A46418904AE023141810620C8
:101910008DF80E004FF41B70ADF8120004208DF806
:101920000F000DF10F013046002301F059F89DF82A
:101930000F00314603388DF81100D5F814222846DF
:1019400004F0CCF9002840F08380002C7CD0B4F85F
:10195000580000210022D3B298428DF80F2011D9EF
:101960005B0053FA82F2636D03F822109DF80F209A
:1019700002EB420203EB8202117251609DF80F20CC
:101980000132E8E704AE0DF10A070DF10E02304610
:10199000394605F00EFB0146384600F0A5FFA5F8D4
:1019A0006C069DF80E002146009028460022334622
:1019B0004FF0000804F0AEFA002849D10020D5F815
:1019C0000412C7B24B798DF80F009F423CD27900C8
:1019D00051FA80F2616D11F822602EB1B4F85A10FC
:1019E0000131A4F85A102DE001EB820C07EB4702FD
:1019F00001EB820202F108065A1ED2B2D21B571C1A
:101A0000013F1FD0327906F10C03002A1E46F7D0A1
:101A10008CF800209DF80F0000EB400001EB8000E7
:101A20001978017253F8041C416003F8088C83F89C
:101A30000080B4F85A000130A4F85A0043F8048C2E
:101A40009DF80F000130BAE7B5F86C062080002041
:101A500044B0BDE8F08100BF1800002010B5C0B050
:101A60001446EE4A8DF8031053896B2103338DF829
:101A700002103F2153818DF804106946052204F0BD
:101A8000C7F850B99DF80710002918BF012121702F
:101A9000BDF8081009BA090C618040B010BD00BF44
:101AA0001800002010B5C0B00C4669466722FFF749
:101AB00061FA10B99DF80510217040B010BD00000A
:101AC000B0B5C0B00D46EA4914464A8903324A818E
:101AD00040F26711ADF80210694605228DF80450F6
:101AE00004F096F8B8B9A5F1400103290BD89DF888
:101AF0000800DFE801F00206020A0138B0FA80F0BF
:101B00004009207006E0064805E09DF8091041EA0A
:101B100000202080002040B0B0BD00BF1800002091
:101B20000900000310B5C0B00C4669462922FFF732
:101B300021FA48B9BDF80720BDF8051012BA09BA54
:101B4000120CA2EB1141218040B010BD10B5C0B005
:101B50000C4669467222FFF70DFA10B99DF8051080
:101B6000217040B010BD10B5C0B00C466946692266
:101B7000FFF700FA10B99DF80510217040B010BDB4
:101B80006422FFF7E1BD00002DE9F041C6B0DDF8A9
:101B90003C8104460020C8F800004D984E9D0290FC
:101BA0004C9817460E460395CDE9003006A920460D
:101BB00032463B4601F02AFE98BB222E30D122202D
:101BC00084F8020594F8960006A960B10DF116029A
:101BD00020462B4604F020F818BB0120C4F8FC0373
:101BE00084F89B011CE020462A4604F077F880B177
:101BF00005465548854224D01348854221D01348D4
:101C0000854211D10020C8F80000C4F8FC030F4839
:101C100007E0DDF8210000BAC8F80000C4F8FC03B2
:101C2000002046B0BDE8F0810DF116012046FFF717
:101C300079FF0028F5D1BDF81600C8F80000C4F8F7
:101C4000FC032846EDE700BF017F0002000400020C
:101C50002DE9FE4F0D46D0F8A41100F5D07A0446C8
:101C6000504688470746002866D194F80C06D4F8F9
:101C70001082009510B96420C4F810023248314E29
:101C800004F56B7502220027814600214FF0000BFE
:101C9000B4F81606834545D2BBF1010F06DC2AB124
:101CA000D4F80012ABF1010B013A07E0D4F81006AA
:101CB00050F82B10D4F80002814228D00192D4F8B9
:101CC000B02122B150460F469047394610BB0291D1
:101CD000D4F8B8115046884707461948874218BFBC
:101CE000002F29D12046294600F0B6FDB042F9D098
:101CF00007464F45484608D077B12046C4F81082C1
:101D000005F08AFD0028EDD004E0DDE901210BF1AA
:101D1000010BBDE707460FE0C4F81082B4F81606C1
:101D200002990027834501D1074F05E00098016023
:101D3000D4F8B41150468847384600F007B800BFC1
:101D40000200000307000001010000011EBCBDE805
:101D5000E08F000070B5C6B0054602208DF8170070
:101D6000002003904A980C460290CDE9002306A972
:101D70000DF117022846234601F07FFE98BB222072
:101D800085F802059DF817004B9E03388DF8190061
:101D900095F8960006A940B10DF116022846234693
:101DA00003F03AFF002131601DE02846224603F08F
:101DB00095FFC0B9B6B19DF81900011F0B48042961
:101DC00011D8DFE801F0030610090B009DF8200090
:101DD00007E09DF8210004E0089801E0DDF821000B
:101DE00000BA3060002046B070BD00BF04000001A2
:101DF00080B5C0B0AD4A53890333538101228DF8B9
:101E000003208DF8041046F60241ADF80110D0F819
:101E10001422694603F062FF40B080BD1800002024
:101E200010B5C0B0A14A7F29538903F1020454813F
:101E30004FF4B674ADF8024003D803335381022245
:101E40000AE00433538101F07F028DF805206FF022
:101E50007F0242EAD11103228DF801208DF804108F
:101E6000D0F81422694603F039FF40B010BD00BF1E
:101E7000180000202DE9F047C0B0DFF8C4CD40F2D3
:101E80009144BCF80A30ADF802400333ACF80A3094
:101E900090F85E8602F1060A05274FF00009EE462B
:101EA0008DF8048081B31AF8064CFDB20EF8054097
:101EB0005C1C7D1CB8F1030FACF80A400DD0B8F1E2
:101EC000020F06D0B8F1010F16D102EBC90402349B
:101ED00004E002EBC904043400E054462488EDB267
:101EE000260A0EF80560BD1CEDB2033303370EF869
:101EF0000540ACF80A3001E023462F460AF1080AF3
:101F0000013909F10109CDE7FAB2694603F080FE13
:101F100040B0BDE8F08700BFF0B5C1B0DFF820CD1C
:101F200048F29125BCF80A40ADF806500234042569
:101F300001AEACF80A4049B10134ACF80A4012F8DD
:101F4000013BEFB2F35501390135F4E7EAB201A9DB
:101F500003F05EFE41B0F0BD80B5C0B0F44A5389D5
:101F60000533538106228DF802200A0A8DF80610E7
:101F70008DF805200A0C090E8DF804208DF8031049
:101F80006946072203F044FE40B080BDF0B5C1B001
:101F90003E2901D917482AE0DFF8A4CC9525BCF8E2
:101FA0000A408DF80650013403250DF1040EACF8FB
:101FB0000A40C1B108CAEFB21E0E0EF807606E1CCF
:101FC000F6B21F0C0EF80670AE1CF6B21F0A0EF821
:101FD0000670EE1CF6B204340EF80630ACF80A4077
:101FE00001390435E5E7EAB201A903F011FE41B079
:101FF000F0BD00BF0600000310B5C0B0E94B8DF87E
:10200000032095225C898DF802200A0A8DF80710BA
:102010008DF806200A0C090E06348DF805208DF87F
:102020000410694608225C8103F0F2FD40B010BD47
:1020300010B5C0B0EE4B8DF805205C898DF804100A
:102040004FF4CB71ADF80210002105348DF8061065
:10205000694607225C8103F0DBFD40B010BD00BF84
:1020600010B5C0B0E24B8DF802205C898DF80310EA
:102070000234694604225C8103F0CAFD40B010BD01
:102080009822FFF7EDBF000080B5C0B0FA4A8DF886
:1020900004105389932103335381ADF8021069462C
:1020A000052203F0B5FD40B080BD00BF1800002040
:1020B0002DE9F041C2B07A4D80466E89B01C68812E
:1020C0009B208DF80A0004208DF807006FF00400B3
:1020D0008DF80B1050FA82F490B27249070A062C60
:1020E00023D80846DFE804F0046868682733410015
:1020F000F01C688105208DF8070001F10800172FFA
:102100008DF80C7000F25880DFE807F00C590C567F
:102110005656565656565656565656566A0C76814A
:102120000C9DAD0C301D68813AE0D0B214281AD055
:102130001528084640D1022F2AD1F01C68810520BD
:102140008DF8070002208DF80C001A7818E0022F95
:102150001ED1F01C688105208DF8070002208DF843
:102160000C001A880CE0042F15D0022F10D1F01C9F
:10217000688105208DF8070002208DF80C001A6890
:1021800002A80DF10701002300F02AFCA0B90DE020
:1021900001F1080010E0301D688104208DF80C006A
:1021A00006208DF8070018788DF80D009DF807209F
:1021B00002A9404603F02CFD42B0BDE8F08193F93E
:1021C00000200846032AF7D8701D688107208DF883
:1021D000070035A050F822008DF80E00000AE3E752
:1021E0001888FA2852D0B0F5207F51D0B0F5A07FE2
:1021F0000846E1D102204CE0301D688106208DF8B0
:102200000700187801288DF80D00CFD135E006F1D0
:102210000E00688103208DF80F000120ADF80D003D
:1022200010208DF80700D3E9000100BA8DF81710CF
:102230000490080A8DF81600080C8DF81500080E99
:102240008DF81400B2E7F01D688109208DF80700B1
:102250001868010A8DF810008DF80F10010C000E9F
:102260008DF80E10A0E7301D688106208DF807005C
:10227000187800288DF80D0098D0701D688107200F
:102280008DF8070058788DF80E008FE7002000E0E9
:102290000420311D698106218DF8071084E700BFF5
:1022A00018000020010000030001000001010000EF
:1022B000000000000100000070B5C0B00446CF4827
:1022C0000D464189012D01F1020141814FF09E002F
:1022D0008DF802008DF8035008D16846043011468D
:1022E0001A461E4605F0DDF9301D00E004206E465A
:1022F000C2B22046314603F08BFCB8B9012D15D18E
:102300000020C4F8BC039DF801100122023900230B
:10231000DBB28B4209DA9D19ED790233013D02FAF5
:1023200005F52843C4F8BC03F2E7002040B070BDB7
:10233000180000202DE9F047C0B0DFF8A8CF042531
:10234000BCF80A204FF0000E941C40F29312ACF837
:102350000A40ADF80220144A91F805809246E946F9
:102360000023984514D00F68D0F8BC23FF5C7E1E74
:10237000F240D20711D0EAB209F802E042F00102BD
:10238000023409F80270ACF80A4001330235E8E77C
:10239000EAB2694603F03CFC00E0504640B0BDE8BC
:1023A000F08700BF1800002003000003922200F015
:1023B00001B8000010B5C0B001F500430024B4EB33
:1023C000134F01D009480EE08C4B8DF802205C8938
:1023D0008DF80410090A03348DF8031069460522AC
:1023E0005C8103F015FC40B010BD00BF0E0000037F
:1023F0001800002070B5C0B0804C0D29658905F12A
:10240000030363814FF4CD73ADF802301B4B8DF89D
:1024100004100ED8DFE801F0071B1B111111111B6E
:10242000071B11071121291D6181117881F001031A
:1024300006E01B2918BF21290CD1291D61811378C1
:102440000622052469460B5503F0E2FB03461846B5
:1024500040B070BD1E29F0D0F9E7E91D6181136815
:102460000922190A8DF80710190C8DF80610190E9B
:1024700008248DF80510E5E7180000200900000386
:10248000B0B5C0B0F34C53886589063565813F24EB
:102490008DF804408DF803109B218DF802101178FF
:1024A00008228DF80510190A8DF807308DF80610EE
:1024B000694603F0ADFB40B0B0BD00BF10B5C0B081
:1024C000F24B5A89941C5C8197248DF802409C79C8
:1024D00034B302F10C01598140218DF805104FF6FB
:1024E0000171ADF8031041218DF8071042218DF8DC
:1024F000091043218DF80B100B218DF8011019796B
:102500005A795C7A8DF8061099898DF808408DF813
:102510000A208DF80D10090A8DF80C100E2202E029
:1025200004228DF80310002199719980694603F007
:102530006FFB40B010BD00BF10B5C0B0D34B5C897D
:1025400006345C8143238DF805308DF8041040F289
:102550009711ADF80210110A8DF807208DF80610BA
:102560006946082203F054FB40B010BD422300F03E
:1025700001B80000B0B5C0B0C44C8DF80530658915
:102580008DF8041040F297110535ADF802108DF862
:10259000062069460722658103F03AFB40B0B0BDD2
:1025A0004023FFF7E7BF000010B5C0B0B74B5C8910
:1025B00005345C8141238DF805308DF8041040F21C
:1025C0009711ADF802108DF806206946072203F036
:1025D0001FFB40B010BD00BF80B5C0B0AB4A5389EF
:1025E0000233538191228DF802208DF80310694641
:1025F000042203F00DFB40B080BD00BF1800002096
:102600009922FFF72DBD00002DE9F041ADF52E7D9B
:1026100004469E48884641898DF8BC210D1D9D22A7
:10262000B8F1040F45818DF8BB818DF8BA218DF882
:10263000BD3103D1002084F8380617E0B8F1050F4A
:1026400014D105314181012084F89600276D387A34
:1026500084F838068DF8BE013878022815D1397D06
:102660006B4E202940F28180033639E00620C2B249
:102670006EA9204603F0CCFA0646002840F0B1804F
:1026800094F8380688B30026ABE097F82000394666
:1026900084F85C0697F82C0084F8990040F2011049
:1026A000ADF8B40004A82C90204604F0B9FCB0B9F1
:1026B000387D0CAA8DF81000B8690B230C90B4F883
:1026C0007006FA21CDE90003029203912EA92CABEA
:1026D0002046222201F09AF8002800F08780064662
:1026E000002107200029C2D17BE0B8F1040F02D0FD
:1026F000B8F1020F2BD16079002869D0B8F1040F2E
:1027000004BF4FF4E130C4F80002204600F030FB73
:102710000646002865D10120B8F1040F607102D08F
:10272000B8F1020F13D104F506712046FFF7BAF98C
:102730000646002855D104F155012046FEF7C0FD9C
:10274000064600284DD194F8550084F8C1030026B0
:10275000B8F1040F45D194F8C13304F118000021F9
:1027600000220096FEF78CF83BE007F10C0004AA6B
:1027700000230CAD8DF8B4108DF8B5102C928B425F
:102780000DD2F96851F82310097DD154F96851F838
:102790002310896945F82310397D0133EFE70029BB
:1027A0009ED0016809680978012999D103F0C1FE1A
:1027B000002895D02046394604F032FC00287FF4EA
:1027C0008EAFB4F87006FA210B228DE825007CE765
:1027D000D4F8A41104F5D0708847064600283FF4C9
:1027E0008DAF30460DF52E7DBDE8F0819DF8B92006
:1027F0006EA82EA907300131023204F052FF0026E4
:1028000084F896609DF8B900012109306AE700BF9D
:10281000030000039422FFF7CDBD000080B5C2B0D5
:10282000002180F89B1119494A8904324A8102210A
:102830008DF80D1042F60371CDF809102F218DF897
:102840000710D0F8143202A90DF1070203F0E4F9E1
:1028500042B080BD18000020B0B5C0B00C46F849A9
:102860004A8901324A814FF44071ADF8011069463E
:10287000002203F033FA054624B11DB9694620460B
:1028800003F0F1FE284640B0B0BD00BF18000020A4
:1028900070B5D0F8A41100F5D076044630468847CC
:1028A0000546C0B9204600F063FA28B1D4F8B41147
:1028B0000546304688470EE0204603F012FE2046CB
:1028C000FEF723FB05460748854204D1204604F065
:1028D000A3FF054608B1284670BD2046BDE87040FC
:1028E000FEF713BB13000003F8B50646481E00258B
:1028F000072807D80024DFE800F00407152E476EEC
:102900006E5D3578002466E030787178002441EA05
:1029100000205FEA54014FEA300101F47E5100F0DB
:102920007F0016E071783078B278090241EA004001
:1029300010442A4A002400F07F0110405FEA54024C
:102940004FEA300202F47E5211444FF4FE1202EAC2
:1029500090000D183FE03068002400BA20F080316C
:102960005FEA54034FEA31034FF4FE1203F47E533F
:1029700000F07F0002EA9102184410444FF07E629A
:1029800002EAD101451826E030787178B278040760
:1029900061F35B5402F07F013279F37844EA8131CC
:1029A00002F07F02114403F07F0241EAC215C0F336
:1029B000021410E000253827002417F108000AD07F
:1029C00016F8010B07F4FF620021FDF7F9FB0C4339
:1029D0000543083FF1E728462146F8BD7F7F7F0089
:1029E00070B50024D2F17F059C4104D3DF4B1C88D5
:1029F00001341C8067E0940B44EA834444EA933436
:102A00006CB9DA4B1C8802341C800B785C1C0C708F
:102A1000802444EAD214C45402F07F0253E0540DDF
:102A200044EAC32444EA53549CB9D04B02F07F05D6
:102A30001C8803341C800B785C1C0C7002F47E54E0
:102A400045EA440402F4FE1244EA8202244C224382
:102A500031E0140F44EA031444EA137424B9C34B5D
:102A60001C8804341C800EE0072B32D8BF4C1B019D
:102A7000258843EA1273053525800C7843F08003DE
:102A8000651C0D7003550B7802F07F055C1C0C7003
:102A900002F47E5445EA440402F4FE1644EA860435
:102AA00002F07E6244EAC2020C4C2243140EC4546B
:102AB0000B785C1C0C70140CC4540B78120A5C1C50
:102AC0000C70C2542A460B785C1C0C70C254002057
:102AD00070BD014870BD00BF010000030080808010
:102AE00000808000B0B5002580F89B51D0F8B4116B
:102AF000044600F5D070884700206571B0BD000025
:102B00002DE9F04FC3B0064690F8960098469146DE
:102B10000D4658B34A482F2342898DF80B302223A3
:102B20008DF81230474BD11D4181CDF80E3096F80B
:102B3000453696F880469F01E4008DF814708DF8B4
:102B40001340CDF804808BB302F10B014181D6F81C
:102B500048260D27130A8DF818208DF81730130C0E
:102B6000120E8DF816308DF8152020E0344C96F8B2
:102B70005D0661784A4608434FF0060008BF05200D
:102B80002F5C3046294603F0A9F8F0BBB8F1000FDE
:102B900054D096F85D06617808434FF0090108BFEC
:102BA0000821F80634D4685C01313AE0092796F828
:102BB000C1230DF10C0B0BF807204A1C0BEB07048B
:102BC0004FF0000A428184F801A06A780231418105
:102BD00047F00208A91C551C0BEB08002A4604F01C
:102BE00060FD08EB0500C11B0339033861708DF8E7
:102BF0000D000DF10B02304659464B4603F00CF820
:102C00000199A1F804A0C1F800A043B000F01CB8DD
:102C100041F002004A19285CD27841F0040142EAEE
:102C20000020A8F800004819418809BA090CA8F842
:102C30000210808800BA000CA8F804000020E4E725
:102C4000180000202F00000130BCBDE8C08F00003C
:102C50007CB50546D0F8FC03002847D095F801055F
:102C60000C4605F58066002842D095F8021595F8C7
:102C7000000522298DF807001FD1EF490DF1070348
:102C8000097800290FBF002001308DF807000120CE
:102C900095F8961000F10802002908BF421DA818F7
:102CA000B0F80004214600BA020C2846009602F053
:102CB0004FFA00284DD19DF8070005F5D07185F831
:102CC0000005204602F01AFC95F80105013885F848
:102CD000010595F8960028B9D5F8FC030138C5F828
:102CE000FC0332D00020C4F868537CBDD4487CBDBE
:102CF00095F8960020B1284600F06CF848BBB4E780
:102D000095F80205222825D1292085F80204002003
:102D100085F8050415480622018804310180B5F8BC
:102D20007006314600BA000CA5F8030406208DF8A1
:102D30000700284602F06CFF58B9092085F8000505
:102D400095F8080485F801058FE72846FEF79EF9F7
:102D500010B17CBD04487CBDD5F8FC030028C1D16E
:102D6000002085F84006BDE7010100022200002096
:102D7000F8B5D0F8B021044600F5D07522B1D4F8EA
:102D8000001228469047C8B9D4F8B8112846884799
:102D90000D49884200D088B90C4E0D4F04F56B7573
:102DA00020462946FFF758FDB042F9D0B84205D079
:102DB00028B1204604F030FD0028F1D0F8BD0120F4
:102DC00060710020F8BD00BF020000030700000191
:102DD00001000001F0B5ADF5677D044690F896005E
:102DE00010B194F8010548B1D4F8FC03944E0028C2
:102DF000C8BF002630460DF5677DF0BDD4F8F83326
:102E000004F5806520462946222202F0CDFD0028E7
:102E100042D0874FB84243D08649884233D10AAE68
:102E2000304602F0A9FF84480C2100780DF29B3354
:102E300000284FF0090008BF0B218DF89B1308BF35
:102E400008202044B0F80004314600BA020C2046A5
:102E5000009502F07DF906460028CBD104F5D0712B
:102E60000AA802F04BFB002084F89B0102A920462F
:102E7000E494FEF7BBF80646012084F89B01002E7F
:102E800008BFFE1CB6E794F80514042927D194F86E
:102E900002142F2923D118B994F8011400294DD018
:102EA00094F80214222901D02F2922D1604EB04279
:102EB000A0D02F2944D194F80504042800F0A7805D
:102EC000032800F0B180022840F0AC80002084F894
:102ED0003906012084F844065948C61D8AE70021B6
:102EE00084F83916D4F80C14064609BAC4F8EC1361
:102EF00080E794F80124062A1ED34F49097821B9A6
:102F000094F85D16002900F0918001214A19527948
:102F1000D2064FF00A0258BF08225718E95DD1B314
:102F200001296CD0022907D1092084F8000501206D
:102F300084F8980000265DE7424E5BE73F4E59E774
:102F400094F801242229D6D1072AD6D194F8031463
:102F50000029D2D194F804140029CED194F80504A4
:102F6000374EC0073FF446AF94F8450600283FF4BB
:102F700041AF94F8070410F040003FF43BAFD4F8A1
:102F80000814D4F8480609BA8142FFF433AF20464A
:102F9000FFF744FC2EE70021C4F8FC1384F839162F
:102FA00094F83D1602290DD004F23D652046122109
:102FB0002A4603F07BF9064600287FF41BAF022067
:102FC00028700020216DC96991B1E119B1F8072479
:102FD000B4F8063612BA03EB1242A4F80626B1F88A
:102FE0000914B4F8082609BA02EB1141A4F808162E
:102FF000002804BF0820C0F200300646FAE600268A
:1030000040F20B1084F89860A4F80005F2E694F8FA
:10301000011404F19B004A1D294604F042FB0020E4
:1030200084F89A00064EE5E60336E3E600216DE7F4
:10303000010600020406000219000020000400023C
:103040000800000304000001E3B1B0B50C4611789C
:103050001D46425C42F040024254FB494A8901321B
:103060004A8122789979531C237081542178EA8807
:103070000844296804F015FBA879217808442070D9
:10308000BDE8B040704700BFB0B50C46D98809B361
:103090001D461B681B78EBB123781944FF2901D921
:1030A0000D48B0BD1178425C42F004024254E6493A
:1030B0004A8901324A812278A979531C23708154AC
:1030C0002178EA880844296804F0EBFAA879217885
:1030D000084420700020B0BD060000032DE9FF4722
:1030E0001E4613464FF000094FF0010A2E220D46EE
:1030F00004468DF80F90CDF800A0FDF7CFFFF84FF4
:1031000095F8008078890DF10F02013078812878D8
:103110002B46411C29704021215478890130788147
:103120002878411C297004F800900E980F99CDF86A
:1031300008A0CDE90040052003F0C4FA14F80810F7
:103140009DF80F20114304F8081079890431798122
:1031500029784A1C2A70320E625429784A1C2A7037
:10316000320C625429784A1C2A70320A6254297837
:103170004A1C2A70665479890131798129784A1C60
:103180002A700C9A625479890131798129784A1C14
:103190002A700D9A625404B0BDE8F0872DE9F0431F
:1031A00085B0FA4F044678890D4601307881087859
:1031B0004FF00009411C29702E212154788998462E
:1031C0000230788128782B46411C2970110A21543D
:1031D0002878411C2970225478890DF1130201309E
:1031E00078812878411C297004F8009078892E781D
:1031F000013078812878411C297040212154788938
:10320000013078812878411C2970012121541098BF
:1032100002911199CDE9004005208DF8139003F03B
:1032200051FAA15D9DF81320B8F1010F41EA0201A6
:10323000A155798901F101017981297801F1010212
:103240002A7004F80190798901F1010179812978C6
:1032500001F101022A7004F80180798901F101016C
:103260007981297801F101022A700C9A62547989D6
:1032700001F104017981297801F101022A700D9A86
:103280004FEA12636354297801F101032B704FEA6E
:1032900012436354297801F101032B704FEA122382
:1032A0006354297801F101032B706254798901F18B
:1032B00001017981297801F101022A700E9A625484
:1032C0000DD17A890F99023209887A812A78531CA4
:1032D0002B700B0AA3542A78531C2B70A15405B0F1
:1032E000BDE8F083180000202DE9FF47DFF86CAA45
:1032F0000546BAF80A000C460130AAF80A00087818
:103300004FF00009411C21702D212954BAF80A0000
:1033100098460230AAF80A0020782346411C217002
:10332000110A29542078411C21702A54BAF80A0045
:103330000DF10F020130AAF80A002078411C21701B
:1033400005F80090BAF80A0026780130AAF80A00B9
:103350002078411C217040212954BAF80A0001301C
:10336000AAF80A002078411C217005F80090BAF8EC
:103370000A000130AAF80A002078411C2170C721F8
:103380002954012002900F981099CDE90050052092
:103390008DF80F9003F096F9A95D9DF80F20114369
:1033A000A955BAF80A100131AAF80A1021784A1C66
:1033B000227005F80190BAF80A100131AAF80A1033
:1033C00021784A1C227005F80180BAF80A100431ED
:1033D000AAF80A1021784A1C22700C9A130E6B541A
:1033E00021784B1C2370130C6B5421784B1C2370D9
:1033F000130A6B5421784B1C23706A54BAF80A10D4
:103400000131AAF80A102278511C21700D99A95493
:103410000E9AB1B1BAF80A3001390133AAF80A306C
:1034200026785378771C2770AB55BAF80A300133E9
:10343000AAF80A3026781378771C2770AB55023229
:10344000E7E704B0BDE8F08718000020F8B51E4695
:103450001346002728220D4604460097FDF71EFE5E
:10346000E948099B418901F101014181297801F174
:1034700001022A70089A6254DDE9062C53B143898F
:10348000023343812B78591C2970E75429784B1C4F
:103490002B70675441890131418129784B1C2B7075
:1034A000665441890431418129784B1C2B70130EDD
:1034B000635429784B1C2B70130C635429784B1CD4
:1034C0002B70130A635429784B1C2B70625441896A
:1034D000013141812878411C297004F800C0F8BDF1
:1034E00018000020F0B5C84C6589013565810D785C
:1034F0006E1C0E70242646556589023565810D784F
:103500006E1C0E70160A46550D786E1C0E704255D4
:10351000069A002A18BF6FF07B02A5786678002D06
:10352000154608BF65F07705002E08BF1546059AB9
:1035300035B16689013666810E78771C0F70855526
:103540006589013565810D786E1C0E700026465523
:103550006589043565810D786E1C0E70160E465512
:103560000D786E1C0E70160C46550D786E1C0E7084
:10357000160A46550D786E1C0E704255628901324E
:1035800062810A78541C0C708354F0BD180000202E
:10359000F8B51E461346002726220D46044600971E
:1035A000FDF77CFD984841890131418129784A1C09
:1035B0002A70675441890431418129784A1C2A7054
:1035C000320E625429784A1C2A70320C62542978CF
:1035D0004A1C2A70320A625429784A1C2A7066549E
:1035E0004189013141812878411C29702754F8BD57
:1035F000F8B51E461346002725220D4604460097BF
:10360000FDF74CFD804841890131418129784A1CF0
:103610002A70675441890431418129784A1C2A70F3
:10362000079A130E635429784B1C2B70130C6354A8
:1036300029784B1C2B70130A635429784B1C2B7070
:10364000625441890231418129784A1C2A70320A28
:10365000625429784A1C2A7066544189023141819A
:103660002878411C297006990A0A22542878421C9D
:103670002A702154F8BD00BF70B50C46FB494D8936
:1036800001354D8125786E1C2670232646554D89BF
:1036900002354D8125786E1C2670160A4655257810
:1036A0006E1C267042554A8902324A8121784A1C92
:1036B00022700022425421784D1C257042542178FA
:1036C000049D084419462A4603F0EBFF207828445D
:1036D000207070BDF0B5E54C6589013565810D78C8
:1036E0006E1C0E70282646556589023565810D7859
:1036F0006E1C0E70160A46550D786E1C0E704255E3
:103700006289013262810D786A1C0A70002242557A
:10371000079D55B16589023565810D786E1C0E7067
:1037200042550D786E1C0E7042556689DDE90552D2
:10373000013666810E78771C0F708355E6796389B0
:103740008EB1043363810B785E1C0E702E0EC6544E
:103750000B785E1C0E702E0CC6540B785E1C0E701F
:103760002E0AC65401E0013363810B785E1C0E7093
:10377000C5546389013363810B785C1C0C70C2549F
:10378000F0BD00BF70B5B94C6589013565810D7814
:103790006E1C0E70242646556589023565810D78AC
:1037A0006E1C0E70160A46550D786E1C0E70425532
:1037B0006289013262810A78551C0D70002585549A
:1037C0006289013262810A78551C0D708354E57953
:1037D0006389049A8DB1043363810B785C1C0C708F
:1037E000140EC4540B785C1C0C70140CC4540B786D
:1037F0005C1C0C70140AC45401E0013363810B7823
:103800005C1C0C70C25470BD180000202DE9F04FF4
:1038100089B007460069954D0690688988462F2132
:1038200088F80210C11C698103218DF8231097F8D4
:1038300096101C46DDF85490129B164649B10021A3
:10384000A8F80310011D6981012305224FF0060E1F
:1038500010E0112188F805104FEA192188F804902A
:1038600088F80310811D180A07224FF0080E69819D
:1038700088F8060001314EF0010C08F80230698129
:1038800008F80E608DF823C03B6D1978022917D116
:103890000022002187F845261D7DA94216D2DD6849
:1038A00055F8215095F8240040B10122A86A87F804
:1038B0004526D7F848562844C7F848060131EBE7B3
:1038C000986AC7F8480697F8452600E0674D68896A
:1038D0000EEB08010230688197F88006002A4FEA53
:1038E000C00008F80C0018BF012290010EF1030B74
:1038F00088708DF823B097F8450680B16889043048
:103900006881D7F84806020E08F80B20020A4A71AF
:10391000020C0EF1070B0A7188718DF823B06179E2
:103920004FF0000AB9FBF1F007900020C9B28A45B8
:1039300080F098802068698910F80A000131698157
:103940005FFA8BF108F801006989013169810BF197
:1039500001015FFA81F9002108F809100BF1020159
:103960008DF823103A6D1178022936D115698DB181
:10397000D368B44653F82A30A6465C68069B159E69
:1039800063437443B4FBF5F4B3FBF5F30794744657
:10399000664603E06379069DB5FBF3F39BB2C7F877
:1039A0009C31D368314D53F82A3093F82C3087F886
:1039B0009930D36853F82A3093F8203087F85C3672
:1039C000D36853F82A3093F8243087F84536D36803
:1039D00053F82A309B6AC7F84836222E41D1022973
:1039E00002D1D16851F82A20D169C1B100208DF8E7
:1039F000220007980DF1230380B2CDE900300DF1CC
:103A00002200029038464346FCF7E0FF9DF8221062
:103A10009DF82320531A023B08F8013014E0149952
:103A2000139A51F82A100092129ACDE901210390BD
:103A3000002004900798414683B238460DF12302D6
:103A400000F02CF89DF82320A2EB0B01033908F8B5
:103A50000910D11E88F8011061790AF1010A934614
:103A600064E7034809B000F005B800BF1800002063
:103A70000101000230BCBDE8C08FB0B586B00D9D1D
:103A8000B0F8704604950C9D03950B9DCDE901455A
:103A90000A9C009400F002F806B0B0BD2DE9F04F8A
:103AA00085B088462221074680F8021510981546F1
:103AB00020B10078002818BF012000E00120DFF8C5
:103AC0009CB2DDF838C08BF80100BBF80A00013069
:103AD000ABF80A002878421C2A7008F8001097F802
:103AE000411697F85D06002918BF6FF07E01002887
:103AF00018BF61F07B019BF80100B0B13A6D61F035
:103B000077011078012813D0022816D1107D0026E5
:103B10004FF0010EB04210D0D46854F82640E4694A
:103B20000CB18BF802E00136F4E7080605D10EE08F
:103B3000D06910B101208BF80200BBF80A000130F7
:103B4000ABF80A002878421C2A7008F80010BBF86D
:103B50000A0095F800900130ABF80A002878411C63
:103B60002970002108F8001097F896E04FEA1C2110
:103B7000BEF1000F05D097F86F0628B14CF0380061
:103B80000BE04CF0100008E0B7F86C0600281ABFF4
:103B90004CF48C70010A4CF0180097F85C4624B184
:103BA000002460F07F0087F85C4697F8994024B1C4
:103BB000002441F0020187F89940BBF80A40BEF1A9
:103BC000000F04F10204ABF80A402E7897F845463E
:103BD00006F101022A7018BF41F0040108F806102E
:103BE0002978002C01F101022A7018BF40F0400032
:103BF00008F80100BBF80A00DDF83CA00230ABF881
:103C00000A002878411C2970190A08F80010287841
:103C1000411C297008F8003097F8960060B3386DA1
:103C20000078022812D1BBF80A000230ABF80A0073
:103C30002978D7F89C014A1C2A70020A08F801204A
:103C400029784A1C2A7008F8010015E004AA3846B1
:103C5000202102F0E5FABBF80A000230ABF80A00B6
:103C60002878411C297004990A0A08F8002028784D
:103C7000421C2A7008F80010BBF80A000230ABF8AA
:103C80000A002878411C29704FEA1A2108F8001010
:103C90002878411C297008F800A097F84506E8B17B
:103CA000BBF80A000430ABF80A002978D7F84806B8
:103CB0004A1C2A70020E08F8012029784A1C2A7032
:103CC000020C08F8012029784A1C2A70020A08F818
:103CD000012029784A1C2A7008F8010097F89620DC
:103CE000DDE91101FAB1B7F86C264AB1BBF80A3028
:103CF0000233ABF80A302B785C1C2C70140A0BE0F2
:103D000097F86F267AB1BBF80A300233ABF80A3065
:103D10002B785C1C2C70002408F803402B785C1C6A
:103D20002C7008F803200122CDE9008108EB090777
:103D3000109902923A462B4602F0C4FC18F809107A
:103D400041F0100208F809209BF8032012B141F05D
:103D50005001397005B000F003B800BF1800002012
:103D600030BCBDE8C08F00002DE9F04FE1B00E4639
:103D7000054601F01F00012101FA00FA700905EB68
:103D8000800BDBF8C403904610EA0A0F05D0DBF87D
:103D9000D40310EA0A0F00F07E80731E6F2B00F22E
:103DA000CD8005214FF4905004220027DFE813F066
:103DB00068016B01860189018C01970153049C0104
:103DC000C201E5011A021E022602420277007700B4
:103DD00074025F04790239047B027D02810285024C
:103DE000C900CD0088028C02C600C600C600C6000D
:103DF000C600C600A800A800D10090029502D60017
:103E0000DA009B02DF00E1009D02A002AC02E300A9
:103E1000B302D302F202F7020A03FF0006010F0306
:103E200021030B012403700070003904C6002A032B
:103E30000E013003320334034A034C034F031501D0
:103E4000520357035C0363037603C600C600C60033
:103E5000B800B80079031F017C034601C600C60004
:103E600081034A017000C600C600C600C600C60035
:103E70004F01510186035301550157018A038C03F9
:103E800059018E035B0192035D015F01930463019D
:103E9000D94F00F020BCD848871D00F02FBC00246B
:103EA0001020A8F806408DF883000DF1830121AAA7
:103EB0002846FDF751FA0746002840F01F8485F890
:103EC000C24301AC4FF001099DF88300814500F227
:103ED0000B835FFA89F128462246FDF785FA002810
:103EE00040F037839DF8040038B1012095F8C213E3
:103EF00000FA09F0084385F8C20309F10109E3E774
:103F000021A92846FDF7FCFB0746002840F08983DD
:103F1000242E00F08183232E10D1BDF886007DE38E
:103F200021AA28460521FDF799FD0746002840F003
:103F30007883522E00F06983512EEED0AE48871D53
:103F40006FE305214FF4985091E305214FF4B050F1
:103F50008DE328464146FDF7D0FB8EE328464146D7
:103F60000122BDE128464146FDF7F0FD85E3002230
:103F700071E308226FE37F208DF8830021AC0DF1FF
:103F8000830328460021402200940027FDF748FAC9
:103F90009DF88310002900F0CB829DF8872003391B
:103FA000914280F2228394480022471E28E395F82C
:103FB0001802002800F0C0820027D0E228464146BF
:103FC000FDF75CF959E32846412117E2B5F86C1674
:103FD00028464246FDF790FC4FE305F20A62284668
:103FE0000C21FDF7CDFB074695F80A06B7E221AA9A
:103FF00028461E21FDF7C4FB0746002840F0118328
:104000000020A8F80600042800F00B839DF8841017
:10401000C140C90710D0B8F806100131A8F8061041
:10402000B8F804208BB2934206D8D8F8002012FAD0
:1040300081F1421C01F8012C0130E4E705214FF425
:10404000A85014E328464146FDF714FA15E3092168
:1040500035E20A2133E2142131E215212FE2092150
:1040600035E2142133E2092135E2142133E214212F
:104070004FF48060FBE228464146FDF70DFBFCE271
:10408000D5F800020AE1B8F80410B5F8160688421F
:1040900084BFA5F816160846002800F01B830021EF
:1040A000CAB2904240F21D82D5F81036D8F80040CE
:1040B00053F82230013144F82230F1E7D5F81402E8
:1040C000ECE0D5F81002E9E021A92846FDF7D5F982
:1040D0000746002800F03F8295F8C0033FE22846DB
:1040E0004146FDF740FDC8E2D5F80402002800F083
:1040F00039820020A8F80600D5F8041249798842D0
:1041000080F08E82B8F806100131A8F80610B8F8D1
:1041100004208BB293420BD8D5F8043200EB400256
:104120001B689A5CD8F8003013FA81F101F8012C71
:104130000130E1E70DF1040948464121FCF776F82A
:10414000402021AC8DF883000DF1830128462246E2
:10415000FCF71CFF0746002840F063829DF883208F
:10416000601C1146002900F0058210F8013C04781B
:10417000023009F803400139F4E705F24C6428469F
:1041800003212246FDF7FCFA0746002840F0A382EF
:104190000020A8F80600207848B90120A8F80600F9
:1041A000B8F8040018B1D8F8000000210170002010
:1041B000042800F035822178C140C90710D0B8F832
:1041C00006100131A8F80610B8F804208BB293420B
:1041D00006D8D8F8002012FA81F1421C01F8012C0F
:1041E0000130E5E728464146022279E0284641466B
:1041F000FCF7E0FF41E200BF03000003D5F8040232
:10420000002800F0E58100214279914280F066812A
:1042100098F80430994280F06181036801EB410213
:104220009C5AD8F800700131BC52BC181A449278DC
:10423000A270E9E7DFF8D8040DF1840901880422AF
:104240000231018040F26170ADF88600284649468F
:1042500001F0DEFC0746002840F0E3810121002048
:104260009DF88520C9B2914280F0BC8198F8042065
:10427000904280F0B78101EB09025379D8F80040F1
:10428000033104F8303004EBC0039479D279013063
:1042900042EA04225A60E3E7D5F80C02C8F80000AD
:1042A00018E205210BE1052111E105214FF48050B1
:1042B000DDE105214FF48850D9E195F83F06D7E0BC
:1042C00005214FF4B850D2E105214FF4A050CEE1C2
:1042D00028464146FDF754FCCFE1284641460022DE
:1042E00002F0CBFBC9E10622B5E195F85400BFE02E
:1042F00005F1550628463146FCF7E2FF074600283F
:1043000040F0E9813078B3E005F56C7021AD2946C5
:1043100001F026FFD6E195F8B003182800F0C3811C
:10432000802800F0C281202800F0B181302800F000
:10433000BE81382800F0BD81192840F0C28195F86F
:10434000B303DFF8E8230FF23C41032808BF0A4615
:104350000FF23845A3E121AEDFF8CC4305F56E70CE
:104360003146A0472D208DF88F0005F56D7006F1C0
:104370000C01A0474C208DF89D0044F22D20ADF893
:104380009B0005F56B7006F11A01A04740463146C7
:1043900025229DE128464146FCF73AFF6DE198F859
:1043A000040021A98DF88400D8F800202846FCF7E5
:1043B00094FF0746002840F08E819DF88400A8F8FD
:1043C000060088E128464146FCF7C2FF55E1284631
:1043D00040214246FDF774FB002800F07B81074630
:1043E00000F07F40B0F1007F04BF002788F8007024
:1043F00071E12846422101E0284643214246FDF76B
:104400005FFB3AE128460B214246FDF7FDF934E116
:10441000563557E112221EE105F2046628461221A4
:104420003246FDF7ADF90746002840F06781308835
:10443000013081B2032900F2228100B2B6A151F805
:1044400020501DE1132206E1B5F806062EE0B5F86E
:1044500008062BE095F86F06C0F3C00008E095F859
:104460006F06C0F3400003E095F86F06C0F38000CC
:1044700088F800002EE10020219021AA28460D2175
:10448000FDF77EF90746002840F025812198002895
:1044900008BF4FF0FF30C8F800001CE128460B2190
:1044A000DBE0B5F86C0601E0B5F87006A8F800008E
:1044B00010E128464146FDF71DF9DEE00B214FF4DF
:1044C0000070D4E00A2102E00B2100E015214FF436
:1044D0008070CCE00B214FF44070C8E088F80520D4
:1044E0009EE0A8F806009BE00121C2B2914200F2D2
:1044F0009780B6F1100218BF012295F9C233CB4064
:1045000003F001039A4211D0B8F806200132A8F84E
:104510000620B8F8043094B29C4207D8D8F80000BE
:1045200010FA82F000F8011C9DF883000131DCE7ED
:10453000D8F80000077074E06879002800F0E28085
:1045400005F506712846FDF7ADFA074695F81802FD
:1045500005E00746D2E09DF8840085F8C00388F89E
:104560000000B8E0284602F034FC0746002840F07E
:10457000C580BEE5D5F8040218B921A9284603F084
:10458000D8F80020A8F80600D5F80422517988420E
:1045900047D2126800EB400153185C7819F80440C8
:1045A000A4B19B7819F8033083B1515CB8F80620A8
:1045B0000132A8F80620B8F8043094B29C4205D81D
:1045C000D8F8003013FA82F202F8011C0130DBE760
:1045D000284602F0FEFB0746002840F08F80D5F801
:1045E000040210E688F805001BE0211D01AB174608
:1045F0002FB111F8014B013F03F8014BF8E70746D3
:1046000001A9404601F01CFF0BE09DF8840080F0FA
:10461000010088F8000003E0BDF88800A8F8000059
:104620000027A6F1560205210020182A19D90A22CE
:104630001C2E06D80123574CB340234217D1072E16
:1046400009D0A6F12A001B2845D8012101FA00F063
:10465000514908423FD0284611464246FDF790F89E
:104660000BE0012303FA02F24C4B1A42DFD040EA7E
:10467000010228464346FCF70DFF07462BE0254D77
:10468000B8F1000F1ED1214800F10B0723E095F887
:10469000B30335A237A52FA1032808BF0A46022875
:1046A00018BF15460EE0214D0CE021A50AE026A515
:1046B00008E095F9B203052803D21EA151F8205055
:1046C00000E0144D2846FBF7C8FD02464046294647
:1046D00001F0B6FE00270BF57170016811EA0A0FB0
:1046E0000CD12F4A974200D02FB9DBF8D42342EAED
:1046F0000A02CBF8D42341EA0A010160384661B0CE
:1047000000F050B80020FFF757BC00BF03000003C3
:1047100022000020FC7A0008227B0008227B00088F
:10472000327B0008177B000861610008F87A0008F6
:104730004D336500047B0008E67A00080D7B000815
:10474000DD7A0008EF7A00084D3665204E616E6F05
:10475000000000004D3665204D6963726F2055538F
:104760004250726F000000004D3665204D69637243
:104770006F0000004D3665204D6963726F20555300
:10478000420000004D3665204A4943004D36652001
:10479000505243000000FC1E0700100A01F8FF0100
:1047A0001300000330BCBDE8C08F00002DE9F04FBE
:1047B000C1B00E46804601F01F00012101FA00F44D
:1047C000700908EB8005D5F8C403BB4991468B46B8
:1047D000204208D14046314605F5717701F03EFD93
:1047E0003868204204D0D5F8D403204200F09D80E0
:1047F000751E6F2D00F2098258460BF1010C4FF423
:10480000985700204FF4905305210A24DFE815F053
:104810001A0136014B015C01670174017C017000D3
:1048200070007E01990170009D01AD01D300D3009D
:10483000DF015B03E401E701E901EC01EF01F201B3
:104840009D00F701FA017000FD01FD01FD01FD0170
:10485000FD010102700070002F0237023F02430287
:1048600070004B024D024F0256027B027000FD01A8
:104870007000700070008B0295029A027000A7020F
:10488000B102BB02C502CF02D6025002FD01E10215
:10489000E802700070007000700070007000F0029C
:1048A00000030B03160323032E03FD01FD01FD018D
:1048B000F000F00036033B0353035803FD01FD01F4
:1048C000620367037003FD01FD01FD01FD01FD01B0
:1048D0008003840388038C038F03700070007000D2
:1048E000700070007000700070009303070497035D
:1048F000052100231B2E1BD9A6F15600182806D827
:10490000012202FA00F06D4A104240F0DC82A6F16A
:104910002A00142800F23D83012101FA00F06849C1
:104920000842604640F0C48179E30BF1050076E36C
:104930000120644AB040104240F0C582072E00F0CA
:10494000B781192ED8D1604600270146B9F1000F72
:1049500000F01A83D9F800200BF10A00B2F1FF3FF2
:10496000C0F25D83D9F80430B3F1FF3FC0F2578342
:1049700003EA0200013000F0788347F0050201AB42
:1049800040460521FCF786FD002840F048830120C1
:1049900088F84106D9F80000013002D10198C9F821
:1049A0000000D9F80400013002D10298C9F80400CF
:1049B00005213B4687E2B6F1100718BF1E27B9F85C
:1049C000060000210122884226D0B9F8043099421D
:1049D00022D2D9F80030102E5B5C01F1010102FAFD
:1049E00003F327EA030408BF43EA07042746EAE77C
:1049F00001AA40460521FDF731F8844600287FF4DE
:104A000077AF522E00F02383512E40F02683B9F861
:104A10000000ADF8060020E3002480B2844280F05C
:104A2000BF82D9F80000015D27FA01F000F0010211
:104A30004046FDF7FDFA002840F0F182B9F8060083
:104A40000134EAE798F80500D9F80050002800F092
:104A5000E382D8F8B001002800F0E0824046294601
:104A6000FDF77AFA002840F0DA82C8F80052D8F848
:104A7000B02108F5D07029469047CFE2B9F806007A
:104A8000B8F8141688426DD80021CAB2904240F29C
:104A90008582D9F80030D8F8104653F82230013119
:104AA00044F82230F1E7D9F80000002800F17382C1
:104AB000C8F81402B2E200BF0400000301F80001CC
:104AC000070010000000FC0CD9F80000002800F1DD
:104AD0006282012188F80C16C8F810029EE299F84B
:104AE00000104046FDF7CCFA002840F0988299F873
:104AF000000088F8C00391E299F80010404641B0E8
:104B000000F0D8BAFDF77CBD0424D1E0002088F87D
:104B10004C06B9F8061008F24C6201230024A142A9
:104B200000F01782B9F80450AC4280F01282D9F834
:104B300000502D5D0134013D03FA05F52843107046
:104B4000EDE7404649460222A8E0D8F804E2BEF16B
:104B5000000F00F067829EF8053099F805C09C456B
:104B600040F221820BF1020059E2DFF840C5042235
:104B7000BCF800000027811C40F29170ACF80010D6
:104B8000ADF8060099F805E001A8BE4500F0F081F7
:104B9000D9F80030D5B213F8374003EBC7034455BA
:104BA0004C1CACF800405D68531CB5F5803F0ADA38
:104BB000DBB22C0AC454931CDBB203310332C5545C
:104BC000ACF8001001E021461A460137DDE7D9F8BC
:104BD0000000C8F80C0221E24FF4007372E10023D8
:104BE00070E14FF480736DE14FF480536AE14FF44C
:104BF000885367E199F8000088F83F060EE24FF409
:104C0000B0535FE14FF4B8535CE10BF1050C58462B
:104C10006EE601AE304649463822FBF7E0FA002046
:104C200088F86E06D8F80422D8F8BC3340463146DE
:104C300002F0DEFD002840F0F28199F80000012822
:104C40000ED198F88006002800F0118201A9404694
:104C500002F0E6F9002840F0E281012088F86E06B3
:104C6000D8F8500001A93822FBF7B9FAD6E1D9F8F3
:104C70000010404641B000F022BAFDF797BBD9F8CA
:104C80000010404641B000F01FBAFDF7C3BD4046DA
:104C90004946002202E040464946012241B000F068
:104CA00018BA02F05BBC062402E0002400E00824ED
:104CB000E1B240464A46FDF79DFBB0E1D8F8040258
:104CC000002800F0B781437999F800100022934240
:104CD00010D00479A2420DD2046802EB4205655D52
:104CE00001328D42F3D102EB420088F85410204487
:104CF00010F8021C0029DC463FF4FAAD40460022C1
:104D0000FDF76AFCAEE199F80010404602F083FC22
:104D1000002840F0848199F80010002088F880066F
:104D200088F855107BE1D9F8002099F80610404624
:104D300041B000F0D3B9FDF729B9D9F800104046C9
:104D40000122D0E099F800104046FDF7B7FB00289B
:104D500040F0658199F8000088F818025EE199F842
:104D6000002098F81812404641B000F0BCB9FDF799
:104D700017BC99F8002098F81812404641B000F08E
:104D8000B7B9FDF7F3BB99F9002098F8181240461F
:104D900041B000F0B2B9FDF707BCB9F8002098F8AF
:104DA0001812404641B000F0ADB9FDF7C5BBB9F8E7
:104DB0000630D9F8002040460121A4E099F80020EF
:104DC00099F801104046012341B000F0A0B9FDF769
:104DD0001BBC40460B2141B000F09EB9FDF708B85E
:104DE000404640F6C17141B000F09BB9FDF718B8DC
:104DF00040460C214A46FDF7FDFA002840F00F819D
:104E000099F80000012188F80B1688F80A0605E1D8
:104E100099F8001098F86F06002914BF40F00800B8
:104E200000F0F70014E099F8001098F86F060029D8
:104E30000CBF00F0FD0040F0020009E099F80010FE
:104E400098F86F0600290CBF00F0FB0040F004004A
:104E500088F86F06E2E0D9F8000001AAB0F1FF314E
:104E600018BF0146019140460D2124E740460B2121
:104E70004A4641B000F05AB9FDF7BCBAB9F8000093
:104E8000A8F86C06CAE000208DF80400B9F80610F6
:104E900001220023994271D0B9F80440A3426DD297
:104EA000D9F80040E45C0133013C02FA04F42043E9
:104EB0008DF80400EEE7B9F80000A8F87006ADE040
:104EC0004FF4A853052143EA010240464B46FDF743
:104ED000EFF8A4E0D9F800104046022203E0D9F828
:104EE00000104046032241B000F025B9FDF784B818
:104EF000B9F1000F00F0A680D9F8040099F800106D
:104F0000C3880268404641B000F01AB9FDF7D4B931
:104F10004FF400730921D6E74FF400730A21D2E75A
:104F20004FF400730B21CEE74FF4007305E04FF40C
:104F300000731521C7E74FF480631421C3E740468F
:104F40004946FDF7F7F9002869D1012088F8800665
:104F500064E040460321FDF74DFA844600287FF4C3
:104F6000C7AC012088F83A06404601F032FF79E0EC
:104F7000D2B201A9404600F04BFE73E001AA4046C0
:104F80001E21FDF737FA6DE0002088F8410608463B
:104F900045E0604643E00BF10A0040E0A8F8160641
:104FA0004FF0000CA4E442484FF0000AE24566D0FE
:104FB0000024A34249D0DEF8002004EB4401575CF2
:104FC000D9F800100AEB4A0211444D78BD4202D1D3
:104FD00089788D4201D00134EBE7A1B29942CDF836
:104FE00000C032D05546DDF800C06C1C644510D2BC
:104FF000D9F8001005EB45050D4411F802C0EF7813
:10500000BC450CD011442D794978A9422546EAD1F6
:1050100005E00AF1010AC9E7C8F80052002041B0D2
:1050200000F093B8404601F0D4FE0028F7D1D8F83C
:1050300004E290E5404601F0CCFE0028EFD1D8F81C
:10504000040240E6ABF10300E9E75846E7E799F8C8
:10505000000080F001008DF8040001AA40460521FF
:10506000FDF70EFA8446FFF743BC01208DE799F85F
:105070001410404602F0CFFA0028D0D1E6E5002017
:1050800084450DD0D9F8002000EB4001535ADEF8DA
:105090000040013063526318114489789970EFE73A
:1050A000012088F83A068EF805C079E72200002032
:1050B0000705000230BCBDE8C04FFFF723BD30BC80
:1050C000BDE8C04FFFF7D9BD30BCBDE8C04FFFF70A
:1050D000DCBD30BCBDE8C04FFFF7E3BD30BCBDE870
:1050E000C04FFFF728BE30BCBDE8C04FFFF73FBE42
:1050F00030BCBDE8C04FFFF744BE30BCBDE8C04F78
:10510000FFF749BE30BCBDE8C04FFFF74EBE30BC14
:10511000BDE8C04FFFF75BBE30BCBDE8C04FFFF736
:105120005DBE30BCBDE8C04FFFF760BE30BCBDE81F
:10513000C04FFFF7A1BE30BCBDE8C04FFFF7D6BEE1
:1051400030BCBDE8C04FFFF7E1BE30BCBDE8C08F4A
:105150002DE9F843DDF820801E4617460C46CDF8B1
:10516000008000F099F88146002840F09180307866
:105170000230307058FA80F010F8021C10F8010C60
:1051800040EA012002F0A3FA94F83E1005461D29DA
:1051900018BF023D0128D8BF0546052948D13078FF
:1051A000012D00F10101317018F8000084F845006C
:1051B000307800F10101317018F800004FF0020161
:1051C00084F8441084F84600C8BF023D94F84500B6
:1051D00080072DD53078411C317018F8000084F814
:1051E00047003078411C317018F8000084F84800FE
:1051F00094F84400023084F8440094F94700B0F178
:10520000FF3F01DD023D13E03078043D411C317069
:1052100018F8000084F849003078411C317018F803
:10522000000084F84A0094F84400023084F84400F6
:10523000284617F4805718BF0238C1B23E2928BF4C
:105240003E2084F83F00C2B2307808EB00012046CF
:1052500002F027FA3078284430703FB158FA80F0D5
:10526000811E04F14000022202F01BFA94F83E0075
:105270001D2802D14FF6FF7008E030780230307000
:1052800058FA80F030F8020C00BA000CA4F8420082
:105290004846BDE8F88300002DE9FC478146002020
:1052A000DDF828809A4616460C4681F89700A1F84A
:1052B0005220C1F8D80081F85600D007A9F870260E
:1052C00008D09AF80000411C8AF8001018F8000075
:1052D000C4F89800B00708D59AF80000411C8AF875
:1052E000001018F90000C4F89C00700708D59AF85F
:1052F0000000411C8AF8001018F8000084F85600DD
:10530000300712D59AF8000003308AF8000058FAE6
:1053100080F010F8022C10F8031C10F8010C120297
:1053200042EA01410844C4F8A000F0060BD59AF8FF
:10533000000004308AF8000058FA80F050F8040C9D
:1053400000BAC4F8D800B0060CD59AF800000230B4
:105350008AF8000058FA80F030F8020C00BA000C0D
:10536000A4F85400700608D59AF80000411C8AF889
:10537000001018F8000084F83E0030063AD599F87D
:10538000960010B10120A9F806069AF80000023034
:105390008AF8000058FA80F030F8020C00BA000CCD
:1053A000A4F8B60002F093F90746B0F5805F06D086
:1053B000B4F8B400874202DD4D4800F09BB8D4F841
:1053C000B00060B1F90442BF4FF40041A4F8B61038
:1053D00002279AF800103A46414402F062F999F81F
:1053E000400610B1204601F0E1F89AF80000384478
:1053F0008AF80000F00523D59AF80000411C8AF8CD
:10540000001099F8B02318F800000421202A4FF06A
:10541000000208BF022184F89710914210D004EBDB
:105420008203571C20FA02F283F85770C2F300156A
:1054300002F0010283F8595083F858203A46ECE70D
:1054400094F83E00052832D1B00508D59AF800003E
:10545000411C8AF8001018F8000084F84D0070050F
:1054600014D59AF80000411C8AF8001018F80000C2
:10547000042804D0022805D040B9FA2004E04FF4F3
:10548000207001E04FF4A070A4F84E0030050ED556
:105490009AF80000411C8AF8001018F80000012852
:1054A00002D020B9002000E0012084F85000F00470
:1054B0000DD59AF80000022208EB000104F1A400C7
:1054C00002F0EFF89AF8000002308AF80000B00409
:1054D0000BD56E4640463146524601F06AFD014604
:1054E0003046FDF701FAC4E93801002000F002B8A7
:1054F0000C0000030CBCBDE8F0870000F0B5D1E95A
:105500009142224BD1E99476C0F8AC20D0F8D85023
:105510001B68DFF8C0C79D42D8BF5D1CCCF8105097
:105520002544731B77EB020321BF16F101050132FD
:10553000C0F8AC200025A5423CBF0132C0F8AC2029
:10554000C1E99425C0F8A8509CF8082002B1F0BD2C
:1055500091F89A24002AFAD0D1F864C000239CF86C
:1055600005209A42F3D0DCF8005003EB43042E19D7
:10557000B17890F856708F4202D171788F4201D085
:105580000133EEE7295D80F85610F0BD08000020D9
:1055900010B504460020B0EB114F01D00B4810BDF0
:1055A000C4F80606C4F8FC03236D0AB1002010609D
:1055B000204600F00DF800B110BD94F8960010B12F
:1055C000012084F89B01002010BD00BF17000003DC
:1055D0002DE9F04FD5B005460020ADF850015390AD
:1055E0006961884695F880161878E24C1F46934604
:1055F00049B1022802D095F8961061B9002085F8CB
:105600008006A01CBDE1022805D1397D202940F289
:10561000E880601DB5E10021022800F0DB80012850
:10562000204640F0AE8197F82C0085F8990097F855
:10563000200085F85C0697F8240085F84506B86ACE
:10564000C5F8480695F86E06002800F0228195F806
:105650009600002800F05A8150A8894651A902F00E
:105660000DF8DDE9500105F57C7282E80301C5E91A
:10567000F91002F05AF8519902F023F895F89620A3
:105680008246A8F10101002A18BF8A46414528BF79
:105690008246A8EB00004FF6FF76B04228BF3046A6
:1056A00006AC05904846A146C24500F26A81A8EBC7
:1056B0000A00B04228BF3046F969A1B302208DF834
:1056C000180146A8009005983A4601904EA802900D
:1056D00028462346FBF77AF9002840F052819DF8CE
:1056E00038019DF8181153AB0A1A023A2254C81E09
:1056F0008DF819001FFA88F228462146FDF700FAB6
:105700000446B5F80606BDF84E110844A5F806068D
:10571000B5F80806BDF850110844A5F80806BDF80C
:105720004C01529028E095F89610D1B140F201104A
:10573000ADF83C0146A84E90387D03218DF8180144
:10574000B8694EAA06901FFA88F0B5F87036CDE910
:105750000014029052A8039028462221FCF714FA64
:1057600009E0397DBB69009152A9019181B22846B7
:105770000322FCF7EFFA044634B18448844240F037
:10578000D4800020529000E05298D5F8FC13BBF171
:10579000000F01444C46C5F8FC1304D0DBF80010A0
:1057A0000844CBF8000095F89600002840F0DC8013
:1057B00095F84506002840F0DF8001F0B6FF5199CA
:1057C00001F07FFF754A014600201070724A8A443A
:1057D000107069E73869D5F810A0002861D000245E
:1057E0006BE046A88DF83C118DF83D114E900020DD
:1057F00006AE88420ED2F9684E9A51F82010097D03
:105800001154F96851F82010896946F82010397D43
:105810000130EEE721B1F86800680078012803D074
:1058200095F89600002878D02846394601F0F8FB14
:105830005549884273D0002840F0A3800120C5F864
:10584000F88385F86E0695F8960048B950A851A9D6
:1058500001F014FFDDE95001C5E9FC01C5E9F910CB
:10586000B5F8703652A81FFA88F10322CDE9002658
:10587000CDE902104EAA28462221FCF785F9BBF19A
:10588000000F7ED0DBF80010529A1144CBF80010C4
:1058900077E02846394601F0C3FB002871D100218A
:1058A000D5E6387D00289AD0B8FBF0F4BAF1000FA5
:1058B0001CBFBAFBF0F0C5F89C01344800268146B5
:1058C0000846397D8E425CD2386980B1F968BAF1F8
:1058D000000F51F82610496801FB08F2B2FBF0F402
:1058E00005D001FB0AF1B1FBF0F0C5F89C01F868A6
:1058F000214650F8263028465A46FFF769FE4845AB
:10590000494618BF00283CD10136DAE7397D2846E0
:1059100001F081FEA8BB00219EE6002103E00020EB
:10592000A11C85F89600387876E61948844219D08B
:105930001848844216D0002085F8450606A9284656
:10594000FCF7F0F8E8B9D5F8FC13BDF81800BBF186
:10595000000F0144C5F8FC1304D0DBF80010084424
:10596000CBF8000020460CE00120C5F8FC03002025
:1059700007E000BF01000003074900200870074945
:10598000087055B000F00CB80300000300040002DA
:1059900001000001017F00021A0000201900002010
:1059A00030BCBDE8C08F00002DE9F04F85B08246C5
:1059B0000020CDE90300DAF81002174600EB030BD4
:1059C0000AF5D07002900C46222A04BFDAF81000C3
:1059D000834400260DF10C084FF00009DAF8AC51B1
:1059E0000298A319C6F107014246CDF800B0A847B6
:1059F00050BB03980644072E04961ED30021084688
:105A0000052912D0225C411CFF2AF8D122185378B4
:105A1000F82BF4D89278BA4218BF222A03D09D2AD4
:105A200001D02F2AEBD1010613D0C0F107062118AF
:105A3000204632460496FAF7D2FB09F10109B9F182
:105A4000140FCBD3534D00E00546284605B000F0B7
:105A5000BDB8B9F1130FF5D8264616F8018FB8F185
:105A6000000F04D0B8F1F90F04D94B4DEDE7002534
:105A7000049509E0DAF8AC510298E31D04AA414606
:105A8000CDF800B0A8470546DAF8080040B1049800
:105A90000021C21D50462346CDF800B000F096F913
:105AA000002DD2D19AF83B0690B108F10400C1B2A2
:105AB000304601F0C3FD08EB04014A79354BB2EBE7
:105AC000102F03F10505C0D18979C0B28142BCD144
:105AD000324D2878D0B19AF89610B9B1A1788142A8
