S0190000524649445F536D6172745F5265616465722E73726563CE
S113000086C20000A2C20000A0C200009EC200007E
S11300109CC200009AC2000098C2000096C2000070
S113002094C2000092C2000090C200008EC2000080
S11300308CC200008AC2000088C2000086C2000090
S113004084C2000082C200000C9462727EC200006E
S11300507CC200007AC2000078C2000076C20000B0
S113006074C2000072C2000070C200006EC20000C0
S11300706CC200006AC2000068C2000066C20000D0
S113008064C2000062C2000060C200003408450877
S11300909808A9087B0C940C7F0FE10A300B920995
S11300A01A0A350AC20B6D0F3D0A3D0AB60D9C0CA7
S11300B0A50CAD0CB30CBA0CC20CD40CCB0CF10CCB
S11300C0FA0CDF0C750F750F750F750F750F750F23
S11300D01009100937093F09230A2C0AD70D4709CB
S11300E04C0951095F0C680CDF0DE70DEF0D670E2D
S11300F0CF0D090C230CBA08C70D430C330C3B0C71
S11301002B0C970EA90E2F08750FCB0EB20E850877
S11301105E09D30E63090C0F190FFE0868097609EE
S11301208409DB085609750F750F750F260F260F06
S1130130BE0EE209500FE80C750F750F5D0F650FC9
S1130140A00E750F750F750F750F750F0B0D170D2D
S1130150230D2F0D3B0D470D520D5D0D680D730DD5
S11301607E0D8B0D980DA50DB10D030DA50FB50FCB
S1130170B50FB50FB50FB50FB50FB50FB50FB50F5B
S1130180B50FAC0FAC0FAC0FAC0FAC0FAC0FB50F81
S1130190AC0FAC0FAC0FAC0FB50FB50FB50FB50F5F
S11301A0B50FB50FB50FB50FB50FB50FB50FB50F2B
S11301B0B50FA50FA50FA50FB50FB50FB50FB50F4B
S11301C0B50FB50FB50FB50FB50FB50FB50FB50F0B
S11301D0B50FB50FB50FB50FB50FA50FB50FB50F0B
S11301E0B50FB50FA50FB50FA50FB50FB50FB50F0B
S11301F0B50FB50FB50FB50FB50FB50FB50FB50FDB
S1130200B50FB50FB50FB50FB50FAC0FB50FB50FD3
S1130210B50FB50FB50FB50FB50FB50FB50FB50FBA
S1130220AC0FAC0FAC0FAC0FAC0FAC0FAC0FAC0FF2
S1130230AC0FAC0FAC0FAC0FAC0FAC0F06173A17EA
S113024076178717CB1ADF1A0C189A169A162018E5
S113025003189A169318541C531A531AA51BE81A18
S1130260F11AF91AFF1A061B0E1B171B221B341B4B
S11302703D1B9A165C1C5C1C5C1C5C1C5C1CF01911
S11302809A169A16D917E517F117FA179A1611182C
S113029016181B189019D9199A165C1C9A169A16D6
S11302A09A1641194E19A4169A16831969197619C2
S11302B05B19B61BDA1B661C5C1CE51BED1B9A164E
S11302C09A169A169A169A169A16C217B816D2162B
S11302D0EC16A5179C175C1C5C1C5C1C031C031C03
S11302E0F61B64182D1C2B1B5C1C5C1C3A1C471C45
S11302F0C51B5C1C5C1C5C1C5C1C5C1C581B641BD0
S1130300701B7C1B881B9A169A169A169A169A16B4
S11303109A169A169A16941BA01B461BB61C5B1DB4
S11303205B1D5B1D5B1D5B1D5B1D5B1D5B1D5B1D09
S11303305B1D331D331D331D331D331D331D5B1DE9
S1130340BB1C331D331D5B1D5B1D5B1D5B1D5B1DDA
S11303505B1D5B1D5B1D5B1D5B1D5B1D5B1D5B1DD9
S11303605B1DB61CB61CB61C5B1D5B1D5B1D5B1DBB
S11303705B1D5B1D5B1D5B1D5B1D5B1D5B1D5B1DB9
S11303805B1D5B1D5B1D5B1D5B1DB61C5B1D5B1D4F
S11303905B1D5B1D5B1D5B1D5B1D5B1D5B1D5B1D99
S11303A05B1D5B1D5B1D5B1D5B1D5B1D5B1D5B1D89
S11303B05B1D5B1D5B1D5B1D5B1D331D5B1D5B1DA1
S11303C05B1D5B1D5B1D5B1D5B1D5B1D5B1D5B1D69
S11303D0331D331D331D331D331D5B1D5B1D5B1D21
S11303E05B1D5B1D5B1D5B1D5B1D331D3422AE223B
S11303F030228D22B822B822B82230227122B822AB
S11304008D22992333249923CF249523C52488242A
S113041095236C246C24BE25D125F02536264D2643
S113042060268626B326CF4D024E024EC44DDF4DC4
S1130430DF4DDF4D024ECF4D024EDF4DCF4DDF4D30
S1130440EA4D024E024E024E024E024E024E024E41
S1130450024E024E024E024E024E024EDF4D024E3C
S1130460024EC44D024E024EC44DDA4E0A4FDA4ECD
S1130470AA50AA50AA50AA50AA50AA50AA50AA50A8
S1130480AA50AA50AA50AA50AA50E94EDA4E2D4FAB
S11304904F4FDA4E784F8D4FDA4E7057BA57BA57DE
S11304A069577A577A577A57BA577057BA577A575B
S11304B070577A578C578557BA57BA57BA579A57BD
S11304C0A857BA57BA57BA57BA57BA57BA57BA57B2
S11304D07A57BA57BA576957BA57BA576957255806
S11304E0A3582C583D5A3D5A3D5A3D5A3D5A3D5AFF
S11304F03D5A3D5A3D5A3D5A3D5A3D5A3D5A33584C
S11305003C58DB5851584358E75811594A5811245C
S11305101FBECFEFD0E1DEBFCDBF12E0A0E0B1E05F
S1130520EAE8F0EF00E00BBF02C007900D92A2359D
S1130530B107D9F72CE0A2E5B2E001C01D92A23FB9
S1130540B207E1F703D00C9443785ACDF89440E015
S113055050E060E070E08EE297E00E942F6A8EEA3D
S113056095E00E94B9208EEA95E00E9428128EEA56
S113057095E00E9419712AEA35E048EB5BE060E0FF
S113058070E08EEA95E00E94E62D672B682B692BBC
S113059029F08091D10B8F5F8093D10B8EEA95E087
S11305A00E94821D683071058105934021F362E544
S11305B072E08EEA95E00E94A31F0000DCCFCF9387
S11305C0DF93EC01DB0120E030E018C0E881E29524
S11305D0EF70F0E0E05CFE4F80818C93E991EF7066
S11305E0F0E0E05CFE4F808111968C9311978EE2CF
S11305F012968C9312972F5F3F4F13962430310538
S11306002CF311971C92DF91CF91089520E030E0F4
S113061040E050E060E070E080E090E0089560E049
S113062070E0CB01089560E070E0CB0108958F92F3
S11306309F92AF92BF920F931F93CF93DF93CDB747
S1130640DEB7DA950FB6F894DEBF0FBECDBF8B01CF
S11306502091D60B3091D70B41E64B832E5F3F4F51
S11306603093D70B2093D60B27E02C8344E0BE01B4
S11306706F5F7F4F0E9488364B015C01672B682BAC
S1130680692B09F04DC061E070E03FC0D801ED91E5
S1130690FC91872F90E09C01220F331F220F331F00
S11306A0280F391FE20FF31F862F90E0DC01159607
S11306B041E050E04C0F5D1FA40FB51F4C914083E7
S11306C0D8014D915C91420F531FFC01369621E0F5
S11306D030E02C0F3D1FE20FF31F208130E0322F5A
S11306E022270796E1E0F0E0EC0FFD1FE80FF91F69
S11306F08081D901A82BCD01A0E0B0E0FA0181836B
S11307009283A383B4836D5F7F5F8A81681730F41B
S1130710D80112968C91781708F4B8CFF801738336
S1130720C501B401D3950FB6F894DEBF0FBECDBF9B
S1130730DF91CF911F910F91BF90AF909F908F90B9
S11307400895CF92DF92EF92FF920F931F93CF936E
S1130750DF93CDB7DEB7C054D1090FB6F894DEBF2E
S11307600FBECDBFFC01EC52FE4FA081B18100E071
S113077010E040E050E034C0FB01E080F180F7017C
S1130780E40FF51FE080CD90DC901197F901EE0F96
S1130790FF1FE20FF31FEC0DFD1DF080EF100BC0E7
S11307A0F180E1E0F0E0EC0FFD1FE00FF11FF082BB
S11307B00F5F1F4F0CC02F5F3F4F02C020E030E09F
S11307C01396EC911397F0E02E173F07A8F21396B7
S11307D0EC911397F0E02E173F0779F04F5F5F4FCE
S11307E0FB01248135814217530740F3AE014F5F6B
S11307F05F4F602F0E94F94904C067E075E080E014
S113080092E0C05CDF4F0FB6F894DEBF0FBECDBFE1
S1130810DF91CF911F910F91FF90EF90DF90CF90D8
S113082008951F93CF93DF93FC01EE57FC4F208173
S1130830261799F0162FEC010E94C74B611571051C
S11308408105910579F4FE01EE57FC4F10831DAB31
S113085040E030E020E090E008C040E030E020E0FC
S113086090E003C0462F372F282F642F732F822F39
S1130870DF91CF911F910895EF92FF920F931F93F1
S1130880CF93DF93CDB7DEB7CF5FD1090FB6F8941E
S1130890DEBF0FBECDBF7B018E010F5F1F4FB801BE
S11308A08F589C4F8CDEF80101900020E9F73197B6
S11308B0AF01401B510BB801C7010E949F6A60E061
S11308C070E0CB01C150DF4F0FB6F894DEBF0FBE0E
S11308D0CDBFDF91CF911F910F91FF90EF900895BD
S11308E0CF92DF92EF92FF920F931F93CF93DF93F8
S11308F0CDB7DEB7C154D1090FB6F894DEBF0FBE31
S1130900CDBF7B0120E229A38E010F5F1F4F9E0103
S11309102F5D3F4F40E460E00E942638C62ED72E5C
S1130920082F192F29A1211109C0D701ED91FC919C
S1130930108260E070E080E090E033C08C81482F4A
S113094050E030E02350310924173507C4F024E087
S113095030E040E011C0E1E0F0E0EC0FFD1FE20FF9
S1130960F31F5081E2E2F0E0EC0FFD1FE40FF11DF4
S113097050834F5F2F5F3F4F481768F307C040E035
S11309806894CC24C1F8D12C00E013E050E0BE01FF
S11309906E5D7F4FC7010E949F6A6C2D7D2D802F55
S11309A0912FCF5BDF4F0FB6F894DEBF0FBECDBFE4
S11309B0DF91CF911F910F91FF90EF90DF90CF9037
S11309C008954F925F926F927F928F929F92AF920F
S11309D0BF92CF92EF92FF920F931F93CF93DF9327
S11309E0CDB7DEB72B013A010E94B43A2091D60B61
S11309F03091D70B2F5F3F4F3093D70B2093D60BFB
S1130A00F301208131E0320F3083F201E20FF11D56
S1130A1021E02083F301208131E0320F3083EA8921
S1130A20FB892083DF91CF911F910F91FF90EF906D
S1130A30CF90BF90AF909F908F907F906F905F907A
S1130A404F900895CF93DF93EC0150E01DC0252F04
S1130A5030E0F901EE0FFF1FDB01AE0FBF1F9C91C9
S1130A602E0F3F1F2C0F3D1FF901EB51FE4F9083BA
S1130A7031969083319690838CA9811104C011968C
S1130A808C9181119CAB5F5F541708F3DF91CF9178
S1130A9008951F93CF93DF93EC01142FD3DFFE014E
S1130AA0E959FC4F80E4808331961083CE018B5149
S1130AB09E4F339791838083DE01AC52BE4FED93FA
S1130AC0FC9380549F4F34969183808320E01EC012
S1130AD0FE01E759FC4F0190F081E02D822F90E058
S1130AE0AC01440F551F840F951FE80FF91FDE0159
S1130AF0AB59BC4F4D915C91DA01A80FB91F8D9190
S1130B009D91AC9180839183A2832F5F211700F381
S1130B10FE01E959FC4F80813496808333978081AC
S1130B2034968083CE0187599C4FCA52DE4F9983F5
S1130B30888360E070E0CB01DF91CF911F9108952D
S1130B400F931F93CF93DF93CDB7DEB7C158D1096D
S1130B500FB6F894DEBF0FBECDBF8C0180E4CF5733
S1130B60DF4F8883C158D040AE014F5F5F4FBE0155
S1130B706F577F4FC8010E94FE50611571058105B2
S1130B809105A1F4CF57DF4F4881C158D040BE0131
S1130B906F5F7F4FC8017DDF611571058105910588
S1130BA049F440E030E020E090E007C0462F372FC2
S1130BB0282F03C0462F372F282F642F732F822FFF
S1130BC0CF57DF4F0FB6F894DEBF0FBECDBFDF9116
S1130BD0CF911F910F9108958F929F92AF92BF92E0
S1130BE0DF92EF92FF920F931F93CF93DF93CDB7D2
S1130BF0DEB7DA950FB6F894DEBF0FBECDBF7C0129
S1130C008B01FC01EC52FE4F80819181892B51F4C0
S1130C10C70196DF4B015C016115710581059105E2
S1130C2009F0AFC0F701EC52FE4FA081B181809171
S1130C30D60B9091D70B21E92B8302969093D70B77
S1130C408093D60BEA5DFB4F908181E0892720E8F1
S1130C50829FC001112487608C83D12C44E085C01D
S1130C60F801208131818D2D90E0BC01660F771F42
S1130C70660F771F680F791FF901E60FF71F808150
S1130C80811130C036C0F80120813181F901E60FAD
S1130C90F71F5081ED91FC911197282F30E05901F5
S1130CA0AA0CBB1C2A0D3B1DE20FF31F90815913A4
S1130CB017C0E091D60BF091D70B3196F093D70B78
S1130CC0E093D60BED91FC911197E20FF31F918104
S1130CD0E1E0F0E0EC0FFD1FE40FF11D90834F5FA6
S1130CE08F5F01C080E013969C911397891758F287
S1130CF011C08091D60B9091D70B01969093D70B8E
S1130D008093D60BE1E0F0E0EC0FFD1FE40FF11D42
S1130D1010824F5FF80180819181FC01E60FF71F7B
S1130D2081809280A380B480FFEF8F169F06A10478
S1130D30B1045CF58091D60B9091D70B02969093F9
S1130D40D70B8093D60BE1E0F0E0EC0FFD1FE40F2E
S1130D50F11D908281E0840FE1E0F0E0EC0FFD1FD3
S1130D60E80FF11D4E5F8082D394F8018381D81679
S1130D7008F476CFBE016F5F7F4FC7010E948836AB
S1130D8008C0792D8A2D9B2D04C061E070E080E0BD
S1130D9093E0D3950FB6F894DEBF0FBECDBFDF91BD
S1130DA0CF911F910F91FF90EF90DF90BF90AF9084
S1130DB09F908F900895AF92BF92CF92DF92EF925F
S1130DC0FF920F931F93CF93DF93CDB7DEB7C15C30
S1130DD0D1400FB6F894DEBF0FBECDBF5C017B01DE
S1130DE06A01FC01EC52FE4F80819181892B41F410
S1130DF0C501A6DE611571058105910509F0A9C03B
S1130E00F501EC52FE4F0081118180E4CF53DE4F97
S1130E108883C15CD140E65CFB4F81E08C0D80830C
S1130E20AE014F5F5F4FBE016F537E4FC5010E94FD
S1130E306C51611571058105910509F08EC040E082
S1130E4050E020E030E073C0D70112968C9190E01E
S1130E504817590708F169C0F801A081B181FC0164
S1130E60EE0FFF1FE80FF91FEA0FFB1FA181F90125
S1130E70EE0FFF1FEE0FFF1FEE0FFF1FE21BF30B22
S1130E80AA24A394B12CAC0EBD1EEA0DFB1DE08177
S1130E90AE1739F0019602C080E090E086179707FC
S1130EA0D8F28617970709F440C0D701AD90BC90DB
S1130EB0BA01660F771F660F771F640F751FA60EA2
S1130EC0B71ED801ED91FC91DC01AA0FBB1F8A0F5C
S1130ED09B1FE80FF91F8081F5018083D7018D9155
S1130EE09C91680F791FC901880F991F880F991F5A
S1130EF0880F991F821B930B0196E1E0F0E0EC0F41
S1130F00FD1F8E0F9F1FF601EE0FFF1FE80FF91F45
S1130F1080819181092E000CAA0BBB0BFB018183FC
S1130F209283A383B4834F5F5F4F2F5F3F4FCF53B1
S1130F30DE4F6881C15CD14070E02617370708F4A2
S1130F4083CFD70113964C9340E030E020E090E04B
S1130F5007C0462F372F282F03C0462F372F282F9F
S1130F60642F732F822FCF53DE4F0FB6F894DEBF5A
S1130F700FBECDBFDF91CF911F910F91FF90EF90E6
S1130F80DF90CF90BF90AF9008952F923F924F92F1
S1130F905F926F927F928F929F92AF92BF92CF9205
S1130FA0DF92EF92FF920F931F93CF93DF93CDB70E
S1130FB0DEB7C45CD1090FB6F894DEBF0FBECDBF57
S1130FC00F2EF5E03F2EF02DE62EE694E694E694FF
S1130FD0E694E694F12C9C0120583E4FD701AF577C
S1130FE0BF4FAA0FBB1FAA0FBB1FA20FB31F8D9029
S1130FF09D90AD90BC90062F0F71002E04C0B69446
S1131000A794979487940A94D2F780FE19C0F701A5
S1131010EB57FF4FEE0FFF1FEE0FFF1FE20FF31F03
S113102080809180A280B380002E04C0B694A794DF
S1131030979487940A94D2F780FC02C00C942A10E7
S11310405A01162F6C01862F90E0FC013197E0378E
S1131050F10508F04AC7EA5BFF4F0C94D0746AE0CC
S1131060412C512C320166C7F601E053FE4F8081BA
S11310709181A281B381FA0180839183A283B38396
S113108060E0412C512C320155C7DA0115961C92AF
S11310901E92149720E021C0D501ED91FC91880F98
S11310A0991F880F991FE80FF91FD601A653BA4F4D
S11310B04D915C91DA01A80FB91F8D919D910D900E
S11310C0BC91A02D80839183A283B383F501848195
S11310D095810196958384832F5F822F90E0F6019A
S11310E0E253FA4F408151818417950708F00CC7E9
S11310F0D50112964D915C9113978417950760F270
S113110060E0412C512C320115C7B6016A5C7F4F57
S1131110FB0101900020E9F73197AF01461B570B03
S1131120C5010E949F6A60E0412C512C320102C724
S1131130F601E052FE4F80819181A281B381FA01D0
S113114080839183A283B38360E0412C512C3201CC
S1131150F1C6F601E452FE4F80819181A281B381F0
S1131160FA0180839183A283B38360E0412C512CE4
S11311703201E0C6F601EC51FE4F808181110CC0B2
S1131180D60115968C91882359F0BF01C6010E949F
S11311902A562B013C0107C0412C512C320103C0BB
S11311A0412C512C3201F601EC51FE4F8081F501A6
S11311B0808360E0BFC619821A821B821C82AE0142
S11311C04F5F5F4F6DE0C6010E9433572B013C0116
S11311D0672B682B692B81F489819A81AB81BC814F
S11311E00097A105B10519F48FEF9FEFDC01F5011C
S11311F080839183A283B38360E09CC64601F9E3B4
S11312008F1AFAEF9F0AA4016CE0C6010E943357BB
S11312102B013C01D4018C91F501808360E08AC6E6
S1131220BE016F5F7F4FC6010E941E532B013C011C
S1131230672B682B692BC9F4133219F0143239F077
S11312400CC08B819C81D5018D939C930EC08D81A4
S11312509E81F5019183808308C00F2EF9E04F2E03
S1131260512C612CF3E07F2EF02D60E063C6BA01AF
S1131270C6010E941B532B013C0160E05BC6BA010E
S1131280C6010E9473532B013C0160E053C666E023
S1131290412C512C32014EC660E0412C512C3201BC
S11312A049C668E0412C512C320144C66BE0C601AA
S11312B00E9433572B013C0160E03CC662E1412CA3
S11312C0512C320137C663E1412C512C320132C614
S11312D0F601E85EF94F908181E093FF80E0D5014B
S11312E08C9360E0412C512C320124C6F601E85E57
S11312F0F94F908181E091FF80E0F501808360E007
S1131300412C512C320116C6F601E85EF94F90814A
S113131081E092FF80E0D5018C9360E0412C512C58
S1131320320108C6A6014F5F594F63E0C6010E940F
S113133033572B013C01672B682B692B09F0E9C556
S1131340F50115821482F601EF5FF94F8081811156
S113135010C081E090E0D50115969C938E9314976C
S113136012968D919C911397892B19F0ED91FC9114
S1131370108220E023C0F601EF5FF94F808190E0F6
S1131380022E02C0959587950A94E2F780FF15C056
S1131390F50184819581AC014F5F5F4F5583448390
S11313A0628173816417750740F040815181FA01AD
S11313B0E80FF91F31E0320F30832F5F2430D8F269
S11313C060E0B8C5AE014F5F5F4F6EE1C6010E9499
S11313D033572B013C01672B682B692B49F5D50149
S11313E015961C921E92149720E020C0898190E0EB
S11313F0022E02C0959587950A94E2F780FF15C0E6
S1131400F50184819581AC014F5F5F4F558344831F
S1131410628173816417750740F040815181FA013C
S1131420E80FF91F31E0320F30832F5F2430F0F2E0
S113143060E080C542E050E0B501C601BCDC2B0190
S11314403C0160E077C540E050E0B501C601B3DC83
S11314502B013C0160E06EC541E050E0B501C601DE
S1131460AADC2B013C0160E065C5BA01C6010E94FB
S11314704A522B013C0160E05DC5DA0115961C92CD
S11314801E92149780E1CF57DF4F8883C158D04014
S1131490AE014F5F5F4FBE016F577F4FC6010E9481
S11314A082542B013C01672B682B692B09F084C003
S11314B081E0103109F080E0E82FF0E0CD53DF4FF8
S11314C0F983E883C35CD040F601ED57FC4F1082EA
S11314D088248394912C26C0AE014E535F4F682D0F
S11314E0C6010E9414552B013C01672B682B692B04
S11314F009F062C0CE53DF4F8881C25CD04088239C
S113150071F081E090E0082C02C0880F991F0A94C2
S1131510E2F7F601ED57FC4F9081892B8083FFEFB2
S11315208F1A9F0ACF57DF4F8881C158D04090E06F
S1131530881599058CF621E030E033C0F601ED57AB
S1131540FC4F8081082E000C990B022E02C0959549
S113155087950A94E2F781709927CD53DF4F48812C
S11315605981C35CD04048175907C9F4D501149672
S11315708D919C911597AC014F5F5F4F15965C93CD
S11315804E93149712966D917C9113976417750777
S113159030F04D915C91FA01E80FF91F20832F5F21
S11315A03F4FCF57DF4F8881C158D04090E082171A
S11315B0930724F660E0BEC4642D752D862D972D07
S11315C05EC5F601EC52FE4F80819181892B51F466
S11315D0C601B6DA2B013C0161157105810591053F
S11315E009F03DC5F5011582148260E02BC0D501D8
S11315F014962D913C911597C901019615969C93CB
S11316008E93149712964D915C911397481759072E
S1131610C0F0ED91FC91E20FF31FD601AC52BE4F26
S11316200D90BC91A02D2D913C91862F90E0AC01A2
S1131630440F551F840F951FD901A80FB91F8C9112
S113164080836F5FF601EC52FE4F0190F081E02D34
S11316508381681760F260E0412C512C32016AC426
S1131660FE01EF57FF4F81E4DF011D928A95E9F7F0
S113167080E4CE53DF4F8883C25CD040AE014F5F1D
S11316805F4FBE016E537F4FC6010E94FE502B0177
S11316903C01672B682B692B09F072C080E014C0F1
S11316A0E82FF0E0EE0FFF1F21E030E02C0F3D1F8C
S11316B0E20FF31F20819181E1E8F0E0EC0FFD1FC0
S11316C0E20FF11D90838F5FCE53DF4F4881C25CE0
S11316D0D040841728F3F601EC52FE4F80819181AB
S11316E0892B29F4BE016F5F7F4FC601D2D9D50182
S11316F015961C921E92149720E038C040815181A7
S1131700822F90E0FC01EE0FFF1F8E0F9F1FFA0146
S1131710E80FF91F40813181828190E0E1E8F0E037
S1131720EC0FFD1FE30FF11D30813323F1F0E1E8ED
S1131730F0E0EC0FFD1FE80FF91F80818823A9F06A
S1131740F50184819581BC016F5F7F4F758364834C
S11317500280F381E02DE617F70738F0D5016D918B
S11317607C91FB01E80FF91F40832F5FF601EC52D7
S1131770FE4F0190F081E02D8381281708F4BECF3D
S113178060E0D8C3F601EC52FE4F80819181892B31
S113179051F4C601D5D92B013C01611571058105B0
S11317A0910521F060C4412C512C3201F601EC5218
S11317B0FE4F0190F081E02D20E030E019C0D5010A
S11317C04D915C91C901880F991F820F931F4A01A3
S11317D0880E991E40815181840F951FDC014D9123
S11317E05D916C91D4014D935D936C932F5F3F4F4A
S11317F04381842F90E02817390738F4D5011296D5
S11318008C9190E028173907D0F2F501438360E00A
S113181091C3DA0112968C91129789834D915C9150
S1131820BE016F5F7F4FC6010E9476532B013C01BE
S1131830672B682B692B29F4898190E0F501958346
S1131840848360E077C3BA01C6010E9479542B01F6
S11318503C0160E06FC363E4C6010E945B562B0148
S11318603C0160E067C362E4C6010E945B562B0141
S11318703C0160E05FC361E4C6010E945B562B013A
S11318803C0160E057C360E4C6010E945B562B0133
S11318903C01611571058105910509F43CC3892F4B
S11318A09927AA27BB270297A105B10509F035C3DB
S11318B0D5011C9260E0412C512C32013BC3F6014E
S11318C084A9DA018C9360E0412C512C320132C39B
S11318D0B6016B5C7F4FC6010E94F9552B013C0198
S11318E0672B682B692B09F01AC3F60185A9D5016A
S11318F08C9360E01FC3BE016F5F7F4FC6010E94DF
S1131900D1562B013C01672B682B692B29F4898163
S1131910F601EF57FC4F8083F601EF57FC4F8081AF
S1131920F501808360E006C3BA01C6010E94025734
S11319302B013C0160E0FEC20F2EF2E12F2EF02DB0
S113194060E0412C512C3201F5C26894222421F824
S113195060E0412C512C3201EDC2212C60E0412C7D
S1131960512C3201E7C22224239460E0412C512CF3
S11319703201E0C26894222424F860E0412C512C06
S11319803201D8C20F2EF1E12F2EF02D60E0412C50
S1131990512C3201CFC20F2EF3E12F2EF02D60E037
S11319A0412C512C3201C6C2F601E950FA4F808114
S11319B0DA018C9360E0412C512C3201BBC20F2E12
S11319C0F4E12F2EF02D60E0412C512C3201B2C2F3
S11319D00F2EF5E12F2EF02D60E0412C512C320119
S11319E0A9C20F2EF6E12F2EF02D60E0412C512CD0
S11319F03201A0C20F2EF7E12F2EF02D60E0412C12
S1131A00512C320197C2BA01C6010E9490552B0194
S1131A103C0160E08FC20F2EF9E03F2EF02D689458
S1131A20222421F860E0412C512C320183C20F2E74
S1131A30FAE03F2EF02D6894222421F860E0412C36
S1131A40512C320177C20F2EFBE03F2EF02D68940B
S1131A50222421F860E0412C512C32016BC20F2E5C
S1131A60F4E13F2EF02D6894222421F860E0412C0B
S1131A70512C32015FC20F2EF5E13F2EF02D6894F8
S1131A80222421F860E0412C512C320153C20F2E44
S1131A90F9E03F2EF02D2224239460E0412C512CB8
S1131AA0320148C20F2EFAE03F2EF02D2224239457
S1131AB060E0412C512C32013DC20F2EFBE03F2E41
S1131AC0F02D2224239460E0412C512C320132C2A7
S1131AD00F2EF4E13F2EF02D2224239460E0412CBC
S1131AE0512C320127C20F2EF5E13F2EF02D222476
S1131AF0239460E0412C512C32011CC20F2EF9E0DA
S1131B003F2EF02D0F2EF3E02F2EF02D60E0412C10
S1131B10512C32010FC20F2EFBE03F2EF02D0F2E61
S1131B20F3E02F2EF02D60E0412C512C320102C243
S1131B300F2EF4E13F2EF02D0F2EF3E02F2EF02D7B
S1131B4060E0412C512C3201F5C10F2EF4E13F2EFF
S1131B50F02D6894222422F860E0412C512C3201AB
S1131B60E9C161E2412C512C3201E4C1F601E85291
S1131B70FE4F80819181A281B381FA018083918398
S1131B80A283B38360E0412C512C3201D3C1BA014A
S1131B90C6010E9419612B013C0160E0CBC1BA016E
S1131BA0C6010E9483602B013C0160E0C3C1BA01FD
S1131BB0C6010E9470612B013C0160E0BBC1BA0107
S1131BC0C6010E943C042B013C0160E0B3C1BA0190
S1131BD0C6010E9470042B013C0160E0ABC1F60118
S1131BE0EF58FC4F8081803211F128F4883161F084
S1131BF0893169F04EC0883349F1803809F446C010
S1131C00803309F046C048C061E571E050C0F60178
S1131C10EC58FC4F8081823021F0833009F43FC0BE
S1131C2003C06CE871E043C061E571E040C0F601B7
S1131C30EC58FC4F8081823019F0833099F103C055
S1131C4064E971E034C062EA71E031C0F601ED5834
S1131C50FC4F8081823071F028F4882341F0813078
S1131C6021F111C0833049F0843051F00CC06CEA8A
S1131C7071E01DC067EC71E01AC06EEB71E017C033
S1131C8065EB71E014C064E871E011C060E871E0D4
S1131C900EC064E871E00BC06EE671E008C065E553
S1131CA071E005C06DE571E002C067E771E0FB011A
S1131CB001900020E9F73197AF01461B570BC5018E
S1131CC00E949F6A60E0412C512C320133C1BE0155
S1131CD06F5F7F4F4601F3E98F1AFCEF9F0AC4013F
S1131CE00C960E94DF020F2EFDE27F2EF02D7C86E3
S1131CF0BE01635F7F4FC40108960E94DF02788EA5
S1131D0082E4898F8CE48A8FBE01655E7F4FC401B3
S1131D100E94DF0245E250E0BE016F5F7F4FC501C4
S1131D200E949F6A60E0412C512C320103C160E0A3
S1131D300F2EF3E04F2E512C612C742CF02DFAC091
S1131D4060E00F2EF3E04F2E512C612C742CF02DFB
S1131D50F1C060E00F2EF3E04F2E512C612C742C57
S1131D60F02DE8C0F601EB5EF94F60817181C60188
S1131D700E943F652B013C0160E0DCC0F601EB5E94
S1131D80F94F80819181DA018D939C9360E0412C1D
S1131D90512C3201CFC06BE0C6010E94A1612B011E
S1131DA03C0160E0C7C0A6014F535A4F62E1C6012F
S1131DB00E9433572B013C01611571058105910582
S1131DC009F055C1F601EF53FA4F808191818130BA
S1131DD0910579F028F08230910529F0019631F4CB
S1131DE061ED71E008C063EF71E005C064E871E083
S1131DF002C061EE71E0A114B10409F492C0FB01C8
S1131E0001900020E9F73197AF01461B570BC5013C
S1131E100E949F6A60E08EC0F601ED53FA4F808104
S1131E209181FA019183808360E0412C512C32012D
S1131E3081C0F601EB53FA4F80819181DA018D93D1
S1131E409C9360E0412C512C320174C0AE014F5F71
S1131E505F4F65E0C6010E9472672B013C01672B4E
S1131E60682B692BD9F4113519F0123539F00CC0EF
S1131E708A819B81F501918380830EC0998181E0E1
S1131E808927D5018C9308C00F2EF9E04F2E512CD1
S1131E90612CF3E07F2EF02D60E04CC060E04AC07E
S1131EA0F601E75EF94F80819181FA019183808385
S1131EB060E0412C512C32013DC0BA01C6010E94A0
S1131EC07C542B013C0160E035C0BA01C6010E947C
S1131ED07F542B013C0160E02DC0BA01C6010E9471
S1131EE017032B013C0160E025C060E00F2EF9E0F0
S1131EF04F2E512C612CF3E07F2EF02D1BC064E09B
S1131F00412C512C320116C060E0412C512C32017D
S1131F1011C060E00FC060E00DC060E00BC060E085
S1131F2009C060E00F2EFEE04F2E512C612CF3E02F
S1131F307F2EF02D812F90E0FC013797E836F105D4
S1131F40A0F4EA54FF4F0C94D074A501C6010E947A
S1131F5033572B013C0109C09501432D522D632DAC
S1131F60C6010E94CD572B013C01F701EF57FF4FEB
S1131F70EE0FFF1FEE0FFF1FC60180589E4FE80FA4
S1131F80F91F80819181A281B381002E04C0B6958E
S1131F90A795979587950A94D2F780FD6CC0411454
S1131FA051046104710439F0F3E14F1651046104E2
S1131FB0F3E07F0629F541E050E060E070E0002E98
S1131FC004C0440F551F661F771F0A94D2F7C70138
S1131FD08B579F4F880F991F880F991F9601205880
S1131FE03E4FF901E80FF91F80819181A281B381ED
S1131FF0482B592B6A2B7B2B408351836283738339
S113200081E090E0A0E0B0E004C0880F991FAA1F0F
S1132010BB1F0A95D2F720E8C21A2EEFD20A31E884
S1132020E30EF11CEE0CFF1CEE0CFF1CF601EE0D92
S1132030FF1D4081518162817381842B952BA62BD6
S1132040B72B80839183A283B383642D752D862D52
S1132050972D15C069E070E080E093E010C0752D05
S1132060862D972D0CC0752D862D972D08C0752DA6
S1132070862D972D04C0642D752D862D972DCC5358
S1132080DF4F0FB6F894DEBF0FBECDBFDF91CF9107
S11320901F910F91FF90EF90DF90CF90BF90AF9082
S11320A09F908F907F906F905F904F903F902F9074
S11320B008958F929F92AF92BF92CF92DF92EF9248
S11320C0FF920F931F93CF93DF93CDB7DEB7C05C1E
S11320D0D1400FB6F894DEBF0FBECDBF6C018B01AB
S11320E07A01FC01EC52FE4F80819181892B59F4D5
S11320F0C6010E94A0054B015C01611571058105B3
S1132100910509F089C0F601EC52FE4FA081B1811E
S11321101396BC901397E65CFB4F81E08E0D808391
S113212020E030E06AC06D917C911197FC01EE0FC4
S1132130FF1FE80FF91FE60FF71FA080F801608169
S11321407181F901EE0FFF1FEE0FFF1FE20FF31F66
S1132150E60FF71F6081A61649F0019602C080E0E1
S113216090E04B2D50E084179507E8F2841795070B
S113217009F456C04D915C911197FC01EE0FFF1FBD
S1132180E80FF91FE40FF51F4181F901EE0FFF1F5E
S1132190EE0FFF1FEE0FFF1FE21BF30B61E070E079
S11321A06C0F7D1FE60FF71F4083AC01440F551FD2
S11321B0440F551F440F551FFA01E81BF90BCF01BB
S11321C00196860F971FA701440F551F840F951F73
S11321D0F80140815181F901EE0FFF1FEE0FFF1F3F
S11321E0E20FF31FE40FF51F418152816381748173
S11321F0FC01518340832F5F3F4FF8016381862F99
S113220090E02817390708F4AACFAE014F5F5F4F5B
S1132210C6010E94634A08C0792D8A2D9B2D04C0F3
S113222064E070E080E093E0C054DE4F0FB6F894B1
S1132230DEBF0FBECDBFDF91CF911F910F91FF90F5
S1132240EF90DF90CF90BF90AF909F908F900895C4
S1132250CF92DF92EF92FF920F931F93CF93DF936E
S1132260EC01FC01E358FC4F80819181A281B38190
S1132270892B8A2B8B2B51F4CE010E94BA378B0108
S11322809C01672B682B692B21F06FC000E010E0E4
S1132290980180E1FE01EC56FC4FDF011D928A9506
S11322A0E9F781E090E034C0FC0199230CF47F96B7
S11322B0F595E795F595E795F595E795F595E79502
S11322C0F595E795DC01AF71BB2741E050E060E094
S11322D070E004C0440F551F661F771FAA95D2F7FC
S11322E0EB57FF4FEE0FFF1FEE0FFF1FDE01A0584D
S11322F0BE4FEA0FFB1FC080D180E280F3804C29DF
S11323005D296E297F2940835183628373830196FB
S1132310813791054CF280E090E01EC0DC01AB57A0
S1132320BF4FAA0FBB1FAA0FBB1FAE0140585E4F81
S1132330A40FB51FCD90DD90ED90FC90FC01EF57FC
S1132340FF4FEE0FFF1FEE0FFF1FE40FF51FC082BC
S1132350D182E282F382019684309105FCF2FE017F
S1132360EE57FC4F80818DAB1CAAC901B801DF91E7
S1132370CF911F910F91FF90EF90DF90CF90089530
S11323800F931F93CF93DF93EC018C0100581E4FE2
S1132390D8011896ED91FC911997309769F0A05BDC
S11323A0BF4F4D915D916D917C91C8010995611567
S11323B0710581059105C9F5FE01E058FE4F0484BD
S11323C0F585E02DC8010995611571058105910513
S11323D001F1623071058105B3E09B0751F519C025
S11323E021E02D83462F372F282F2AC0673071050F
S11323F0810521E0920769F0613071058105A1E052
S11324009A07D9F081E08D8341E030E020E090E04C
S113241017C0BE0163597C4FCE010E94713761150C
S113242071058105910511F7DBCF462F372F282F32
S113243007C0462F372F282F03C0462F372F282FAA
S1132440642F732F822FDF91CF911F910F910895E5
S1132450CF92DF92EF92FF920F931F93CF93DF936C
S1132460EC018C0100581E4F8D8181110CC0F801C4
S11324700280F381E02DC80109956115710581057C
S1132480910509F049C0CE017BDF6B017C01611528
S113249071058105910589F061307105810591050A
S11324A009F43EC0C058DE4FEA85FB85C801099592
S11324B04C2D3D2D2E2D9F2D3FC0FE01EF58FC4F7E
S11324C0808198EE980F923020F0803211F08033A2
S11324D029F481E0FE01E650FA4F8083CE010E9488
S11324E0356BFE01E053FE4F40815181628173815F
S11324F0CE01AEDE6115710581059105B1F0633140
S11325007105810523E09207A1F481E08D8341E008
S113251030E020E090E010C0462F372F282F0CC069
S1132520462F3D2D2E2D9F2D07C0462F372F282FA8
S113253003C0462F372F282F642F732F822FDF914C
S1132540CF911F910F91FF90EF90DF90CF9008955E
S1132550CF92DF92FF920F931F93CF93DF93BC012F
S1132560EC010E811F81F8014081518191E0F12C31
S11325705EC0E92FF0E0EE0FFF1FE00FF11FA08116
S1132580B181EA013C851C968C911C97381354C088
S1132590EF85F889309721F51F962D913C9150973E
S11325A0232BF1F4CD84DE84C114D10441F41D96AF
S11325B02D913C911E97232B11F4F39411C0C11457
S11325C0D10471F01D962D913C911E972115310572
S11325D039F0E601D880E9018881D81201C0F3946A
S11325E0309721F11F96CD91DC9150972097F1F00F
S11325F02081888128131AC0EA01ED85FE85309771
S113260041F41D962D913C911E97232B11F4F394C4
S11326100DC0309759F01D960D90BC91A02D1097C8
S113262029F020818C91281301C0F3949F5FFB0152
S11326302485921708F49DCF4F2D50E0822F90E00F
S113264001974817590711F080E001C081E0DF913C
S1132650CF911F910F91FF90DF90CF9008952F920B
S11326603F924F925F926F927F928F929F92AF921E
S1132670BF92CF92DF92EF92FF920F931F93CF936B
S1132680DF93CDB7DEB760970FB6F894DEBF0FBE09
S1132690CDBF4C011B015E834D830F8318872987AF
S11326A03A87CB86DC86ED86FE86FC01EC52FE4F33
S11326B080819181988B8F87DB018C91813079F0B7
S11326C0823009F434C141C1F10126813781F90115
S11326D0E80FF91F808181115F5F4F5F02C040E006
S11326E050E0842F90E0D1011A962D913C911B97D4
S11326F08217930748F3852F90E02817390709F0CC
S11327002EC15523D9F0452E512C612C712C6F818B
S1132710788589859A85A30192010E94AE74690126
S11327207A016B857C858D859E85A30192010E942B
S1132730AE7429833A834B835C8307C019821A825F
S11327401B821C82C12CD12C760150E0152F78C03D
S1132750D1011696ED91FC911797E60FF71F308182
S1132760EF85F88940815181822F90E0FC01EE0FC2
S1132770FF1F8E0F9F1FFA01E80FF91F8081381386
S113278054C0AD81BE814D915C913091D20B832FA9
S113279090E05C01AA0CBB1CAA0CBB1C8A0D9B1DFF
S11327A0480F591FE181DA01EC93ED81FE81A0808D
S11327B0B1803F5F3093D20BF501E80FF91FC1825E
S11327C0D282E382F482F401EA58FF4F80818823A5
S11327D061F1D4011C964D905D906D907C901F9793
S11327E045284628472809F1AD81BE81ED91FC9129
S11327F01197832F90E0AC01440F551F440F551FD0
S1132800840F951FE80FF91F10824D915C913F5F73
S11328103093D20BFA01E80FF91F89819A81AB81B9
S1132820BC8181839283A383B4832F5F01C020E0A2
S1132830AF85B88913968C91281708F489CF1F5F48
S1132840612F70E0F101828593856817790778F329
S113285040E030E020E090E07CC0D10116962D915C
S11328603C911797BF85EB2FF0E0EE0FFF1FE20FAF
S1132870F31FA080B180F101C180D280E380F48095
S1132880C114D104E104F10431F1D50111964D9044
S11328905D906D907C9014972F81388549855A8579
S11328A0C301B2010E947874A70196010E94AE741C
S11328B029833A834B835C832B853C854D855E85D8
S11328C0C301B2010E947874A70196010E94AE74FC
S11328D069017A011AC0C82ED12CE12CF12C6F8128
S11328E0788589859A85A70196010E94AE7429830B
S11328F03A834B835C836B857C858D859E85A7019C
S113290096010E94AE7469017A0109811A812B81B2
S11329103C814D815E81B501C401A1DE6115710563
S11329208105910509F5BF85BF5FBF8702C0E0E05F
S1132930EF87D1011C968C91BF85B81708F48DCF11
S113294040E030E020E090E004C041E030E020E0EE
S113295093E08091D20BED81FE81838308C047E030
S113296035E020E092E003C0462F372F282F642F54
S1132970732F822F60960FB6F894DEBF0FBECDBFC3
S1132980DF91CF911F910F91FF90EF90DF90CF9047
S1132990BF90AF909F908F907F906F905F904F907B
S11329A03F902F900895AF92BF92CF92DF92EF9213
S11329B0FF920F931F93CF93DF93CDB7DEB7C45429
S11329C0D1400FB6F894DEBF0FBECDBF5C01FC0151
S11329D0EA58FF4F8081882351F0F5010085118565
S11329E022853385C484D584E684F78408C0F50140
S11329F00089118922893389C12CD12C7601CE0119
S1132A0005969A83898380E48B83F50162A973A96F
S1132A10AE014F5F5F4FC50122DE6115710581056F
S1132A20910551F4BE016F5F7F4FC5010E94EC0513
S1132A30462F372F282F03C0462F372F282F642FD8
S1132A40732F822FCC5BDE4F0FB6F894DEBF0FBE20
S1132A50CDBFDF91CF911F910F91FF90EF90DF9049
S1132A60CF90BF90AF900895CF92DF92FF920F93D3
S1132A701F93CF93DF93EC0190E000E010E044C09B
S1132A8028813981F901A081B181E92FF0E0EE0FAD
S1132A90FF1FE20FF31F608171811A962D913C9103
S1132AA01B972115310539F1FB01428553854115E9
S1132AB0510509F12417350731F512C01696ED9129
S1132AC0FC911797E40FF51FF080FB01C680D780B7
S1132AD0F601E40FF51FE081FE1208C08F5F01C00C
S1132AE080E0482F50E04217530740F3241735077E
S1132AF051F40F5F08C0232B59F4FB012285338561
S1132B00232B31F41F5F9F5F8E81981708F4B8CF91
S1132B10081721F0181721F080E003C081E001C0FC
S1132B2081E0DF91CF911F910F91FF90DF90CF90C3
S1132B300895CF92DF92EF92FF920F931F93CF935A
S1132B40DF938C01EB01FC01EC52FE4F80819181FB
S1132B50892B51F4C8010E94A0056B017C01672BED
S1132B60682B692B21F059C0C12CD12C76018881A6
S1132B70813019F08230A9F040C0F801E95EF94FC4
S1132B80808181114AC0BE016A5F7F4F8A859B851F
S1132B90892B09F442C0C8010E94A1036B017C0186
S1132BA03CC0CE01D5DC882359F0F801E95EF94F29
S1132BB08081811132C0C801F6DE6B017C012DC019
S1132BC0CE01069651DF882309F1EE81FF81019041
S1132BD0F081E02DBF016A5F7F4FD801A95EB94F34
S1132BE08C9181111AC082859385892BB1F0C8011B
S1132BF00E94A1036B017C0110C00F2ECC24C3944E
S1132C00D12CE12CF3E0FF2EF02D07C00F2EF3E0C2
S1132C10CF2ED12CE12CFC2CF02DC701B601DF9175
S1132C20CF911F910F91FF90EF90DF90CF90089577
S1132C302F923F924F925F926F927F928F929F92C8
S1132C40AF92BF92CF92DF92EF92FF920F931F93B6
S1132C50CF93DF93CDB7DEB7A2970FB6F894DEBF5C
S1132C600FBECDBF6C01F62E5A010F2EF5E0EF2EEC
S1132C70F02D062F02950695077010E080589E4FA0
S1132C80F801EF57FF4FEE0FFF1FEE0FFF1FE80F86
S1132C90F91F80819181A281B381262F2F71922EF9
S1132CA004C0B695A795979587952A95D2F780FD88
S1132CB003C0C6010E94186DF801EF57FF4FEE0FD5
S1132CC0FF1FEE0FFF1FC60180589E4FE80FF91F2C
S1132CD080819181A281B381092C04C0B695A79506
S1132CE0979587950A94D2F780FF18C00B571F4F0A
S1132CF0000F111F000F111FF601E058FE4FE00FE7
S1132D00F11F80819181A281B38104C0B695A795FA
S1132D10979587959A94D2F780FFADC68F2D90E052
S1132D20FC013197E037F10508F0C6C5E25EFE4FBD
S1132D300C94D07460E00F2EF5E04F2E512C612CD2
S1132D40F3E07F2EF02D06C6D5016C91C6010E94DA
S1132D508F4C2B013C01672B682B692B09F0BBC5F9
S1132D60F5018081F601EC51FE4F808360E0F2C5ED
S1132D70D5018C91882359F0F601E85EF94F8081E2
S1132D808860808360E0412C512C3201E3C5F60158
S1132D90E85EF94F8081877F808360E0412C512C6D
S1132DA03201D8C5F5018081882359F0F601E85E27
S1132DB0F94F80818260808360E0412C512C320184
S1132DC0C9C5F601E85EF94F80818D7F808360E09C
S1132DD0412C512C3201BEC5D5018C91882359F068
S1132DE0F601E85EF94F80818460808360E0412CC5
S1132DF0512C3201AFC5F601E85EF94F80818B7F1B
S1132E00808360E0412C512C3201A4C58601005816
S1132E101E4FF5014081518162817381F601E053B7
S1132E20FE4F4083518362837383D60115968C9140
S1132E30882309F452C5F80180859185892B09F40A
S1132E4051C5C6010E94FE372B013C01672B682B3C
S1132E50692B09F04CC5F8010084F185E02DD601F9
S1132E60A053BE4F4D915D916D917C91C801099520
S1132E7060E070C5F50124813581F601E453FA4F11
S1132E80808191818217930708F433C520E01CC028
S1132E90F601E653FA4F0190F081E02D880F991F57
S1132EA0880F991FE80FF91FD5014D915C91DA0144
S1132EB0A80FB91F8D919D910D90BC91A02D808379
S1132EC09183A283B3832F5F822F90E0F501448125
S1132ED0558184179507E0F2F601E253FA4F5183C6
S1132EE0408360E0412C512C320134C5F5018081CE
S1132EF09181A281B381F601E052FE4F80839183D8
S1132F00A283B38360E0412C512C320123C5F50127
S1132F1080819181A281B381F601E452FE4F8083C6
S1132F209183A283B38381E0E351FC4F808360E00B
S1132F30412C512C32010EC5A5016BE0C6010E9443
S1132F409D4D2B013C0160E005C5F5018081918117
S1132F50A281B3818F3FFFEF9F07AF07BF0719F42B
S1132F6080E090E0DC0189839A83AB83BC83AE016B
S1132F704F5F5F4F6DE0C6010E949D4D2B013C01E8
S1132F8060E0E8C4A5016CE0C6010E949D4D2B01E0
S1132F903C01672B682B692B09F0B5C4D5018C91D2
S1132FA0F601E953FA4F808381E03196808360E033
S1132FB0D1C4F5014081518162817381C6010E94AF
S1132FC03E4B2B013C0160E0C5C4D5014D915D91A0
S1132FD06D917C91C6010E94EE4B2B013C0160E097
S1132FE0B9C440E050E0B501C60163D82B013C01EF
S1132FF060E0B0C441E050E0B501C6015AD82B01ED
S11330003C0160E0A7C442E050E0B501C60151D8DC
S11330102B013C0160E09EC464E0412C512C320140
S113302099C466E0412C512C320194C460E0412CD7
S1133030512C32018FC468E0412C512C32018AC4D6
S1133040F601EF5FF94F108240E050E018C0D5015F
S1133050ED91FC91E40FF51F208130E021503109FE
S113306081E090E002C0880F991F2A95E2F7F601EB
S1133070EF5FF94F9081892B80834F5F5F4FF5019C
S1133080848195814817590728F4828193814817D0
S11330905907E8F2A6014F5F594F63E0C6010E9449
S11330A09D4D2B013C01672B682B692B09F02DC426
S11330B081E0F601EE50FA4F8083C6010E94A0051C
S11330C02B013C0160E046C4198240E050E015C089
S11330D0D501ED91FC91E40FF51F208130E02150E2
S11330E0310981E090E002C0880F991F2A95E2F728
S11330F09981892B89834F5F5F4FF5018481958185
S11331004817590728F4828193814817590700F317
S1133110AE014F5F5F4F6EE1C6010E949D4D2B01D2
S11331203C0160E017C4F601EC52FE4F80819181AE
S1133130892B59F4C6010E94A0052B013C0161159D
S113314071058105910521F09BC4412C512C32015C
S1133150F601EC52FE4F8081918198A38F8FD501A7
S113316013962C90FC018380821408F4D0C320E0D1
S113317030E0912C56C0D5016D917C91F901EE0F90
S1133180FF1FE20FF31FE60FF71F9180AF8DB8A169
S11331906D917C91DC01AA0FBB1FA80FB91FA60F6C
S11331A0B71F6C91961203C06281961649F001967E
S11331B002C080E090E0482D50E084179507D8F2D3
S11331C08417950709F460C4F9013196FAA3E9A3B9
S11331D0AF011FC0D5016D917C91F901EE0FFF1F66
S11331E0E20FF31FE60FF71F9080CA01880F991FA3
S11331F0840F951FDB01A80FB91F8C91981609F451
S113320048C4918111968C91981709F447C44F5F73
S11332105F4F40175107F0F299249394920E29A11D
S11332203AA1022D10E02017310718F240E050E0D7
S113323019C0AF8DB8A1ED91FC919A01220F331FF3
S1133240240F351FE20FF31FD5016D917C91DB0133
S1133250A20FB31F8D919D91AC9180839183A28322
S11332604F5F5F4F292D30E04217530710F3EF8D66
S1133270F8A1938281E0F601EE50FA4F808360E07A
S113328069C3D5014D915C91119714966C91C60157
S11332900E94F14B2B013C0160E05CC3F5014081CD
S11332A051816281738121E0C6010E94644C2B012B
S11332B03C0160E04FC3D5014D915C91F601EC51A6
S11332C0FE4F6081C6010E94184D2B013C0160E055
S11332D041C3F5014081F601EC51FE4F6081C60106
S11332E00E94154D2B013C0160E034C3D5014C9183
S11332F0F601EC51FE4F6081C6010E94444D2B0142
S11333003C0160E027C3F5014081F601EC51FE4F1A
S11333106081C6010E946F4D2B013C0160E01AC31D
S1133320F601EC52FE4F80819181892B59F4C6013C
S11333300E94A0058B019C01611571058105910511
S113334009F0B1C3F601EC52FE4FA081B181F50141
S1133350608180E019C0ED91FC911197282F30E035
S1133360A901440F551F240F351FE20FF31F90814D
S1133370691309C0F60164AB8D919C91FC01E20FC5
S1133380F31F61810BC08F5F13969C91139789176C
S113339028F412969C9112978917E8F2662309F48F
S11333A0C0C240E0C6010E94C4492B013C0160E058
S11333B0D1C2D5016C91C6010E9411042B013C01BC
S11333C0672B682B692B09F0B6C2F5018081D60101
S11333D0D5968C93F601EE5DF94F108260E0BAC287
S11333E08EE1F501DE01119601900D928A95E1F7C7
S11333F0F601E95EF94F1082EA59F2400081118129
S113340022813381E95AF14040815181BE016F5FCD
S11334107F4FC6010E94C16A2B013C0161157105F1
S113342081059105A1F5F5018081813021F5F60131
S1133430EE5DF94F808181110DC0D5011C966C9110
S1133440C6010E9411048B019C016115710581055F
S1133450910509F5BE016F5F7F4FC6016ADB2B0141
S11334603C016115710581059105C9F481E0F601FE
S1133470E95EF94F8083F601A2A9B3A98EE1FE01AA
S1133480319601900D928A95E1F760E063C2752D43
S1133490862D972D1EC3712F822F932F1AC3752D3E
S11334A0862D972D16C3F0E1FF1203C0812C912CB9
S11334B005C00F2EFEE18F2E912CF02D20E030E080
S11334C026C080E1F81210C0D5018D919C91E80FBF
S11334D0F91F81E090E0008002C0880F991F0A94D0
S11334E0E2F7882A992A11C0D5018D919C91E80FA1
S11334F0F91F81E090E0008002C0880F991F0A94B0
S1133500E2F780959095882299222F5F3F4FF5012D
S113351084819581F9012817390780F5D501129620
S11335208D919C9113972817390758F200E010E009
S1133530412C512C320127C0D501ED91FC91E00FB3
S1133540F11F608181E090E0062E02C0880F991F70
S11335500A94E2F78821992141E0892B09F440E09B
S1133560C6010E9456552B013C0161157105810568
S1133570910509F09CC20F5F1F4F05C000E010E0E9
S1133580412C512C3201F5018481958108171907CA
S113359098F260E0DFC1D5016C91C6010E94974D9D
S11335A02B013C01672B682B692B09F0C6C1F5017F
S11335B08081F601EF57FC4F808360E0CBC1D501D9
S11335C06C91C6010E949A4D2B013C0160E0C2C17E
S11335D00F2EF2E13F2EF02D60E0412C512C3201F0
S11335E0B9C16894332431F860E0412C512C320184
S11335F0B1C1312C60E0412C512C3201ABC13324D8
S1133600339460E0412C512C3201A4C168943324DA
S113361034F860E0412C512C32019CC10F2EF1E1B1
S11336203F2EF02D60E0412C512C320193C1F50165
S11336308081F601E950FA4F808360E0412C512CDF
S1133640320188C10F2EF3E13F2EF02D60E0412CB2
S1133650512C32017FC10F2EF5E13F2EF02D60E099
S1133660412C512C320176C10F2EF6E13F2EF02D64
S113367060E0412C512C32016DC10F2EF7E13F2E39
S1133680F02D60E0412C512C320164C1B501C6011A
S11336900E94414B2B013C01672B682B692B09F0DD
S11336A04EC181E0F601EE5DF94F808360E052C1C6
S11336B00F2EF9E0EF2EF02D6894332431F860E0FA
S11336C0412C512C320146C10F2EFAE0EF2EF02D81
S11336D06894332431F860E0412C512C32013AC112
S11336E00F2EFBE0EF2EF02D6894332431F860E0C8
S11336F0412C512C32012EC10F2EF4E1EF2EF02D6E
S11337006894332431F860E0412C512C320122C1F9
S11337100F2EF5E1EF2EF02D6894332431F860E09C
S1133720412C512C320116C10F2EF4E1EF2EF02D55
S11337306894332432F860E0412C512C32010AC1E0
S113374061E2412C512C320105C1F5018081918146
S1133750A281B381F601E852FE4F80839183A28354
S1133760B38360E0412C512C3201F4C0D50114968E
S11337702D913C9115974D915C9161E0C6010E9499
S1133780114E2B013C0160E0E5C0A114B10409F421
S1133790D8C0D5011196ED91FC9112972481358101
S11337A0408151816C91C6010E94114E2B013C0154
S11337B060E0D0C0F5014081618121E0C6010E9432
S11337C01F5D2B013C0160E0C5C06BE0C6010E9497
S11337D00B632B013C0160E0BDC061EC7FE0C601DE
S11337E00E94D7662B013C0160E0B4C0D5018D91E5
S11337F09C91F601EB5EF94F9183808360E0412C4C
S1133800512C3201A7C0AE014F5F5F4F65E0C60186
S11338100E9472672B013C01672B682B692BD9F43A
S1133820B1E5FB1621F0E2E5FE1639F00BC0D50137
S11338308D919C919B838A8305C0F501908181E0E1
S113384089278983AE014F5F5F4F65E0C6010E94FF
S1133850BE672B013C0160E07DC0D5018D919C9138
S1133860F601E75EF94F9183808360E0412C512C8F
S1133870320170C0F501408151816281738122E07F
S1133880C6010E94644C2B013C0160E063C0D50179
S11338904D915D916D917C9123E0C6010E94644C31
S11338A02B013C0160E056C0B501C6010E94EC0545
S11338B02B013C0160E04EC060E00F2EF9E04F2E7A
S11338C0512C612CF3E07F2EF02D44C06AE0412C92
S11338D0512C32013FC060E03DC060E0412C512CCE
S11338E0320138C060E0412C512C320133C060E019
S11338F031C060E00F2EF6E04F2E512C612CF3E026
S11339007F2EF02D27C060E025C060E023C060E07A
S11339100F2EF6E04F2E512C612CF3E07F2EF02D6C
S113392019C060E00F2EF4E04F2E512C612CF3E00F
S11339307F2EF02D0FC060E00DC060E00BC060E092
S113394009C060E00F2E44244394512C612CF3E011
S11339507F2EF02D8F2D90E0FC013797E836F1058E
S113396008F0A9C0E257FE4F0C94D074A501C6011B
S11339700E949D4DAEC0A114B10449F4F601E75074
S1133980FA4F1082642D752D862D972DA2C0F50156
S113399080819181A281B3818F3FFFEF9F07AF07A1
S11339A0BF070CF48DC0F501448155816681778190
S11339B04F3FFFEF5F076F077F070CF486C08F3F11
S11339C09F4FAF4FBF4F79F44F3F5F4F6F4F7F4FC4
S11339D051F4F601E750FA4F81E08083642D752D90
S11339E0862D972D76C09E012F5F3F4F4E2D532D70
S11339F06E2DC6010E94CD578B019C016115710586
S1133A008105910561F581E0F601E750FA4F808365
S1133A10F50180819181A281B3818F3F9F4FAF4F88
S1133A20BF4F49F489819A81AB81BC81F5018083C0
S1133A309183A283B383F50184819581A681B781A3
S1133A408F3F9F4FAF4FBF4F71F48D819E81AF81E8
S1133A50B885F50184839583A683B78304C0712F49
S1133A60822F932F36C095014E2D532D6E2DC601F6
S1133A700E94A44E2EC069E070E080E093E029C06B
S1133A80752D862D972D25C064E070E080E093E0CD
S1133A9020C067E075E080E092E01BC067E075E05D
S1133AA080E092E016C0712F822F932F12C0752DE3
S1133AB0862D972D0EC0642D752D862D972D09C04A
S1133AC06EE070E080E093E004C06EE070E080E0BF
S1133AD093E0A2960FB6F894DEBF0FBECDBFDF9180
S1133AE0CF911F910F91FF90EF90DF90CF90BF90F7
S1133AF0AF909F908F907F906F905F904F903F908A
S1133B002F900895AF92BF92CF92DF92EF92FF92DF
S1133B100F931F93CF93DF93FC01EA58FF4F20814B
S1133B20222309F4B8C1E75BFB4F20812111B3C103
S1133B30EC015C0182E4A81A8CEFB80AE750F1406A
S1133B40008111812281338142E2B501CE010E94BC
S1133B5073336B017C01672B682B692B09F448C014
S1133B6091E0C91696E0D906E10492E0F90609F459
S1133B703FC0FE01ED53FC4F8081843021F4339724
S1133B8080818F32A9F1FE01EF50FA4F1082E75283
S1133B90F240408150E060E070E0742F66275527C2
S1133BA044273196808190E0A0E0B0E0DC019927C1
S1133BB08827482B592B6A2B7B2B3196808190E0E8
S1133BC0A0E0B0E0BA2FA92F982F8827482B592BB3
S1133BD06A2B7B2B31968081482BC455DC4F48835C
S1133BE059836A837B836C2D7D2D8E2D9F2DA0C1DF
S1133BF0C114D104E104F10439F4FE01E154FC4F91
S1133C008081882309F45AC1FE01E054FC4F80816D
S1133C108F3211F0823249F491E0C91696E0D90648
S1133C20E10492E0F90609F44EC18F3269F5FE0110
S1133C30ED53FC4F8081823061F4E85CFD4F81E0FC
S1133C408083CF50DA4F18826FE070E080E093E019
S1133C506FC1833009F43CC1843009F03EC1FE01D8
S1133C60E154FC4F408150E04B5F5F4FB501CE0102
S1133C7085589F4F0E944E6AC658DF4F188268E0ED
S1133C8070E080E093E054C1823209F05DC0FE012F
S1133C90E154FC4F8081873009F05DC03296808109
S1133CA0811159C031968081811155C0319620818E
S1133CB03196808190E0982F882731963081832B2C
S1133CC020FF10C1E95CFD4F2081222309F40FC1BC
S1133CD086FF12C1E653F240808190E0A0E0B0E09C
S1133CE0782F6627552744273196808190E0A0E0FD
S1133CF0B0E0DC0199278827842B952BA62BB72BC2
S1133D003196408150E060E070E0762F652F542FAB
S1133D104427842B952BA62BB72B31962081822BFD
S1133D20EC5CFD4F4081518162817381841795075A
S1133D30A607B70708F4E5C0CE010E94306768E023
S1133D4070E080E093E0F4C0FE01E154FC4F808118
S1133D50863008F4DBC08091DE0B811107C0FE01C0
S1133D60E35FF94F8081811103C003C081E001C08A
S1133D7081E0E82FF0E03596EA0DFB1D908194FF79
S1133D8003C01AE0180F02C018E0180FF501E10F84
S1133D90F11D8081813091F010F1823009F0BBC0B7
S1133DA0FE01E858FF4F81E08083C254DB4F89E075
S1133DB0888360E070E080E090E0BAC0FE01E858DB
S1133DC0FF4F1082E95BFB4F81E08083C254DB4FDD
S1133DD08BE0888360E070E080E090E0A9C0FE01A1
S1133DE0EF50FA4F1082E553F24011821082E75CE3
S1133DF0FD4F8081823091F0AF0162E1CE010E94DB
S1133E007E6B6B017C01611571058105910509F0DB
S1133E1087C082E0FE01EB50FA4F8083EAA9FBA938
S1133E2087859089892B61F189E0810F9501280F9D
S1133E30311DF9013297808190E0982F88273196BF
S1133E402081822BFE01ED53FA4F20813181820FB4
S1133E50931F918380838BE0810FA80EB11CF50121
S1133E603297808190E0982F882731962081822B89
S1133E70CB53DA4F28813981820F931F998388832A
S1133E80C114D104E104F10409F04EC068E070E00B
S1133E9080E093E04DC0FC01E454FC4F80819181AB
S1133EA0181619062CF420E070E080E090E004C0BD
S1133EB028E070E080E093E0622F3AC060E074E0B4
S1133EC080E092E035C06C2D7D2D8E2D9F2D30C06D
S1133ED064E076E080E092E02BC068E070E080E08F
S1133EE093E026C068E070E080E093E021C068E0E1
S1133EF070E080E093E01CC068E070E080E093E054
S1133F0017C068E070E080E093E012C064E070E005
S1133F1080E091E00DC064E070E080E091E008C0D2
S1133F207D2D8E2D9F2D04C06C2D7D2D8E2D9F2DCE
S1133F30DF91CF911F910F91FF90EF90DF90CF9081
S1133F40BF90AF9008954F925F926F927F92AF921D
S1133F50BF92CF92DF92EF92FF920F931F93CF9372
S1133F60DF931F92CDB7DEB76C0120E8C21A2EEFA3
S1133F70D20A8C0102541C4FFC01E454FC4F2081F2
S1133F803181232B09F4D1C05B017C01ED5FFE4F2D
S1133F908081811150C0E954F4408081882359F014
S1133FA0C701B0DD2B013C01611571058105910547
S1133FB009F441C0BFC08091D60B9091D70B0196F4
S1133FC09093D70B8093D60B89E2F8018283F70193
S1133FD0E75EF94F208131818091D60B9091D70B08
S1133FE002969093D70B8093D60BF80133832483E6
S1133FF08091D60B9091D70B01969093D70B809319
S1134000D60B86E08983158246E0B801C7010E9479
S113401088362B013C01611571058105910509F074
S11340208DC0F701EA53FC4F8081E750FF4F808336
S113403089E031978083F701E254FB4F80818983C3
S1134040329690819232B1F59091DE0B992321F052
S11340508F5F8983E1E001C0E0E0D701AA58BF4F38
S11340608C91882321F0AE2FB0E0189603C0AE2FB8
S1134070B0E01596A00FB11F4C9150E0542F442787
S1134080882319F0F0E0399602C0F0E03696E00F8C
S1134090F11F8081482B9E012F5F3F4FB501C7015F
S11340A00E94CD462B013C016115710581059105E6
S11340B009F048C08981F701E254FB4F8083B601BF
S11340C0C5010E943A48F701E154FB4F80818150B9
S11340D08083E954F440808181111DC0EA5BFC4F68
S11340E080819181019791838083892B51F4C70149
S11340F00E94AA432B013C016115710581059105BC
S113410029F5F701E454FC4F80819181892B19F43E
S1134110E45CFD4F1082F501EA5AFC4FF182E08223
S113412060E070E080E090E014C068E070E080E05F
S113413093E00FC0752D862D972D0BC0752D862D00
S1134140972D07C0752D862D972D03C0752D862DAF
S1134150972D0F90DF91CF911F910F91FF90EF90CA
S1134160DF90CF90BF90AF907F906F905F904F9013
S113417008950F931F93CF93DF93CDB7DEB7A09726
S11341800FB6F894DEBF0FBECDBF22E0DC0114965B
S11341902C93FC01E05EF94F40E357E651834083E2
S11341A0329748E156E151834083329745EC57E01A
S11341B051834083E859F24030E1DF011D923A9582
S11341C0E9F7E45BF14040E052EC61E070E04083E9
S11341D0518362837383EE54FE4F108271973FEFD5
S11341E03083709635E03083E55AF14048E853E176
S11341F060E070E04083518362837383349648EEB9
S113420053E060E070E040835183628373833496AB
S11342102083E852FE4F11821082ED5FFE4F108220
S1134220E750F1401082118212821382E45CFD4F48
S11342301082EC51F4401082118212821382E35EE8
S1134240FB4F208332961082319610823196108271
S1134250369721E02083F0971182108232961182E2
S113426010823296208331961082319610829C01FE
S113427020533A4F319631832083329648E050E000
S11342805183408322503109F90111821082B29680
S1134290108231961082E554F2401082118212820B
S11342A01382E85DF14011821082329611821082ED
S11342B0E45EFB4F10823896108260E2E0E2F1E0A7
S11342C0DE01119601900D926A95E1F7D9014D93A3
S11342D05C9340E050E01DC0FC01E653FA4F0190AE
S11342E0F081E02D9A01220F331F220F331FE20FBA
S11342F0F31FA1E0B0E0AC0FBD1FA20FB31F0D91DF
S11343001D912D913C9100831183228333834F5F50
S11343105F4F4830510504F30E948B6CA0960FB692
S1134320F894DEBF0FBECDBFDF91CF911F910F91E7
S113433008959F92AF92BF92CF92DF92EF92FF9235
S11343400F931F93CF93DF93CDB7DEB728970FB6A4
S1134350F894DEBF0FBECDBFFC018B019080A1801D
S1134360B280C380D480E580F680B781292D3A2DB0
S11343704B2D5C2D6D2D7E2D8F2D9B2FA0E20E9449
S11343802C7581F020383105410551056105710511
S11343908105910509F4F1C0A0E10E942C7509F092
S11343A00DC1EBC088E07B96DE01119601900D9261
S11343B08A95E1F78091D60B9091D70B0196909353
S11343C0D70B8093D60BF8012081318184819581AC
S11343D0AC014F5F5F4F55834483D901A80FB91FC8
S11343E0FD80FC9229813A814B818091D60B90917A
S11343F0D70B03969093D70B8093D60B6081718172
S113440084819581DC011196B583A483DB01A80F17
S1134410B91F4C934081518184819581BC016F5FA8
S11344207F4F75836483DA01A80FB91F3C934081E1
S1134430518184819581BC016F5F7F4F7583648353
S1134440DA01A80FB91F2C938F2D90E0FC0131974E
S1134450EB30F10508F08CC0EA50FE4F0C94D07498
S113446060E070E0CB01AEC08091D60B9091D70B89
S113447001969093D70B8093D60BD8012D913C9144
S1134480119714968D919C911597AC014F5F5F4FD6
S113449015965C934E931497F901E80FF91F2E813A
S11344A020838091D60B9091D70B01969093D70BD4
S11344B08093D60B2D913C91119714968D919C91DC
S11344C01597AC014F5F5F4F15965C934E9314970D
S11344D0F901E80FF91F2F81208360E070E0CB0120
S11344E071C08091D60B9091D70B01969093D70B06
S11344F08093D60BF8012081318184819581AC01B0
S11345004F5F5F4F55834483F901E80FF91F2E81F4
S1134510208360E070E0CB0155C08091D60B909170
S1134520D70B01969093D70B8093D60BD8012D917E
S11345303C91119714968D919C911597AC014F5F06
S11345405F4F15965C934E931497F901E80FF91F8A
S11345502885208360E070E0CB0134C0F8018481B9
S1134560958103979583848360E070E0CB012AC032
S113457061E070E080E093E025C0238D8091D60B4C
S11345809091D70B01969093D70B8093D60BD801BB
S11345904D915C91119714968D919C911597BC0146
S11345A06F5F7F4F15967C936E931497FA01E80F13
S11345B0F91F208360E070E0CB0104C061E070E08B
S11345C080E093E028960FB6F894DEBF0FBECDBF0F
S11345D0DF91CF911F910F91FF90EF90DF90CF90DB
S11345E0BF90AF909F9008959F92AF92BF92CF9249
S11345F0DF92EF92FF920F931F93CF93DF93CDB788
S1134600DEB72F970FB6F894DEBF0FBECDBFFC0107
S11346108B019080A180B280C380D480E580F68035
S1134620B781292D3A2D4B2D5C2D6D2D7E2D8F2D8F
S11346309B2FA0E20E942C7559F0203831054105CA
S11346405105610571058105910509F4B1C1D1C117
S11346508FE07B96DE01119601900D928A95E1F729
S11346608091D60B9091D70B01969093D70B8093A2
S1134670D60BF8012081318184819581AC014F5F93
S11346805F4F55834483F901E80FF91F298520837F
S113469039814A815B818091D60B9091D70B039627
S11346A09093D70B8093D60BD8016D917C91119781
S11346B014968D919C911597FC0131961596FC9357
S11346C0EE931497FB01E80FF91F50836D917C91D1
S11346D0119714968D919C911597FC01319615961E
S11346E0FC93EE931497FB01E80FF91F40834D915F
S11346F05C91119714968D919C911597BC016F5FF5
S11347007F4F15967C936E931497FA01E80FF91F67
S11347103083822F90E0FC013197EA30F10508F0F4
S11347203EC1EF5FFD4F0C94D07460E070E0CB01AC
S113473064C18091D60B9091D70B01969093D70BBF
S11347408093D60BF8014081518184819581BC010D
S11347506F5F7F4F75836483FA01E80FF91F3A8511
S113476030838091D60B9091D70B01969093D70B01
S11347708093D60BD8014D915C91119714968D912D
S11347809C911597BC016F5F7F4F15967C936E9338
S11347901497FA01E80FF91F3B853083233009F0A1
S11347A003C12D813E818091D60B9091D70B029647
S11347B09093D70B8093D60B4D915C9111971496DF
S11347C08D919C911597BC016F5F7F4F15967C93DB
S11347D06E931497FA01E80FF91F30834D915C91A1
S11347E0119714968D919C911597BC016F5F7F4F23
S11347F015967C936E931497FA01E80FF91F2083A2
S11348002F8138858091D60B9091D70B0296909387
S1134810D70B8093D60B4D915C91119714968D9183
S11348209C911597BC016F5F7F4F15967C936E9397
S11348301497FA01E80FF91F30834D915C91119799
S113484014968D919C911597BC016F5F7F4F1596BF
S11348507C936E931497FA01E80FF91F208360E0AC
S113486070E0CB01CAC08091D60B9091D70B019612
S11348709093D70B8093D60BF801208131818481EA
S11348809581AC014F5F5F4F55834483F901E80F75
S1134890F91F2C8520838091D60B9091D70B01961C
S11348A09093D70B8093D60BD8012D913C911197FF
S11348B014968D919C911597AC014F5F5F4F15969F
S11348C05C934E931497F901E80FF91F2D8520830B
S11348D060E070E0CB0191C08091D60B9091D70B32
S11348E001969093D70B8093D60BF80120813181E8
S11348F084819581AC014F5F5F4F55834483F901F7
S1134900E80FF91F2A85208360E070E0CB0175C0B1
S11349108091D60B9091D70B01969093D70B8093EF
S1134920D60BD8012D913C91119714968D919C91A1
S11349301597AC014F5F5F4F15965C934E93149798
S1134940F901E80FF91F2E8520838091D60B9091F1
S1134950D70B01969093D70B8093D60B2D913C9156
S1134960119714968D919C911597AC014F5F5F4FF1
S113497015965C934E931497F901E80FF91F2F8550
S1134980208360E070E0CB0138C0F8018481958118
S113499003979583848360E070E0CB012EC061E0CF
S11349A070E080E093E029C060E070E0CB0125C0B6
S11349B0238D8091D60B9091D70B01969093D70BB2
S11349C08093D60BD8014D915C91119714968D91DB
S11349D09C911597BC016F5F7F4F15967C936E93E6
S11349E01497FA01E80FF91F208360E070E0CB010F
S11349F004C061E070E080E093E02F960FB6F89475
S1134A00DEBF0FBECDBFDF91CF911F910F91FF90FD
S1134A10EF90DF90CF90BF90AF909F900895DC010E
S1134A20892B19F18C918330A1F0823001F180E05F
S1134A3008951196ED91FC911297220F331FE20F06
S1134A40F31F0190F081E02D9081923091F08F5FFF
S1134A5001C080E0282F30E015964D915C911697A7
S1134A602417350730F380E0089580E0089581E04D
S1134A70089581E008952F923F924F925F926F9232
S1134A807F928F929F92AF92BF92CF92DF92EF92DA
S1134A90FF920F931F93CF93DF93CDB7DEB7C85127
S1134AA0D1400FB6F894DEBF0FBECDBF3C01C35F4B
S1134AB0DE4F79836883CD50D1401A012901C15F4B
S1134AC0DE4F19830883CF50D140CD5EDE4FC882BC
S1134AD0D982EA82FB82C351D140CF5EDE4FB982D4
S1134AE0A882C151D140D8018C918983F50180817C
S1134AF08A83F301EE57FC4F8081853009F057C358
S1134B00DB018C91883008F04AC1EA5AF140808078
S1134B109180A280B380FA01C484E584F684CE0136
S1134B2002969F938F9307E110E0CD5EDE4F2881BC
S1134B303981C351D140AE014F5F5F4FB201C30110
S1134B400E94E104C75FDE4F688379838A839B8375
S1134B50C950D140C35FDE4FA881B981CD50D14047
S1134B60EC910F900F908E2F90E08830910508F013
S1134B7020C1FC01E55FFD4F0C94D074D1011F9658
S1134B80ED91FC91509721813281F90107AD40E00C
S1134B9050E0BE016F5F7F4FC2010E945A3D80E02A
S1134BA009C1D1011F96ED91FC9150978181843008
S1134BB028F081E0D301A850BA4F8C93E280F380AF
S1134BC004811581812CA12CC680218140ED57E000
S1134BD0BE016F5F7F4FC2010E94B23D80E0EAC018
S1134BE0F101A784B088D5011296ED90FD900D9146
S1134BF01C911597C12C11962C9140E050E0BE01F8
S1134C006F5F7F4FC2010E945B3E40E050E024C0D2
S1134C10898121E0280FB201680F711DD501169614
S1134C20ED91FC911797CA01880F991FE80FF91F9E
S1134C303181FB01308331E0320F3983F201E20F1D
S1134C40F11D16962D913C911797D901A80FB91F04
S1134C508C9180834F5F5F4FD5011A968D919C9103
S1134C601B9748175907A0F280E0A4C0D1011F96F2
S1134C70ED91FC915097C580D680E780F084038144
S1134C8014812181328140E050E0BE016F5F7F4F8B
S1134C90C2010E94043F80E08DC0D1011F96ED91B6
S1134CA0FC915097018112812381348140E050E0CE
S1134CB0BE016F5F7F4FC2010E94953F80E07AC0C2
S1134CC0D1011F96ED91FC915097A284B384868004
S1134CD09780C12CD12CE280F380048115811F922E
S1134CE01F921F921F921F921F92218140E050E059
S1134CF0BE016F5F7F4FC2010E94FD3F0F900F9076
S1134D000F900F900F900F9080E054C0D1011F9628
S1134D10ED91FC915097838594850181A380B480A3
S1134D20C580D68010E020E030E01F921F921F92D1
S1134D301F921F921F9240854F9347814F931F925A
S1134D401F929F938F93E28040E050E0BE016F5F1B
S1134D507F4FC2010E9479410FB6F894DEBF0FBEA7
S1134D60CDBF80E027C0D1011F96ED91FC915097F3
S1134D7002811381248135811F921F92812C912CF1
S1134D805401C680E18040E050E0BE016F5F7F4F78
S1134D90C2010E94DA420F900F9080E00BC081E0C4
S1134DA0C75FDE4F188219821A821B82C950D14014
S1134DB001C080E0882309F486C3C35FDE4FE88125
S1134DC0F981CD50D14080818A3121F0873409F4B2
S1134DD09BC09EC381E08093DC0BD1011F960D9094
S1134DE0BC91A02DC35FDE4FB983A883CD50D140C1
S1134DF018968C911897823089F594968C90949794
S1134E0095969C91959796962C91969797964C91FA
S1134E10912CA12CB12CB82CAA2499248824892F54
S1134E2090E0A0E0B0E0DC0199278827882999293F
S1134E30AA29BB2950E060E070E0762F652F542F3B
S1134E404427842B952BA62BB72B822BF301E852F6
S1134E50FE4F80839183A283B38311C0C35FDE4F6F
S1134E60E881F981CD50D14082859385A485B585AB
S1134E70F301E852FE4F80839183A283B383F3014D
S1134E80E852FE4F80809180A280B380D1011C96AD
S1134E90CC901C971D96ED90FC901E97CE01029627
S1134EA09F938F9307E110E0CD5EDE4F2881398117
S1134EB0C351D140AE014F5F5F4FB201C3010E94A5
S1134EC0E104C75FDE4F688379838A839B83C9507B
S1134ED0D140C35FDE4FE881F981CD50D140A78036
S1134EE0E280F38004811581812CC680218140ED0C
S1134EF057E0BE016F5F7F4FC2010E94B23D109226
S1134F00DC0B0F900F90DFC2C35FDE4FA881B98125
S1134F10CD50D14013968D919C9114978130910579
S1134F20F9F41196ED91FC91129760817181CF5E35
S1134F30DE4FA880B980C151D140CD5EDE4FC8801C
S1134F40D980EA80FB80C351D140C15FDE4F088124
S1134F501981CF50D1409201A101C3018CDDF0C26F
S1134F60029709F0DAC2C35FDE4FA881B981CD5040
S1134F70D1401196ED91FC911297A281B3818C914D
S1134F80813009F0CFC20190F081E02D8081823020
S1134F9011F08111CCC2F301E35FF94F81E080830A
S1134FA0C35FDE4FA881B981CD50D1401196ED91F8
S1134FB0FC91129780819181C95EDE4F9983888329
S1134FC0C751D1400280F381E02D86E03196DE01A5
S1134FD0AE5FBE4F01900D928A95E1F7D1011D9607
S1134FE0ED90FC901E97F301E852FE4F8080918073
S1134FF0A280B380CE0102969F938F931C96CC908F
S113500007E110E0CD5EDE4F28813981C351D140E4
S1135010AE014F5F5F4FB201C3010E94E104C35F61
S1135020DE4FA881B981CD50D1401196ED91FC910C
S113503012970190F081E02D80810F900F908823CA
S113504009F445C0823009F052C08BE0C95EDE4FDE
S1135050E881F981C751D1403196DE011396019060
S11350600D928A95E1F7EC80FD800E811F81C12CA1
S11350702B81CD5EDE4F48815981C351D140BE01A1
S11350806F5F7F4FC2010E945B3E20E030E019C099
S1135090898141E0480FD201A80FB11DE885F98547
S11350A0C901880F991FE80FF91F81818C9381E052
S11350B0840F8983D201A40FB11D80818C932F5F4B
S11350C03F4F8C859D852817390710F310C0218127
S11350D03281F90107ADCD5EDE4F48815981C3515C
S11350E0D140BE016F5F7F4FC2010E945A3D809143
S11350F0D60B9091D70B01969093D70B8093D60B38
S1135100898121E0280FF201E80FF11DCE5FDE4F07
S11351108881C250D1408083CD5FDE4F3881C35037
S1135120D140CC5FDE4F4881C450D140CB5FDE4FCD
S11351305881C550D140CA5FDE4F6881C650D14006
S11351408091D60B9091D70B04969093D70B8093B4
S1135150D60B81E0820FF201E20FF11D608391E032
S1135160980FF201E80FF11D508381E0890FF201DD
S1135170E90FF11D408321E0280FF201E80FF11D32
S113518030838091D60B9091D70B01969093D70BD7
S11351908093D60B81E0820F8983F201E20FF11D27
S11351A0C95FDE4F8881C750D14080838CC1DA014A
S11351B01C96CC901C971D96ED90FC901E97CE01EA
S11351C002969F938F93812C912C540104E010E05C
S11351D0CD5EDE4F28813981C351D140AE014F5F8E
S11351E05F4FB201C3010E94E104F301E55EF94F90
S11351F0908181E00F900F9090FF80E08093D80B16
S1135200C35FDE4FE881F981CD50D140808188347D
S113521009F49CC0893409F08FC189818D5FC85F0E
S1135220DE4F8883C850D140D1011F966D907C9089
S11352305097C3010196F3012385CA5FDE4F19829B
S11352401882C650D140253239F59E012D5F3F4F5B
S1135250CE5FDE4F39832883C250D1402FEF30E038
S1135260CC5FDE4F39832883C450D140BE016E5FCA
S11352707E4F5FD84B015C01611571058105910575
S113528009F05BC0D1011D968D919C911E97C7DBDF
S1135290882309F456C021E2F301E484F5840685E9
S11352A01785A12CC088CD5EDE4F48815981C3513A
S11352B0D140BE016F5F7F4FC2010E942569D101B9
S11352C01F96ED91FC91509721853285AE01485F80
S11352D05E4FBE016F5F7F4FC2010E94F6679E0161
S11352E02E5F3E4FAE01485F5E4FBE016F5F7F4F42
S11352F0C2010E942E68C75FDE4F688379838A8368
S11353009B83C950D140672B682B692B09F4D9C002
S1135310C75FDE4F6881C950D140C65FDE4F7881D8
S1135320CA50D140C55FDE4F8881CB50D140C45FA5
S1135330DE4F9881CC50D14003C1792D8A2D9B2D0D
S1135340FFC061E070E080E093E0FAC089818D5F86
S1135350C85FDE4F8883C850D140F10167847088EC
S1135360C3010196D30151962C91CA5FDE4F198275
S11353701882C650D140253229F59E012D5F3F4F3A
S1135380CE5FDE4F39832883C250D1402FEF30E007
S1135390CC5FDE4F39832883C450D140BE016E5F99
S11353A07E4F22D94B015C01611571058105910580
S11353B009F069C0F1018585968531DB882309F4FC
S11353C066C021E2D3015296ED90FD900D911C919F
S11353D05597CD5EDE4F48815981C351D140BE01FE
S11353E06F5F7F4FC2010E948968D1011F96ED91C2
S11353F0FC91509721853285AE01485F5E4FBE0116
S11354006F5F7F4FC2010E94F6679E012E5F3E4F81
S1135410AE01485F5E4FBE016F5F7F4FC2010E94C5
S11354202E68C75FDE4F688379838A839B83C95064
S1135430D140672B682B692B79F580E090E01AC086
S11354402091D60B3091D70B2F5F3F4F3093D70B62
S11354502093D60B298131E0320F3983D201A20F78
S1135460B11DF30126893789F901E80FF91F20815D
S11354702C930196D3015A962D913C915B978217F8
S11354809307F0F21EC0792D8A2D9B2D59C061E03F
S113549070E080E093E054C0C75FDE4F6881C9507C
S11354A0D140C65FDE4F7881CA50D140C55FDE4F20
S11354B08881CB50D140C45FDE4F9881CC50D1401D
S11354C03FC01092D80B8981C15FDE4FE881F9811A
S11354D0CF50D14080838A81CF5EDE4FA881B981CD
S11354E0C151D1408C93C75FDE4F6881C950D14010
S11354F0C65FDE4F7881CA50D140C55FDE4F8881D8
S1135500CB50D140C45FDE4F9881CC50D14018C0FD
S113551061E070E080E093E013C069E071E080E056
S113552092E00EC069E071E080E092E009C069E0B9
S113553071E080E092E004C061E070E080E093E01C
S1135540C85EDE4F0FB6F894DEBF0FBECDBFDF914D
S1135550CF911F910F91FF90EF90DF90CF90BF906C
S1135560AF909F908F907F906F905F904F903F90FF
S11355702F9008952F923F924F925F926F927F9255
S11355808F929F92AF92BF92CF92DF92EF92FF924F
S11355900F931F93CF93DF93CDB7DEB7C853D1409A
S11355A00FB6F894DEBF0FBECDBFD9019E012F5FA9
S11355B03F4F790126E0F70111922A95E9F7FC01A2
S11355C0408B518B628B738BEE5DF94F30813323AB
S11355D099F0F8012081223031F0FC01EA58FF4FA4
S11355E02081211109C0FC01EE5DF94F108263E0B6
S11355F070E080E093E0D0C24801C95CDE4FB9831B
S1135600A883C753D1401A012B013C01D8018C91C6
S1135610823009F0E5C01C968C91813208F0D6C026
S1135620CA5CDE4F8883C653D140CB5CDE4F88838F
S1135630C553D140CE018D5E9E4FCD5CDE4F998324
S11356408883C353D14020E030E02CC0CD5CDE4FD2
S1135650E881F981C353D140BF01620F731FF40184
S1135660A681B781C901880F991FA80FB91F0D9092
S1135670BC91A02D1C964C91DB014C930680F781C4
S1135680E02DE80FF91F0190F081E02D4585568546
S1135690E1E0F0E0EC0FFD1FE80FF91F538B428BA4
S11356A02F5F3F4FF4018485482F50E024173507BE
S11356B06CF2882349F00680F781E02D0190F08197
S11356C0E02D8081813039F0F301EA58FF4F808169
S11356D0882309F485C0B401C3010E9499156B01A4
S11356E07C01611571058105910509F069C081E0AE
S11356F0F301E95EF94F8083EF55F2402082318255
S113570042825382E254F3408081811125C0BE015C
S1135710655F7F4FCE010F960E945A6A4F85588964
S113572069897A89F301E855FC4F40835183628388
S113573073838B859C85AD85BE85349780839183E7
S1135740A283B3833C9640835183628373833496EC
S113575080839183A283B383F301E75EF94F2081B1
S11357603181AE01495F5F4F5A016101CE01439619
S11357707C0103E010E0445D5E4F62E2C3010E94DD
S1135780635F262F372FC95CDE4FA881B981C753C9
S1135790D140109701F1CD90DD90ED90FC901397DE
S11357A04F81588569857A854C0D5D1D6E1D7F1D61
S11357B0FD014083518362837383622F732FECC195
S11357C0611571058105910559F006C066E070E028
S11357D080E093E0E1C1E0C17D2D8E2D9F2DDCC1E1
S11357E0D40157968C915797F301E758FF4F808364
S11357F051968C915197ED56FA4F808352968C9125
S113580052977097808353968D919D910D90BC9182
S1135810A02D319680839183A283B3837A9680816D
S113582081110CC0B401C3010E9499156B017C0164
S1135830611571058105910509F098C1F301EA58D4
S1135840FF4F808181110DC0F4016485C3010E9462
S113585011046B017C01611571058105910509F045
S113586089C1BE01655F7F4FCE010F960E945A6ABF
S11358704F85588969897A89F301E855FC4F40833B
S11358805183628373838B859C85AD85BE853497F4
S113589080839183A283B3833C9640835183628344
S11358A07383349680839183A283B3833496208256
S11358B0318242825382D4011F966D917C9150971C
S11358C06115710509F046C0E254F34080818823D4
S11358D069F181E08E8B8D8BFE01ED5CFE4FFC8BBC
S11358E0EB8B1C968C911C9780831D968D919C91BB
S11358F01E97CD5EDE4F99838883C351D140F30157
S1135900E75EF94F20813181FE0137965F01610125
S1135910AE014D5E5E4F7A0103E010E05A9562E2FB
S1135920C3010E94635F4B015C0171C0D4011C96EA
S11359300C911C971D962D913C911E97FE01379654
S11359407F0143E050E0B101C3010E94E13A4B0101
S11359505C015DC082E0CD5CDE4F8883C353D140DF
S11359609E012D5E3E4F5901720161018E010D5C55
S11359701E4F3A95A401C3017ED84B015C01611509
S113598071058105910521F0792D8A2D9B2D04C186
S1135990CD5EDE4F9881C351D140CD5CDE4F88810E
S11359A0C353D140E3E1F0E0EC0FFD1FE90FF11D1B
S11359B0382F391B932F9250908383508C8B9E01E8
S11359C02F5F3F4FA101BE016D5E7F4FC3010E9457
S11359D0FB3B4B015C0189819A81A0E0B0E08F839D
S11359E09887A987BA878B819C81F301ED53FA4F7D
S11359F020813181820F931F918380838D819E81C9
S1135A00329620813181820F931F91838083811488
S1135A1044E09406A10442E0B40641F41F821886CF
S1135A2019861A86812C912C54015BC051E085168D
S1135A305FE79506A10452E0B50609F49FC081E032
S1135A4088169104A104B80609F49DC08114910438
S1135A50A104B10409F445C0F301E450FA4F1082E3
S1135A60BE016D5E7F4FC3010E94C3436B017C0185
S1135A70611571058105910559F54B895C89F3011F
S1135A80E454FC4F20813181240F351F318320835E
S1135A90C95CDE4FA881B981C753D1401097E1F0AA
S1135AA08D919D910D90BC91A02D840F951FA11DEA
S1135AB0B11DC95CDE4FE881F981C753D1408083B1
S1135AC09183A283B383682D792D8A2D9B2D64C085
S1135AD07D2D8E2D9F2D60C0682D792D8A2D9B2DB7
S1135AE05BC08F819885A985BA85F301E454FC4F86
S1135AF020813181280F391F31832083C95CDE4F17
S1135B0028813981C753D1402115310569F0F90144
S1135B104081518162817381840F951FA61FB71F35
S1135B2080839183A283B383F301EA58FF4F90816A
S1135B30992339F0EA5BFC4F21E030E03183208384
S1135B400AC0F301E450FA4F8081882321F01092B7
S1135B50DE0B1092DD0B91111BC01092DE0B109224
S1135B60DD0B682D792D8A2D9B2D16C07D2D8E2D54
S1135B709F2D12C07D2D8E2D9F2D0EC0682D792D49
S1135B808A2D9B2D09C0682D792D8A2D9B2D04C04B
S1135B90682D792D8A2D9B2DC85CDE4F0FB6F894A5
S1135BA0DEBF0FBECDBFDF91CF911F910F91FF904C
S1135BB0EF90DF90CF90BF90AF909F908F907F90A9
S1135BC06F905F904F903F902F900895CF92DF9207
S1135BD0EF92FF920F931F93CF93DF9341155105DB
S1135BE0E1E06E07710578F5FC01E454FC4F118285
S1135BF01082E95FFD4F1182108232961182108269
S1135C00FC0102A913A92115310529F0F90110821B
S1135C10118212821382EC01ADDC6B017C016115EF
S1135C20710581059105A1F4FE01EA58FF4F8081B9
S1135C30882391F0C558DE4F81E088836C2D7D2D3B
S1135C408E2D9F2D0DC067E170E080E093E008C0C9
S1135C507D2D8E2D9F2D04C06C2D7D2D8E2D9F2D81
S1135C60DF91CF911F910F91FF90EF90DF90CF9034
S1135C700895DC0140E050E08FEF9FEF34C09C01B9
S1135C8022953295307F3227207F3227FD01E40FA1
S1135C90F51F7081E72FE295EF702E2BFC01EF2F9B
S1135CA0FF27E295EF70EE0FFF1FE050FF4F80815A
S1135CB0918128273927C90182959295907F982749
S1135CC0807F98277F70872BF901EF2FFF27E295BC
S1135CD0EF70EE0FFF1FE050FF4F208131818227CC
S1135CE093274F5F5F4F262F30E0421753073CF254
