:020000040800F2
:100000009044002001010008090100080B010008CC
:100010000D0100080F010008110100080000000098
:1000200000000000000000000000000013010008B4
:10003000150100080000000017010008FD0200087B
:100040001B0100081B0100081B0100081B01000820
:100050001B0100081B0100081B0100081B01000810
:100060001B0100081B0100081B0100081B01000800
:100070001B0100081B0100081B0100081B010008F0
:100080001B0100081B0100081B0100081B010008E0
:100090001B0100081B0100081B0100081B010008D0
:1000A0001B0100081B0100081B0100081B010008C0
:1000B0001B0100081B0100081B0100081B010008B0
:1000C0001B0100081B0100081B0100081B010008A0
:1000D0001B010008995E00081B0100081B010008B5
:1000E0001B0100081B0100081B010008DFF80CD0F1
:1000F00000F0C2F80048004749680008904400201A
:100100000648804706480047FEE7FEE7FEE7FEE7B1
:10011000FEE7FEE7FEE7FEE7FEE7FEE70D03000869
:10012000ED000008202A04DB203A00FA02F100204A
:1001300070479140C2F1200320FA03F31943904025
:10014000704710B5431A934209D28318881803E008
:1001500010F8011D03F8011D521EF9D210BD40EA2E
:1001600001039B0703D009E008C9121F08C0042A35
:10017000FAD203E011F8013B00F8013B521EF9D21C
:1001800010BDD2B201E000F8012B491EFBD270472E
:100190000022F6E710B513460A4604461946FFF753
:1001A000F0FF204610BD10B5044604E00B7800F8BF
:1001B000013B03B1491C521EF8D2204610BD421C1F
:1001C00010F8011B0029FBD1801A704710B50022DE
:1001D00000E0521C835C8C5CA34201D1002BF8D15F
:1001E000D8B2E1B2401A10BD30B505460020034632
:1001F00000E05B1C934205D2EC5CC85C201A01D184
:10020000002CF6D130BD000070B50F4D00B9286844
:10021000002412E00A4602E09E4203D0521C1378EA
:10022000002BF9D1DAB2224305D02BB124B1002141
:1002300000F8011B04E00446401C0678002EE9D1BA
:100240002860204670BD00000000002030B50B463D
:10025000014600202022012409E021FA02F59D42F6
:1002600005D303FA02F5491B04FA02F52844151ECA
:10027000A2F10102F1DC30BD064C074D06E0E0685A
:1002800040F0010394E8070098471034AC42F6D3DD
:10029000FFF730FFA4740008C474000814490B6809
:1002A0004A68934204D20B689A1A02F5807201E000
:1002B0000B689A1AFF2A84BF4FF0FF3070470A6814
:1002C0000A4410720868013008600868B0F5807F41
:1002D00004BF002008600748017831B9012101708E
:1002E0000548018841F0800101800020704700BF6F
:1002F000540100208C0400200C38014002480168A1
:1003000001310160704700BF4400002082B03648D0
:10031000364A016841F001010160416811404160C5
:100320000168334A11400160016821F480210160B5
:10033000416821F4FE0141604FF41F0181600021FA
:1003400001910091016841F480310160016801F47C
:1003500000310091019901310191009919B9019978
:10036000B1F5A06FF2D10168890354BF00210121CA
:1003700000910099012930D11E490A6842F010020B
:100380000A600A6822F003020A600A6842F0020268
:100390000A604168416041684160416841F48061A0
:1003A0004160416821F47C114160416841F4E811E9
:1003B0004160016841F08071016001688901FCD5EC
:1003C000416821F003014160416841F00201416050
:1003D000416801F00C010829FAD107484FF000618B
:1003E000016002B0704700BF001002400000FFF83B
:1003F000FFFFF6FE0020024008ED00E010B50024EB
:10040000C0E90C4441820182012101700299C0E9D6
:1004100006440375C26080F82C40846280F8244052
:1004200080F8204041600472002010BD10B52C49B6
:100430002C4B2D4C02220271C0F87446C0F878365D
:10044000C0F87C1600214FF4E133C0E9F111C0E996
:10045000F311C0F800320523A0F8C033FF2380F861
:10046000B0334FF47A7380F8011580F81812C0F891
:10047000143241F28833C0F8103280F83C16C0E9DB
:10048000FE1180F84116A0F83F1680F83D264FF087
:100490008072C0F80C12C0F8382600F5C362012340
:1004A000A0F80A36C0F806164FF00813C0F8102658
:1004B0000EA2C0F8143680F80C16C0F8EC13C0E990
:1004C0008111082907D052F82130D0F8104644F89D
:1004D00021300131F5E7BDE8104005F03FBC00BF19
:1004E00041230008A942000879380008802500004F
:1004F00000C2010000100E00004B0000009600003A
:1005000000E100000084030000080700F8B5084A75
:10051000084B094C094D0A4E0A4FC0E90017C0E9C3
:100520000265C0E90443826106F036FB0020F8BD95
:10053000956B0008BD6C0008A56C0008496C0008AC
:10054000816C0008996B00082DE9F04FCBB0DDF805
:1005500050B107469BF80000DDF858918DF82B014B
:1005600099F800000D468DF82A0197F8C113DDF8BF
:1005700054C19A461646052930D12978072900F238
:100580009880B169327DD7F80C3217200DF595743B
:100590008DE81F001FFA8CF30DF22B1238465146DE
:1005A00006F02AFA02462878072800F2C481DFE81C
:1005B00010F008003F0156017A01350188019C01C5
:1005C000B101F069144683680DF22B1193F83F00D6
:1005D00000220090504602F0DDFDABE1B069317DB4
:1005E0000DF59572002404231FFA8CF8CDE9003034
:1005F000CDE9021404920DF22B12384651464346BF
:1006000006F0FAF997F87206DFF860B400F001001E
:100610008BF800002878CE4D482866D0492840F055
:10062000B6809DF82B01002703308DF82901ADF825
:1006300026704C46D6F81C9099F81430252B16D10C
:10064000FF20ADF824000DF12A00089009F1080000
:1006500008A905F07BFF0246002840F07481B069CC
:1006600006F0DBF800282A4600F06D812123D9F836
:10067000180099F81C100DF22B158DE883005046D8
:100680002946424602F0B4FDF0690DF229160369CD
:1006900050462946324602F065FA08AB50462946D4
:1006A000324602F07FFA02460028A14640F04B8114
:1006B00086E047296DD01A2940F08080DFF8BC839E
:1006C000012088F80000F569687D02287ED195F840
:1006D000391095F83800090441EA0060698F21F06B
:1006E000FF021044C9B2014471E09DF82B01ADF83E
:1006F000264003308DF82901F76997F82030252B23
:1007000016D1FF20ADF824000DF12A00089007F162
:10071000080008A905F09CFF0246002840F013815C
:10072000B06906F07AF800282A4600F00C812123EF
:10073000786A0DF22B15009050462946424602F089
:10074000AFFDF0690DF2291603695046294632467D
:1007500002F008FA08AB50462946324602F022FA67
:100760000246002840F0EF80C2490020FA8D9042F6
:1007700026D20A889DF82B3101320A80BA6A125CAF
:1007800001300AF803205A1C8DF82B21EEE72A4687
:10079000D9E0A989B84A022900F0DC80012940F09B
:1007A000D280A8683246016838465346CDE900BC7D
:1007B000CDF80890FFF7C8FE0246C4E0AC4AC2E09C
:1007C00000228BF80020DDF850B1B4E0E969C7F8E9
:1007D0000C12B069327D0DF5957317240DF22B16AE
:1007E000CDE90040CDE9022104931FFA8CF338468D
:1007F0005146324606F000F90746E8682B7A297C14
:100800002A7D00248DE81700504631464FF4FA62E5
:1008100002F0AAFB3A4688F800408CE0F0691446E2
:1008200083680DF22B115046002202F03FFC81E05C
:10083000F0691446037A0022042B24BF012187F8B3
:100840004016C168007CCDE90010CDE902220DF20E
:100850002B1150464FF4FA6202F086FB6AE0F5690C
:100860000026E8682B7A1446CDE900060DF22B111C
:100870005046002202F0C4FBE88A86425AD2286918
:100880009DF82B1100EB460040784A1C0AF8010045
:100890002869D2B210F8160001360AF80200881C46
:1008A0008DF82B01E8E7F069144603894189C06897
:1008B0000022CDE900100DF22B11504602F026FC6B
:1008C00038E0F0691546037AD0E90312C08A0024A3
:1008D000CDE90010CDE902240DF22B115046002283
:1008E000049402F08FFA2A4625E0F0691646417A10
:1008F000D0E90324037AC08ACDE9001202A90025B9
:1009000031C10DF22B1150460022059502F0D4F9A9
:10091000324610E0F0691446C368017A007C002278
:10092000CDE90010CDE902220DF22B115046002234
:1009300002F062F922469DF82B018BF800009DF829
:100940002A0189F8000010464BB0BDE8F08F00BFC7
:1009500001000003A968486800780128F3D10868FD
:10096000007840F002000228EDD1012087F85D06F2
:10097000A8681724D0E90090D7F80C22017CD0F8A1
:100980000CB090F80880B0690791317DCDE9004046
:1009900002A80DF595730EC01FFA8CF60DF22B12FE
:1009A00038465146334606F027F8A86800680178B3
:1009B00011B3079C02292AD1D9E9030799F8083015
:1009C0000021B9F81650CDE900010DF22B11504667
:1009D000324602F015FBD5B178789DF82B11013D18
:1009E0000AF80100481C3A78C0B20AF80020881CB6
:1009F0008DF82B010237EEE783680DF22B1193F887
:100A00003F0032460090504602F0C4FB079C194854
:100A1000DDF858910188013101809DF82B110AF809
:100A2000018002884B1C043202804FEA1B62DBB259
:100A30000AF803208B1C4FEA1B42DBB20AF80320A2
:100A4000CB1C4FEA1B22DBB20AF803200A1DD2B2EC
:100A50000AF802B0028801320280481DC0B20AF8CA
:100A60000040881D8DF82B010022ACE61F000020FD
:100A70000100000322000020090100021B000020E9
:100A8000B0B50446D0F8BC0320B9204600F09CF86D
:100A900000B1B0BD0020C4E9F500C4E9F7000120B1
:100AA000012171290DD04B0904EB830301F01F02D2
:100AB000D3F8D45300FA02F22A43C3F8D423013105
:100AC000EFE70020042807D004EB8001D1F8D423FD
:100AD0000130C1F8C423F5E7002084F8540094F8ED
:100AE000C11384F85510B0BD10B5F44B5C890134C6
:100AF0005C818A700322BDE8104004F0AABD00BFEB
:100B0000F0B5C1B00C46ED4915464A8901AE023236
:100B10004A8140F26151ADF806103146042204F0DA
:100B200098FDD0B99DF8051001220020D2B28A426A
:100B300011D2237898420ED293195F799B7905F8E8
:100B40001070013BB3FA83F305EB40075B097B7040
:100B500001300232EAE72070002041B0F0BD00BF52
:100B600010B5C2B0D54A5389DC1D54814FF480744E
:100B7000ADF80E40124CCDF80A4000248DF810401C
:100B80000C780CB10F4819E00C33496853812022CE
:100B90008DF811200B228DF809200A0A8DF8151006
:100BA0008DF814200A0C090E8DF813208DF8121000
:100BB00002A90DF10702002304F050FD42B010BD60
:100BC0002F00000303000003B0B5C0B00446EF4897
:100BD0004FF47A724189013141814FF48060ADF860
:100BE00001006946204604F09BFD054620B904F546
:100BF0006B70694605F04AFA284640B0B0BD00BFA8
:100C000080B5C0B069462A22FFF76EFF40B080BDB4
:100C100070B5F34C6589013565810D786E1C0E70D9
:100C200042556289023262810A78551C0D701D0A94
:100C300085540A78551C0D708354049A3AB1628920
:100C4000013262810A78531C0B700023835462784E
:100C50004AB1A2783AB96289013262810A78531C9A
:100C60000B708821815470BD2DE9F043C1B0074657
:100C7000DB48894641890DF104080331418140F286
:100C80006140ADF8060097F85E0615468DF808003D
:100C900038464146052204F0DCFC002841D19DF88D
:100CA00005109DF80A00013901224FF0000C0023C5
:100CB00087F85E06D7B28F4230DA99F80020934267
:100CC0002CD207EB08029679032805F833600DD083
:100CD000022814D001281ED105EBC3040026A680EB
:100CE000B2F8072012BA120C628011E005EBC304BF
:100CF000C4F802C0B2F8072012BA160C08E005EBDF
:100D0000C30400266680B2F8072012BA120CA28033
:100D100005EBC302D6800133FA1CCBE7002089F82B
:100D2000003041B0BDE8F08370B5C0B00C46AC49AE
:100D30006D464A8902324A8140F26161ADF8021083
:100D40002946042204F085FCC8B9012100209DF841
:100D50000120C9B2914210D240280ED0227990428F
:100D60000BD24A1953792668023106F8303092794D
:100D700006EBC0035A600130E9E76071002040B023
:100D800070BD00BF70B5C0B06E460C4631467022D3
:100D90000546FFF7A9FE40BB002060719DF80110D9
:100DA000C0B288420ED26179227901316171C9B233
:100DB000914205D8226811448219927901F8012CD8
:100DC0000230EBE7002001210022C5F8BC03637963
:100DD0009A4209D223689B5C0132013B01FA03F37A
:100DE0001843C5F8BC03F2E7002040B070BDB0B5B1
:100DF000C0B06D460C4629467122FFF775FEA8B9B2
:100E00000020691D60719DF8012090420DD2627929
:100E1000237901326271D2B29A4204D825680B5C00
:100E20002A4402F8013C0130EDE7002040B0B0BD9B
:100E300010B5C0B00C4669466322FFF755FE10B9E5
:100E40009DF80610217040B010BD70B5C0B06E4660
:100E500015460C4631466522FFF746FE98B99DF8C7
:100E60000100002180082278042A0AD3814208D296
:100E700006EB8102D2F8052012BA45F82120013193
:100E8000F1E72070002040B070BD000010B5C0B088
:100E90000C46EA494B8902334B8165218DF80210DB
:100EA0008DF803206946042204F0D3FB18B9DDF85D
:100EB000061009BA216040B010BD00BF1800002024
:100EC0000122FFF7E3BF0000F0B5C1B001AD0C4651
:100ED000074628464FF480711646FFF759F9F9483E
:100EE00041890231418101208DF8070046F20160FD
:100EF000ADF80500D7F814223846294604F010FC56
:100F000040BB9DF805000321013890FBF1F02278E9
:100F1000C1B2914288BF1046C1B2721C0623B9B15A
:100F2000DEB2AE5D013902F8016C5E1CF6B2AE5D58
:100F3000013EB6FA86F6760996709E1CF6B2AE5D54
:100F40000333013EB6FA86F6760916700432E6E7F8
:100F50002070002041B0F0BD10B5C0B01446FB4A6F
:100F600053890233538196228DF802208DF80310A5
:100F70006946042204F06DFB30B99DF80610013972
:100F8000B1FA81F14909217040B010BD180000206C
:100F9000B0B5C0B01C46ED4B8DF803105D89102133
:100FA00003355D816D468DF802108DF804202946C9
:100FB000052204F04EFB08B100210EE044989DF894
:100FC00001106A1D0023994206D02578AB4203D256
:100FD000D55CC5540133F6E70020217040B0B0BDA8
:100FE000180000200322FFF751BF10B5C0B00C4617
:100FF00069466822FFF778FD10B99DF80510217049
:1010000040B010BD2DE9F04FC3B0D04D98466F8968
:101010000346B81C68816B208DF80E008DF80F1008
:10102000CB49D4B2A1F1080AC2F307295046152CC6
:1010300000F28F808B460121694EA140314200F0C1
:101040008880F81C688103AD160A184629460522D7
:101050008DF8106004F0FDFA002840F07A80621FDD
:10106000F1B25046062A1BD8DFE802F0047373730E
:1010700023273D00172946D89DF813205846DFE85E
:1010800001F00C6B0C686868686868686868686874
:1010900068687D0C80890C929F0C88F8002057E0CE
:1010A000142C26D0152C54D1A9F1010001282CD9DB
:1010B00029E0481E022826D827E0A9F101000128CE
:1010C00021D89DF80D00E91D01AD821E284605F0CE
:1010D000BCFF9DF80D000238C1B2284601F096F918
:1010E000A8F8000034E0481E022820D303290AD1C2
:1010F0000BE0481E02281AD3032906D0042902D186
:101100009DF8130010E0584623E09DF80D00E91DFE
:1011100001AD821E284605F098FF9DF80D000238AB
:10112000C1B2284601F072F988F8000010E09DF87D
:101130000D00E91D01AD821E284605F086FF9DF8D1
:101140000D000238C1B2284601F060F9C8F800006D
:10115000002043B0BDE8F08F9DF8140040EA022063
:10116000B0B3012836D040F20111884234D0B0F536
:10117000807F33D1002088F80000EAE7A8F800203B
:10118000E6E7012A88F80020E2D19DF8140088F8EB
:101190000100DDE7DDF81600DDF81A1000BA09BA23
:1011A000C8E90001D4E79DF814009DF8151000046B
:1011B0009DF8163040EA026040EA01201844C5E775
:1011C0009DF81400002A88F8010018BF012264E786
:1011D0000220A9E70320A7E70120A5E70420A3E751
:1011E000200E3000B0B5C0B00C46FB496D464A89B0
:1011F00002324A8140F26311ADF8021029460422FE
:1012000004F027FAB8B9002060719DF80110C0B24F
:10121000013988420EDA6179227901316171C9B2EE
:10122000914205D8226811444219D27901F8012C63
:101230000230EAE7002040B0B0BD00BF1800002037
:101240000222FFF723BE622200F022B810B5C0B020
:101250000C46E1494A8902324A814FF4B171ADF836
:1012600002106946042204F0F4F970B9BDF80610C2
:1012700009BA090C2180BDF8081009BA090C61806F
:10128000BDF80A1009BA090CA18040B010BD00BF1A
:1012900010B5C0B00C46EF498DF802204B890422EE
:1012A00002334B8100218DF80310694604F0D1F917
:1012B00030B99DF806109DF8072042EA012121600F
:1012C00040B010BD18000020B0B5C0B00D46E149D7
:1012D00014464A8903324A814FF4B571ADF80210C1
:1012E000694605228DF8045004F0B3F9002822D194
:1012F000D948212D1FD89DF80710DFE805F0171CED
:101300001C151111111C171C11171124151C1C1C64
:101310001E1E1C1C1C1C1C1C1C111C1C151C1C1522
:10132000481EB0FA80F003E0217003E0B1FA81F0CA
:1013300040092070002040B0B0BD9DF8080040EA90
:1013400001202080F6E72160F4E700BF18000020AC
:10135000090000032DE9F041C0B00646BD489046A3
:1013600042896D460332428102208DF8030046F621
:1013700002408DF80410ADF80100D6F81422304672
:10138000294604F0CDF9002858D1B8F1000F54D007
:101390009DF8010008F5017C831CD6F8040208F5CD
:1013A000827E467908F104020727FCB2A34244D9A1
:1013B000285DC10716D1810729D40007F6D5023769
:1013C0000024A64236D0F8B2285C0138844204D109
:1013D000781CC0B2285C023700E000204CF82400E2
:1013E0000134EEE702370024A64223D0F8B2285C8D
:1013F0000138844206D10537F8B2284450F8040C6D
:1014000000BA00E0002042F824000134ECE7023783
:101410000024A6420ED0F8B2285C0138844204D1E0
:10142000781CC0B2285C023700E000204EF824008F
:101430000134EEE788F80060B7E7002040B0BDE86F
:10144000F08100BF2DE9F043C3B0814681481446C6
:101450000A46418903AE0231418106208DF80A0017
:101460004FF41B70ADF80E0004208DF80B000DF149
:101470000B013046002301F045F89DF80B00314682
:1014800003388DF80D00D9F81422484604F048F9C5
:1014900000287BD1002C75D0B4F858000021002220
:1014A0008DF80B20D2B2904210D9636D02EB42024C
:1014B00003F822109DF80B2002EB420203EB82029C
:1014C000117251609DF80B200132E9E703AE0DF176
:1014D00006070DF10A023046394605F076FA014654
:1014E000384600F093FFA9F86C069DF80A002146E3
:1014F00000904846002233464FF0000804F02CFAD2
:10150000002843D10020D9F80412C7B24B798DF8D6
:101510000B009F4236D2616D07EB470211F8225053
:101520002DB1B4F85A100131A4F85A1028E0013B4B
:10153000DBB201EB8202DB1B02F108065F1C013FFC
:101540001ED0357906F10C03002D1E46F7D015701C
:101550009DF80B0000EB400001EB80001978017250
:1015600053F8041C416003F8088C83F80080B4F839
:101570005A000130A4F85A0043F8048C9DF80B007F
:101580000130C0E7B9F86C062080002043B0BDE808
:10159000F08300BF10B5C0B01446EC4A8DF80310BC
:1015A00053896B2103338DF802103F2153818DF84D
:1015B00004106946052204F04CF850B99DF8071054
:1015C000002918BF01212170BDF8081009BA090CC3
:1015D000618040B010BD00BF1800002010B5C0B041
:1015E0000C4669466722FFF77FFA10B99DF805108F
:1015F000217040B010BD0000B0B5C0B00D46E84944
:1016000014464A8903324A8140F26711ADF802104C
:10161000694605228DF8045004F01BF8B8B9A5F10D
:10162000400103290BD89DF80800DFE801F002060D
:10163000020A0138B0FA80F04009207006E006483E
:1016400005E09DF8091041EA00202080002040B00C
:10165000B0BD00BF180000200900000310B5C0B0E5
:101660000C4669462922FFF73FFA48B9BDF8072022
:10167000BDF8051012BA09BA120CA2EB1141218073
:1016800040B010BD10B5C0B00C4669467222FFF7DD
:101690002BFA10B99DF80510217040B010BD10B59F
:1016A000C0B00C4669466922FFF71EFA10B99DF8D2
:1016B0000510217040B010BD6422FFF7E9BD0000A5
:1016C0002DE9F041C6B0DDF83C8104460020C8F8A1
:1016D00000004D984E9D02904C9817460E4603957B
:1016E000CDE9003006A9204632463B4601F01CFEFB
:1016F00098BB222E30D1222084F8020594F896005F
:1017000006A960B10DF1160220462B4603F0A6FF94
:1017100018BB0120C4F8FC0384F89B011CE02046A0
:101720002A4603F0FDFF80B105465548854224D086
:101730001348854221D01348854211D10020C8F8B2
:101740000000C4F8FC030F4807E0DDF8210000BAF0
:10175000C8F80000C4F8FC03002046B0BDE8F081E2
:101760000DF116012046FFF779FF0028F5D1BDF8ED
:101770001600C8F80000C4F8FC032846EDE700BFD7
:10178000017F0002000400022DE9FE4F0D46D0F853
:10179000A41100F5D07A0446504688470746002831
:1017A00066D194F80C06D4F81082009510B9642024
:1017B000C4F810023248314E04F56B75022200273E
:1017C000814600214FF0000BB4F81606834545D240
:1017D000BBF1010F06DC2AB1D4F80012ABF1010B0A
:1017E000013A07E0D4F8100650F82B10D4F80002A4
:1017F000814228D00192D4F8B02122B150460F4640
:101800009047394610BB0291D4F8B811504688472A
:1018100007461948874218BF002F29D1204629467C
:1018200000F0ACFDB042F9D007464F45484608D01D
:1018300077B12046C4F8108205F0C2FC0028EDD034
:1018400004E0DDE901210BF1010BBDE707460FE0E4
:10185000C4F81082B4F8160602990027834501D116
:10186000074F05E000980160D4F8B411504688474E
:101870003846BDE8FE8F00BF0200000307000001EC
:101880000100000170B5C6B0054602208DF81700B2
:10189000002003904A980C460290CDE9002306A947
:1018A0000DF117022846234601F072FE98BB222054
:1018B00085F802059DF817004B9E03388DF8190036
:1018C00095F8960006A940B10DF116022846234668
:1018D00003F0C4FE002131601DE02846224603F0DB
:1018E0001FFFC0B9B6B19DF81900011F0B480429AC
:1018F00011D8DFE801F0030610090B009DF8200065
:1019000007E09DF8210004E0089801E0DDF82100DF
:1019100000BA3060002046B070BD00BF0400000176
:1019200080B5C0B0AD4A53890333538101228DF88D
:1019300003208DF8041046F60241ADF80110D0F8EE
:101940001422694603F0ECFE40B080BD1800002070
:1019500010B5C0B0A14A7F29538903F10204548114
:101960004FF4B674ADF8024003D80333538102221A
:101970000AE00433538101F07F028DF805206FF0F7
:101980007F0242EAD11103228DF801208DF8041064
:10199000D0F81422694603F0C3FE40B010BD00BF6A
:1019A000180000202DE9F047C0B0DFF8B8CD40F2B4
:1019B0009144BCF80A30ADF802400333ACF80A3069
:1019C00090F85E8602F1060A05274FF00009EE4600
:1019D0008DF8048081B31AF8064CFDB20EF805406C
:1019E0005C1C7D1CB8F1030FACF80A400DD0B8F1B7
:1019F000020F06D0B8F1010F16D102EBC904023470
:101A000004E002EBC904043400E054462488EDB23B
:101A1000260A0EF80560BD1CEDB2033303370EF83D
:101A20000540ACF80A3001E023462F460AF1080AC7
:101A3000013909F10109CDE7FAB2694603F009FE5F
:101A400040B0BDE8F08700BFF0B5C1B0DFF814CDFD
:101A500048F29125BCF80A40ADF80650023404253E
:101A600001AEACF80A4049B10134ACF80A4012F8B2
:101A7000013BEFB2F35501390135F4E7EAB201A9B0
:101A800003F0E7FD41B0F0BD80B5C0B0F24A538924
:101A90000533538106228DF802200A0A8DF80610BC
:101AA0008DF805200A0C090E8DF804208DF803101E
:101AB0006946072203F0CDFD40B080BDF0B5C1B04E
:101AC0003E2901D917482AE0DFF898CC9525BCF8C3
:101AD0000A408DF80650013403250DF1040EACF8D0
:101AE0000A40C1B108CAEFB21E0E0EF807606E1CA4
:101AF000F6B21F0C0EF80670AE1CF6B21F0A0EF8F6
:101B00000670EE1CF6B204340EF80630ACF80A404B
:101B100001390435E5E7EAB201A903F09AFD41B0C5
:101B2000F0BD00BF0600000310B5C0B0F94B8DF842
:101B3000032095225C898DF802200A0A8DF807108F
:101B40008DF806200A0C090E06348DF805208DF854
:101B50000410694608225C8103F07BFD40B010BD93
:101B600010B5C0B0EB4B8DF805205C898DF80410E2
:101B70004FF4CB71ADF80210002105348DF806103A
:101B8000694607225C8103F064FD40B010BD00BFD0
:101B900010B5C0B0DF4B8DF802205C898DF80310C2
:101BA0000234694604225C8103F053FD40B010BD4D
:101BB0009822FFF7EDBF000080B5C0B0F74A8DF85E
:101BC00004105389932103335381ADF80210694601
:101BD000052203F03EFD40B080BD00BF180000208C
:101BE0002DE9F041C2B0784D80466E89B01C688105
:101BF0009B208DF80A0004208DF8070090B2070A98
:101C0000D0B28DF80B10421F7049062A22D8084620
:101C1000DFE802F00466666625313F00F01C68814B
:101C200005208DF8070001F10800172F8DF80C70C2
:101C300056D8DFE807F00C580C55555555555555F5
:101C4000555555555555690C75800C9CAC0C301D7F
:101C5000688139E014281AD01528084640D1022F8F
:101C60002AD1F01C688105208DF8070002208DF82C
:101C70000C001A7818E0022F1ED1F01C6881052094
:101C80008DF8070002208DF80C001A880CE0042F54
:101C900015D0022F10D1F01C688105208DF80700A7
:101CA00002208DF80C001A6802A80DF1070100232C
:101CB00000F028FCA0B90DE001F1080010E0301D93
:101CC000688104208DF80C0006208DF80700187834
:101CD0008DF80D009DF8072002A9404603F0B9FCDD
:101CE00042B0BDE8F08193F900200846032AF7D8F6
:101CF000701D688107208DF8070035A050F822007C
:101D00008DF80E00000AE3E71888FA2852D0B0F5E3
:101D1000207F51D0B0F5A07F0846E1D102204CE0F1
:101D2000301D688106208DF80700187801288DF88D
:101D30000D00CFD135E006F10E00688103208DF84B
:101D40000F000120ADF80D0010208DF80700D3E939
:101D5000000100BA8DF817100490080A8DF81600DB
:101D6000080C8DF81500080E8DF81400B2E7F01D70
:101D7000688109208DF807001868010A8DF81000A5
:101D80008DF80F10010C000E8DF80E10A0E7301D1D
:101D9000688106208DF80700187800288DF80D005E
:101DA00098D0701D688107208DF8070058788DF84D
:101DB0000E008FE7002000E00420311D698106211C
:101DC0008DF8071084E700BF180000200100000311
:101DD00000010000010100000000000001000000FF
:101DE00070B5C0B00446CE480D464189012D01F1C1
:101DF000020141814FF09E008DF802008DF80350E2
:101E000008D16846043011461A461E4605F01DF9F1
:101E1000301D00E004206E46C2B22046314603F079
:101E200018FCB8B9012D15D10020C4F8BC039DF8E9
:101E30000110012202390023DBB28B4209DA9D191D
:101E4000ED790233013D02FA05F52843C4F8BC03DD
:101E5000F2E7002040B070BD180000202DE9F047E7
:101E6000C0B0DFF89CCF0425BCF80A204FF0000E6C
:101E7000941C40F29312ACF80A40ADF80220134AC9
:101E800091F805809246E9460023984514D00F68E2
:101E9000D0F8BC23FF5C7E1EF240D20711D0EAB21C
:101EA00009F802E042F00102023409F80270ACF8CD
:101EB0000A4001330235E8E7EAB2694603F0C9FB9C
:101EC00000E0504640B0BDE8F08700BF03000003CB
:101ED000922200F001B8000010B5C0B001F5004337
:101EE0000024B4EB134F01D009480EE08C4B8DF861
:101EF00002205C898DF80410090A03348DF8031060
:101F0000694605225C8103F0A4FB40B010BD00BF10
:101F10000E0000031800002070B5C0B0804C0D29E1
:101F2000658905F1030363814FF4CD73ADF8023089
:101F30001B4B8DF804100ED8DFE801F0071B1B11B6
:101F40001111111B071B11071121291D6181117826
:101F500081F0010306E01B2918BF21290CD1291D9E
:101F6000618113780622052469460B5503F071FB45
:101F70000346184640B070BD1E29F0D0F9E7E91DB0
:101F8000618113680922190A8DF80710190C8DF860
:101F90000610190E08248DF80510E5E7180000203A
:101FA00009000003B0B5C0B0F34C5388658906350D
:101FB00065813F248DF804408DF803109B218DF836
:101FC0000210117808228DF80510190A8DF80730D3
:101FD0008DF80610694603F03CFB40B0B0BD00BF71
:101FE00010B5C0B0F24B5A89941C5C8197248DF8CF
:101FF00002409C7934B302F10C01598140218DF8E3
:1020000005104FF60171ADF8031041218DF807104E
:1020100042218DF8091043218DF80B100B218DF80A
:10202000011019795A795C7A8DF8061099898DF822
:1020300008408DF80A208DF80D10090A8DF80C1053
:102040000E2202E004228DF803100021997199807C
:10205000694603F0FEFA40B010BD00BF10B5C0B035
:10206000D34B5C8906345C8143238DF805308DF8B1
:10207000041040F29711ADF80210110A8DF80720F4
:102080008DF806106946082203F0E3FA40B010BD4F
:10209000422300F001B80000B0B5C0B0C44C8DF8C8
:1020A000053065898DF8041040F297110535ADF8BB
:1020B00002108DF8062069460722658103F0C9FAEF
:1020C00040B0B0BD4023FFF7E7BF000010B5C0B07F
:1020D000B74B5C8905345C8141238DF805308DF860
:1020E000041040F29711ADF802108DF806206946F1
:1020F000072203F0AEFA40B010BD00BF80B5C0B0FB
:10210000AB4A53890233538191228DF802208DF816
:1021100003106946042203F09CFA40B080BD00BF62
:10212000180000209922FFF733BD00002DE9F0418F
:10213000ADF52E7D04469E48884641898DF8BC2128
:102140000D1D9D22B8F1040F45818DF8BB818DF8DE
:10215000BA218DF8BD3103D1002084F8380617E08C
:10216000B8F1050F14D105314181012084F89600A2
:10217000276D387A84F838068DF8BE013878022841
:1021800015D1397D6B4E202940F28180033639E02C
:102190000620C2B26EA9204603F05BFA064600286C
:1021A00040F0B18094F8380688B30026ABE097F889
:1021B0002000394684F85C0697F82C0084F89900D2
:1021C00040F20110ADF8B40004A82C90204604F0B1
:1021D00033FCB0B9387D0CAA8DF81000B8690B2318
:1021E0000C90B4F87006FA21CDE900030292039135
:1021F0002EA92CAB2046222201F096F8002800F0F0
:1022000087800646002107200029C2D17BE0B8F173
:10221000040F02D0B8F1020F2BD16079002869D0E9
:10222000B8F1040F04BF4FF4E130C4F800022046B7
:1022300000F02CFB0646002865D10120B8F1040F00
:10224000607102D0B8F1020F13D104F50671204677
:10225000FFF7C4F90646002855D104F15501204680
:10226000FEF7E6FD064600284DD194F8550084F8A7
:10227000C1030026B8F1040F45D194F8C13304F12D
:102280001800002100220096FEF7B8F83BE007F1A5
:102290000C0004AA00230CAD8DF8B4108DF8B51015
:1022A0002C928B420DD2F96851F82310097DD1543C
:1022B000F96851F82310896945F82310397D0133F5
:1022C000EFE700299ED0016809680978012999D1B2
:1022D00003F044FE002895D02046394604F0ACFBBC
:1022E00000287FF48EAFB4F87006FA210B228DE837
:1022F00025007CE7D4F8A41104F5D0708847064681
:1023000000283FF48DAF30460DF52E7DBDE8F081FD
:102310009DF8B9206EA82EA907300131023204F0D1
:1023200094FE002684F896609DF8B90001210930DA
:102330006AE700BF030000039422FFF7CDBD000051
:1023400080B5C2B0002180F89B1119494A89043236
:102350004A8102218DF80D1042F60371CDF8091063
:102360002F218DF80710D0F8143202A90DF10702C1
:1023700003F074F942B080BD18000020B0B5C0B0C1
:102380000C46F8494A8901324A814FF44071ADF850
:1023900001106946002203F0C3F9054624B11DB9B6
:1023A0006946204603F072FE284640B0B0BD00BF2B
:1023B0001800002070B5D0F8A41100F5D0760446BE
:1023C000304688470546C0B9204600F05FFA28B17C
:1023D000D4F8B4110546304688470EE0204603F095
:1023E00095FD2046FEF74CFB05460748854204D183
:1023F000204604F0E5FE054608B1284670BD20469B
:10240000BDE87040FEF73CBB13000003F8B506467C
:10241000481E0025072807D80024DFE800F004073D
:10242000152E476E6E5D3578002466E03078717841
:10243000002441EA00205FEA54014FEA300101F430
:102440007E5100F07F0016E071783078B278090292
:1024500041EA004010442A4A002400F07F01104065
:102460005FEA54024FEA300202F47E5211444FF404
:10247000FE1202EA90000D183FE03068002400BA16
:1024800020F080315FEA54034FEA31034FF4FE122B
:1024900003F47E5300F07F0002EA910218441044D6
:1024A0004FF07E6202EAD101451826E0307871785B
:1024B000B278040761F35B5402F07F013279F3785C
:1024C00044EA813102F07F02114403F07F0241EAC5
:1024D000C215C0F3021410E000253827002417F1BC
:1024E00008000AD016F8010B07F4FF620021FDF77F
:1024F00019FE0C430543083FF1E728462146F8BD85
:102500007F7F7F0070B50024D2F17F059C4104D30A
:10251000DD4B1C8801341C8067E0940B44EA834443
:1025200044EA93346CB9D84B1C8802341C800B7875
:102530005C1C0C70802444EAD214C45402F07F0264
:1025400053E0540D44EAC32444EA53549CB9CE4B9F
:1025500002F07F051C8803341C800B785C1C0C7017
:1025600002F47E5445EA440402F4FE1244EA820274
:10257000244C224331E0140F44EA031444EA137458
:1025800024B9C14B1C8804341C800EE0072B32D8C0
:10259000BD4C1B01258843EA1273053525800C7854
:1025A00043F08003651C0D7003550B7802F07F0526
:1025B0005C1C0C7002F47E5445EA440402F4FE16DE
:1025C00044EA860402F07E6244EAC2020C4C2243D2
:1025D000140EC4540B785C1C0C70140CC4540B788F
:1025E000120A5C1C0C70C2542A460B785C1C0C70DE
:1025F000C254002070BD014870BD00BF010000033F
:102600000080808000808000B0B5002580F89B515C
:10261000D0F8B411044600F5D070884700206571E9
:10262000B0BD00002DE9F04FC3B0064690F896000B
:10263000984691460D4658B34A482F2342898DF853
:102640000B3022238DF81230474BD11D4181CDF83C
:102650000E3096F8453696F880469F01E4008DF8D6
:1026600014708DF81340CDF804808BB302F10B0188
:102670004181D6F848260D27130A8DF818208DF8C9
:102680001730130C120E8DF816308DF8152020E03F
:10269000344C96F85D0661784A4608434FF00600D0
:1026A00008BF05202F5C3046294603F039F8F0BBFF
:1026B000B8F1000F54D096F85D06617808434FF0EA
:1026C000090108BF0821F80634D4685C01313AE0FA
:1026D000092796F8C1230DF10C0B0BF807204A1CB3
:1026E0000BEB07044FF0000A428184F801A06A78DE
:1026F0000231418147F00208A91C551C0BEB080070
:102700002A4604F0A2FC08EB0500C11B033903387C
:1027100061708DF80D000DF10B02304659464B46A5
:1027200002F09CFF0199A1F804A0C1F800A043B0F9
:10273000BDE8F08F41F002004A19285CD27841F0E0
:10274000040142EA0020A8F800004819418809BAAB
:10275000090CA8F80210808800BA000CA8F8040040
:102760000020E4E7180000202F0000017CB505469A
:10277000D0F8FC03002847D095F801050C4605F574
:102780008066002842D095F8021595F800052229A8
:102790008DF807001FD1EF490DF1070309780029D3
:1027A0000FBF002001308DF80700012095F896102A
:1027B00000F10802002908BF421DA818B0F8000463
:1027C000214600BA020C2846009602F0F1F90028D2
:1027D0004DD19DF8070005F5D07185F8000520461C
:1027E00002F0B8FB95F80105013885F8010595F868
:1027F000960028B9D5F8FC030138C5F8FC0332D09F
:102800000020C4F868537CBDD4487CBD95F8960080
:1028100020B1284600F06CF848BBB4E795F80205F3
:10282000222825D1292085F80204002085F80504F6
:1028300015480622018804310180B5F8700631463A
:1028400000BA000CA5F8030406208DF807002846FE
:1028500002F0FFFE58B9092085F8000595F8080434
:1028600085F801058FE72846FEF7CAF910B17CBD4F
:1028700004487CBDD5F8FC030028C1D1002085F8B0
:102880004006BDE70101000222000020F8B5D0F8A3
:10289000B021044600F5D07522B1D4F800122846C4
:1028A0009047C8B9D4F8B811284688470D498842DE
:1028B00000D088B90C4E0D4F04F56B7520462946A3
:1028C000FFF75CFDB042F9D0B84205D028B12046F0
:1028D00004F076FC0028F1D0F8BD012060710020E2
:1028E000F8BD00BF02000003070000010100000165
:1028F000F0B5ADF5677D044690F8960010B194F8F8
:10290000010548B1D4F8FC03944E0028C8BF002646
:1029100030460DF5677DF0BDD4F8F83304F58065D9
:1029200020462946222202F063FD002842D0874F2C
:10293000B84243D08649884233D10AAE304602F0CD
:102940003DFF84480C2100780DF29B3300284FF0A6
:10295000090008BF0B218DF89B1308BF08202044F5
:10296000B0F80004314600BA020C2046009502F08F
:102970001FF906460028CBD104F5D0710AA802F051
:10298000E9FA002084F89B0102A92046E494FEF7AE
:10299000E7F80646012084F89B01002E08BFFE1CC4
:1029A000B6E794F80514042927D194F802142F29C6
:1029B00023D118B994F8011400294DD094F80214C9
:1029C000222901D02F2922D1604EB042A0D02F2938
:1029D00044D194F80504042800F0A780032800F0EF
:1029E000B180022840F0AC80002084F83906012034
:1029F00084F844065948C61D8AE7002184F8391630
:102A0000D4F80C14064609BAC4F8EC1380E794F81D
:102A10000124062A1ED34F49097821B994F85D167E
:102A2000002900F0918001214A195279D2064FF015
:102A30000A0258BF08225718E95DD1B301296CD0AA
:102A4000022907D1092084F80005012084F89800A4
:102A500000265DE7424E5BE73F4E59E794F80124BC
:102A60002229D6D1072AD6D194F803140029D2D12D
:102A700094F804140029CED194F80504374EC00709
:102A80003FF446AF94F8450600283FF441AF94F870
:102A9000070410F040003FF43BAFD4F80814D4F81A
:102AA000480609BA8142FFF433AF2046FFF748FCDD
:102AB0002EE70021C4F8FC1384F8391694F83D166B
:102AC00002290DD004F23D65204612212A4603F06A
:102AD00009F9064600287FF41BAF02202870002069
:102AE000216DC96991B1E119B1F80724B4F806362E
:102AF00012BA03EB1242A4F80626B1F80914B4F88E
:102B0000082609BA02EB1141A4F80816002804BFF0
:102B10000820C0F200300646FAE6002640F20B100C
:102B200084F89860A4F80005F2E694F8011404F122
:102B30009B004A1D294604F088FA002084F89A0078
:102B4000064EE5E60336E3E600216DE701060002E6
:102B5000040600021900002000040002080000031F
:102B600004000001E3B1B0B50C4611781D46425C8B
:102B700042F040024254FB494A8901324A8122789C
:102B80009979531C237081542178EA880844296874
:102B900004F05BFAA879217808442070BDE8B040C1
:102BA000704700BFB0B50C46D98809B31D461B68F5
:102BB0001B78EBB123781944FF2901D90D48B0BD2A
:102BC0001178425C42F004024254E6494A890132DB
:102BD0004A812278A979531C237081542178EA888C
:102BE0000844296804F031FAA87921780844207053
:102BF0000020B0BD060000032DE9FF471E46134626
:102C00004FF000094FF0010A2E220D4604468DF8C0
:102C10000F90CDF800A0FDF7FBFFF84F95F800806E
:102C200078890DF10F020130788128782B46411CFC
:102C30002970402121547889013078812878411CFD
:102C4000297004F800900E980F99CDF808A0CDE9EE
:102C50000040052003F048FA14F808109DF80F20F2
:102C6000114304F8081079890431798129784A1CC4
:102C70002A70320E625429784A1C2A70320C62542F
:102C800029784A1C2A70320A625429784A1C2A7010
:102C9000665479890131798129784A1C2A700C9A05
:102CA000625479890131798129784A1C2A700D9AF8
:102CB000625404B0BDE8F0872DE9F04385B0FA4FC7
:102CC000044678890D460130788108784FF0000974
:102CD000411C29702E212154788998460230788130
:102CE00028782B46411C2970110A21542878411C50
:102CF0002970225478890DF11302013078812878E7
:102D0000411C297004F8009078892E780130788170
:102D10002878411C2970402121547889013078811C
:102D20002878411C29700121215410980291119991
:102D3000CDE9004005208DF8139003F0D5F9A15D91
:102D40009DF81320B8F1010F41EA0201A1557989DC
:102D500001F101017981297801F101022A7004F859
:102D60000190798901F101017981297801F101024C
:102D70002A7004F80180798901F1010179812978AB
:102D800001F101022A700C9A6254798901F104015F
:102D90007981297801F101022A700D9A4FEA1263B4
:102DA0006354297801F101032B704FEA12436354F5
:102DB000297801F101032B704FEA1223635429781B
:102DC00001F101032B706254798901F101017981CC
:102DD000297801F101022A700E9A62540DD17A8984
:102DE0000F99023209887A812A78531C2B700B0ABA
:102DF000A3542A78531C2B70A15405B0BDE8F0836E
:102E0000180000202DE9FF47DFF868AA0546BAF848
:102E10000A000C460130AAF80A0008784FF00009B1
:102E2000411C21702D212954BAF80A00984602301D
:102E3000AAF80A0020782346411C2170110A29545F
:102E40002078411C21702A54BAF80A000DF10F02B3
:102E50000130AAF80A002078411C217005F8009082
:102E6000BAF80A0026780130AAF80A002078411C36
:102E7000217040212954BAF80A000130AAF80A004A
:102E80002078411C217005F80090BAF80A00013042
:102E9000AAF80A002078411C2170C721295401207A
:102EA00002900F981099CDE9005005208DF80F90F1
:102EB00003F01AF9A95D9DF80F201143A955BAF83E
:102EC0000A100131AAF80A1021784A1C227005F86C
:102ED0000190BAF80A100131AAF80A1021784A1CA8
:102EE000227005F80180BAF80A100431AAF80A1015
:102EF00021784A1C22700C9A130E6B5421784B1CBB
:102F00002370130C6B5421784B1C2370130A6B54E1
:102F100021784B1C23706A54BAF80A100131AAF8C0
:102F20000A102278511C21700D99A9540E9AB1B142
:102F3000BAF80A3001390133AAF80A3026785378F2
:102F4000771C2770AB55BAF80A300133AAF80A305B
:102F500026781378771C2770AB550232E7E704B068
:102F6000BDE8F08718000020F8B51E46134600277C
:102F700028220D4604460097FDF74AFEE948099BC2
:102F8000418901F101014181297801F101022A7091
:102F9000089A6254DDE9062C53B143890233438118
:102FA0002B78591C2970E75429784B1C2B706754D7
:102FB00041890131418129784B1C2B70665441892C
:102FC0000431418129784B1C2B70130E63542978EE
:102FD0004B1C2B70130C635429784B1C2B70130A59
:102FE000635429784B1C2B70625441890131418113
:102FF0002878411C297004F800C0F8BD1800002092
:10300000F0B5C84C6589013565810D786E1C0E7070
:10301000242646556589023565810D786E1C0E7033
:10302000160A46550D786E1C0E704255069A002AF7
:1030300018BF6FF07B02A5786678002D154608BF93
:1030400065F07705002E08BF1546059A35B16689EB
:10305000013666810E78771C0F70855565890135BC
:1030600065810D786E1C0E70002646556589043505
:1030700065810D786E1C0E70160E46550D786E1C0F
:103080000E70160C46550D786E1C0E70160A4655BD
:103090000D786E1C0E7042556289013262810A7889
:1030A000541C0C708354F0BD18000020F8B51E4667
:1030B0001346002726220D4604460097FDF7A8FD7B
:1030C000984841890131418129784A1C2A70675406
:1030D00041890431418129784A1C2A70320E625498
:1030E00029784A1C2A70320C625429784A1C2A70AA
:1030F000320A625429784A1C2A7066544189013187
:1031000041812878411C29702754F8BDF8B51E4626
:103110001346002725220D4604460097FDF778FD4B
:10312000804841890131418129784A1C2A706754BD
:1031300041890431418129784A1C2A70079A130E6B
:10314000635429784B1C2B70130C635429784B1C47
:103150002B70130A635429784B1C2B7062544189DD
:103160000231418129784A1C2A70320A6254297836
:103170004A1C2A7066544189023141812878411CD9
:10318000297006990A0A22542878421C2A70215470
:10319000F8BD00BF70B50C46FB494D8901354D8126
:1031A00025786E1C2670232646554D8902354D81A3
:1031B00025786E1C2670160A465525786E1C2670DA
:1031C00042554A8902324A8121784A1C22700022E3
:1031D000425421784D1C257042542178049D0844A6
:1031E00019462A4603F031FF20782844207070BD2C
:1031F000F0B5E54C6589013565810D786E1C0E7062
:10320000282646556589023565810D786E1C0E703D
:10321000160A46550D786E1C0E70425562890132B1
:1032200062810D786A1C0A7000224255079D55B1D3
:103230006589023565810D786E1C0E7042550D78DA
:103240006E1C0E7042556689DDE9055201366681B5
:103250000E78771C0F708355E67963898EB104333D
:1032600063810B785E1C0E702E0EC6540B785E1CAC
:103270000E702E0CC6540B785E1C0E702E0AC654AF
:1032800001E0013363810B785E1C0E70C5546389C5
:10329000013363810B785C1C0C70C254F0BD00BF1D
:1032A00070B5B94C6589013565810D786E1C0E705D
:1032B000242646556589023565810D786E1C0E7091
:1032C000160A46550D786E1C0E7042556289013201
:1032D00062810A78551C0D7000258554628901327F
:1032E00062810A78551C0D708354E5796389049ACC
:1032F0008DB1043363810B785C1C0C70140EC454C4
:103300000B785C1C0C70140CC4540B785C1C0C7097
:10331000140AC45401E0013363810B785C1C0C7007
:10332000C25470BD180000202DE9F04F89B0074647
:103330000069954D0690688988462F2188F802100B
:10334000C11C698103218DF8231097F896101C4643
:10335000DDF85490129B164649B10021A8F80310DD
:10336000011D6981012305224FF0060E10E0112195
:1033700088F805104FEA192188F8049088F803109E
:10338000811D180A07224FF0080E698188F806008F
:1033900001314EF0010C08F80230698108F80E6026
:1033A0008DF823C03B6D1978022917D10022002126
:1033B00087F845261D7DA94216D2DD6855F82150B3
:1033C00095F8240040B10122A86A87F84526D7F86D
:1033D00048562844C7F848060131EBE7986AC7F811
:1033E000480697F8452600E0674D68890EEB08010E
:1033F0000230688197F88006002A4FEAC00008F87A
:103400000C0018BF012290010EF1030B88708DF89B
:1034100023B097F8450680B1688904306881D7F8F1
:103420004806020E08F80B20020A4A71020C0EF13F
:10343000070B0A7188718DF823B061794FF0000A8B
:10344000B9FBF1F007900020C9B28A4580F098805E
:103450002068698910F80A00013169815FFA8BF1EF
:1034600008F801006989013169810BF101015FFAF6
:1034700081F9002108F809100BF102018DF82310E1
:103480003A6D1178022936D115698DB1D368B446E9
:1034900053F82A30A6465C68069B159E6343744326
:1034A000B4FBF5F4B3FBF5F307947446664603E00A
:1034B0006379069DB5FBF3F39BB2C7F89C31D368E3
:1034C000EC4D53F82A3093F82C3087F89930D368B4
:1034D00053F82A3093F8203087F85C36D36853F8D5
:1034E0002A3093F8243087F84536D36853F82A30C9
:1034F0009B6AC7F84836222E41D1022902D1D168F1
:1035000051F82A20D169C1B100208DF82200079816
:103510000DF1230380B2CDE900300DF122000290BD
:1035200038464346FDF710F89DF822109DF82320F9
:10353000531A023B08F8013014E01499139A51F819
:103540002A100092129ACDE90121039000200490E4
:103550000798414683B238460DF1230200F02AF85D
:103560009DF82320A2EB0B01033908F80910D11EA6
:1035700088F8011061790AF1010A934664E703486B
:1035800009B0BDE8F08F00BF180000200101000263
:10359000B0B586B00D9DB0F8704604950C9D0395AE
:1035A0000B9DCDE901450A9C009400F003F806B09C
:1035B000B0BD00002DE9F04F85B0884622210746B6
:1035C00080F802151098154620B10078002818BF21
:1035D000012000E00120DFF89CB2DDF838C08BF854
:1035E0000100BBF80A000130ABF80A002878421C41
:1035F0002A7008F8001097F8411697F85D06002920
:1036000018BF6FF07E01002818BF61F07B019BF8A6
:103610000100B0B13A6D61F077011078012813D044
:10362000022816D1107D00264FF0010EB04210D0B6
:10363000D46854F82640E4690CB18BF802E00136F6
:10364000F4E7080605D10EE0D06910B101208BF82F
:103650000200BBF80A000130ABF80A002878421CCF
:103660002A7008F80010BBF80A0095F800900130A5
:10367000ABF80A002878411C2970002108F80010D6
:1036800097F896E04FEA1C21BEF1000F05D097F89D
:103690006F0628B14CF038000BE04CF0100008E049
:1036A000B7F86C0600281ABF4CF48C70010A4CF075
:1036B000180097F85C4624B1002460F07F0087F87A
:1036C0005C4697F8994024B1002441F0020187F844
:1036D0009940BBF80A40BEF1000F04F10204ABF8B8
:1036E0000A402E7897F8454606F101022A7018BF65
:1036F00041F0040108F806102978002C01F10102BC
:103700002A7018BF40F0400008F80100BBF80A001A
:10371000DDF83CA00230ABF80A002878411C297083
:10372000190A08F800102878411C297008F80030A0
:1037300097F8960060B3386D0078022812D1BBF874
:103740000A000230ABF80A002978D7F89C014A1C1D
:103750002A70020A08F8012029784A1C2A7008F801
:10376000010015E004AA3846202102F075FABBF8E2
:103770000A000230ABF80A002878411C297004992D
:103780000A0A08F800202878421C2A7008F800105D
:10379000BBF80A000230ABF80A002878411C2970F7
:1037A0004FEA1A2108F800102878411C297008F8FF
:1037B00000A097F84506E8B1BBF80A000430ABF862
:1037C0000A002978D7F848064A1C2A70020E08F821
:1037D000012029784A1C2A70020C08F80120297857
:1037E0004A1C2A70020A08F8012029784A1C2A700B
:1037F00008F8010097F89620DDE91101FAB1B7F851
:103800006C264AB1BBF80A300233ABF80A302B7889
:103810005C1C2C70140A0BE097F86F267AB1BBF889
:103820000A300233ABF80A302B785C1C2C70002471
:1038300008F803402B785C1C2C7008F80320012248
:10384000CDE9008108EB0907109902923A462B4610
:1038500002F04AFC18F8091041F0100208F809209B
:103860009BF8032012B141F05001397005B0BDE85A
:10387000F08F00BF180000202DE9F04FE1B00E4698
:10388000054601F01F00012101FA00FA700905EB5D
:10389000800BDBF8C403904610EA0A0F05D0DBF872
:1038A000D40310EA0A0F00F07E80731E6F2B00F223
:1038B000CD8005214FF4905004220027DFE813F05B
:1038C00067016A01850188018B0196014D049B0106
:1038D000C001E30117021B0222023E0277007700BB
:1038E0007002590475023304770279027D02810265
:1038F000C900CD0084028802C600C600C600C6000A
:10390000C600C600A800A800D1008C029102D60013
:10391000DA009702DF00E10099029C02A802E300AE
:10392000AF02CF02EE02F3020603FF0006010B0313
:103930001D030B012003700070003304C600260332
:103940000E012C032E033003460348034B031501DD
:103950004E03530358035F037203C600C600C6003C
:10396000B800B80075031F0178034501C600C60002
:103970007D0349017000C600C600C600C600C6002F
:103980004E015001820352015401560186038803FF
:1039900058018A035A018E035C015E018D046201A5
:1039A000D74F00F01ABCD648871D00F029BC002470
:1039B0001020A8F806408DF883000DF1830121AA9C
:1039C0002846FDF781FA0746002840F0198485F85B
:1039D000C24301AC4FF001099DF88300814500F21C
:1039E00007835FFA89F128462246FDF7B5FA0028D9
:1039F00040F032839DF8040038B1012095F8C213DD
:103A000000FA09F0084385F8C20309F10109E3E768
:103A100021A92846FDF71AFC0746002840F08383B9
:103A2000242E00F07B83232E10D1BDF8860077E38F
:103A300021AA28460521FDF7ADFD0746002840F0E4
:103A40007283522E00F06383512EEED0AC48871D56
:103A500069E305214FF498508BE305214FF4B050F2
:103A600087E328464146FDF7EEFB88E328464146BA
:103A70000122B9E128464146FDF704FE7FE300221A
:103A80006BE3082269E37F208DF8830021AC0DF100
:103A9000830328460021402200940027FDF778FA8E
:103AA0009DF88310002900F0C6829DF88720033915
:103AB000914280F21C8392480022471E22E395F82F
:103AC0001802002800F0BB820027CBE228464146BE
:103AD000FDF78DF953E32846412113E2B5F86C1642
:103AE00028464246FDF7AEFC49E305F20A62284645
:103AF0000C21FDF7E9FB074695F80A06B2E221AA78
:103B000028461E21FDF7E0FB0746002840F00B8306
:103B10000020A8F80600042800F005839DF8841012
:103B2000C140C9070FD0B8F806100131A8F8061037
:103B3000B8F8042089B2914205D8D8F80020114481
:103B4000421C01F8012C0130E5E705214FF4A85093
:103B50000FE328464146FDF745FA10E3092132E21A
:103B60000A2130E214212EE215212CE2092132E251
:103B7000142130E2092132E2142130E214214FF401
:103B80008060F6E228464146FDF72CFBF7E2D5F8C7
:103B9000000207E1B8F80410B5F81606884284BFA1
:103BA000A5F816160846002800F016830021CAB2B0
:103BB000904240F21A82D5F81036D8F8004053F8F7
:103BC0002230013144F82230F1E7D5F81402E9E05F
:103BD000D5F81002E6E021A92846FDF706FA0746C7
:103BE000002800F03B8295F8C0033BE2284641469E
:103BF000FDF755FDC3E2D5F80402002800F0358238
:103C00000020A8F80600D5F804124979884280F00F
:103C10008982B8F806100131A8F80610B8F8042017
:103C200089B291420AD8D5F8043200EB40021B68F1
:103C30009A5CD8F80030194401F8012C0130E2E711
:103C40000DF1040948464121FCF7A2FA402021ACBD
:103C50008DF883000DF1830128462246FCF750FFC2
:103C60000746002840F05F829DF88320601C1146C3
:103C7000002900F0028210F8013C0478023009F8B3
:103C800003400139F4E705F24C642846032122463B
:103C9000FDF71AFB0746002840F09F820020A8F895
:103CA0000600207848B90120A8F80600B8F80400FA
:103CB00018B1D8F80000002101700020042800F09D
:103CC00031822178C140C9070FD0B8F80610013100
:103CD000A8F80610B8F8042089B2914205D8D8F89F
:103CE00000201144421C01F8012C0130E6E728466F
:103CF0004146022278E028464146FDF715F83EE2AB
:103D000003000003D5F80402002800F0E38100213D
:103D10004279914280F0668198F80430994280F0AF
:103D20006181036801EB41029C5AD8F800700131AF
:103D3000BC52BC181A449278A270E9E7DFF8D404A8
:103D40000DF18409018804220231018040F2617082
:103D5000ADF886002846494601F07BFC074600285E
:103D600040F0E181012100209DF88520C9B29142F7
:103D700080F0BA8198F80420904280F0B58101EB80
:103D800009025379D8F80040033104F8303004EBCD
:103D9000C0039479D279013042EA04225A60E3E701
:103DA000D5F80C02C8F8000016E205210BE1052148
:103DB00011E105214FF48050DBE105214FF48850DB
:103DC000D7E195F83F06D7E005214FF4B850D0E190
:103DD00005214FF4A050CCE128464146FDF76CFC8C
:103DE000CDE128464146002202F056FBC7E10622FB
:103DF000B3E195F85400BFE005F155062846314679
:103E0000FDF716F80746002840F0E7813078B3E068
:103E100005F56C7021AD294601F0BEFED4E195F8A0
:103E2000B003182800F0C181802800F0C08120284C
:103E300000F0AF81302800F0BC81382800F0BB8151
:103E4000192840F0C08195F8B303DFF8E4230FF29E
:103E50003841032808BF0A460FF23445A1E121AEDC
:103E6000DFF8C84305F56E703146A0472D208DF868
:103E70008F0005F56D7006F10C01A0474C208DF800
:103E80009D0044F22D20ADF89B0005F56B7006F106
:103E90001A01A0474046314625229BE1284641466B
:103EA000FCF770FF6BE198F8040021A98DF88400FD
:103EB000D8F800202846FCF7C8FF0746002840F045
:103EC0008C819DF88400A8F8060086E128464146CA
:103ED000FCF7F6FF53E1284640214246FDF78CFBF4
:103EE000002800F07981074600F07F40B0F1007FA4
:103EF00004BF002788F800706FE12846422101E0E6
:103F0000284643214246FDF777FB38E128460B213E
:103F10004246FDF71FFA32E1563555E112221CE107
:103F200005F20466284612213246FDF7CDF9074610
:103F3000002840F065813088013081B2032900F209
:103F4000208100B2B5A151F820501BE1132204E1F9
:103F5000B5F806062EE0B5F808062BE095F86F06D2
:103F6000C0F3C00008E095F86F06C0F3400003E01E
:103F700095F86F06C0F3800088F800002CE100205F
:103F8000219021AA28460D21FDF79EF90746002819
:103F900040F023812198002808BF4FF0FF30C8F877
:103FA00000001AE128460B21D9E0B5F86C0601E0C3
:103FB000B5F87006A8F800000EE128464146FDF766
:103FC0003FF9DCE00B214FF40070D2E00A2102E05F
:103FD0000B2100E015214FF48070CAE00B214FF453
:103FE0004070C6E088F805209CE0A8F8060099E03B
:103FF0000121C2B2914200F29580B6F1100218BFC1
:10400000012295F9C233CB4003F001039A4210D04C
:10401000B8F806200132A8F80620B8F8043092B2A9
:104020009A4206D8D8F80000104400F8011C9DF808
:1040300083000131DDE7D8F80000077073E068798C
:10404000002800F0E18005F506712846FDF7C6FA64
:10405000074695F8180205E00746D1E09DF8840070
:1040600085F8C00388F80000B7E0284602F0BEFBE0
:104070000746002840F0C480C2E5D5F8040218B90C
:1040800021A9284603F029F80020A8F80600D5F851
:1040900004225179884246D2126800EB400153183D
:1040A0005C7819F804409CB19B7819F803307BB117
:1040B000515CB8F806200132A8F80620B8F80430A0
:1040C00092B29A4204D8D8F800301A4402F8011C7F
:1040D0000130DCE7284602F089FB0746002840F063
:1040E0008F80D5F8040212E688F805001BE0211D38
:1040F00001AB17462FB111F8014B013F03F8014BFB
:10410000F8E7074601A9404601F0B6FE0BE09DF82E
:10411000840080F0010088F8000003E0BDF888000A
:10412000A8F800000027A6F1560205210020182A51
:1041300019D90A221C2E06D80123574CB34023421A
:1041400017D1072E09D0A6F12A001B2845D8012136
:1041500001FA00F0514908423FD028461146424634
:10416000FDF7B2F80BE0012303FA02F24C4B1A42BE
:10417000DFD040EA010228464346FCF743FF0746EA
:104180002BE0254DB8F1000F1ED1214800F10B079F
:1041900023E095F8B30335A237A52FA1032808BF64
:1041A0000A46022818BF15460EE0214D0CE021A555
:1041B0000AE026A508E095F9B203052803D21EA15E
:1041C00051F8205000E0144D2846FBF7F8FF024656
:1041D0004046294601F050FE00270BF5717001683A
:1041E00011EA0A0F0CD12F4A974200D02FB9DBF801
:1041F000D42342EA0A02CBF8D42341EA0A0101603F
:10420000384661B0BDE8F08F0020FFF75DBC00BF0D
:104210000300000322000020567400087C7400088C
:104220007C7400088C74000871740008995B0008A5
:10423000527400084D3365005E7400084074000835
:104240006774000837740008497400084D3665200B
:104250004E616E6F000000004D3665204D6963723F
:104260006F2055534250726F000000004D3665209C
:104270004D6963726F0000004D3665204D696372B1
:104280006F205553420000004D3665204A494300D7
:104290004D366520505243000000FC1E0700100AF6
:1042A00001F8FF01130000032DE9F04FC1B00E46E5
:1042B000804601F01F00012101FA00F4700908EBAB
:1042C0008005D5F8C403BB4991468B46204208D1EE
:1042D0004046314605F5717701F0DCFC3868204234
:1042E00004D0D5F8D403204200F09D80751E6F2DB8
:1042F00000F2098258460BF1010C4FF49857002048
:104300004FF4905305210A24DFE815F01A01360115
:104310004B015C01670174017C01700070007E013B
:10432000990170009D01AD01D300D300DF015B0353
:10433000E401E701E901EC01EF01F2019D00F70161
:10434000FA017000FD01FD01FD01FD01FD01010209
:10435000700070002F0237023F02430270004B02D0
:104360004D024F0256027B027000FD01700070008A
:1043700070008B0295029A027000A702B102BB0284
:10438000C502CF02D6025002FD01E102E802700030
:1043900070007000700070007000F00200030B03EA
:1043A000160323032E03FD01FD01FD01F000F000C3
:1043B00036033B0353035803FD01FD01620367030A
:1043C0007003FD01FD01FD01FD01FD01800384037A
:1043D00088038C038F037000700070007000700001
:1043E00070007000700093030704970305210023F9
:1043F0001B2E1BD9A6F15600182806D8012202FA56
:1044000000F06D4A104240F0DC82A6F12A00142828
:1044100000F23D83012101FA00F06849084260463C
:1044200040F0C48179E30BF1050076E30120644A92
:10443000B040104240F0C582072E00F0B781192E1F
:10444000D8D1604600270146B9F1000F00F01A8369
:10445000D9F800200BF10A00B2F1FF3FC0F25D83F2
:10446000D9F80430B3F1FF3FC0F2578303EA0200EA
:10447000013000F0788347F0050201AB404605218A
:10448000FCF7C0FD002840F04883012088F8410671
:10449000D9F80000013002D10198C9F80000D9F81C
:1044A0000400013002D10298C9F8040005213B46FE
:1044B00087E2B6F1100718BF1E27B9F806000021E1
:1044C0000122884226D0B9F80430994222D2D9F884
:1044D0000030102E5B5C01F1010102FA03F327EAC0
:1044E000030408BF43EA07042746EAE701AA404657
:1044F0000521FDF74FF8844600287FF477AF522E50
:1045000000F02383512E40F02683B9F80000ADF867
:10451000060020E3002480B2844280F0BF82D9F8F4
:104520000000015D27FA01F000F001024046FDF7AE
:1045300017FB002840F0F182B9F806000134EAE7E1
:1045400098F80500D9F80050002800F0E382D8F868
:10455000B001002800F0E08240462946FDF794FAB9
:10456000002840F0DA82C8F80052D8F8B02108F5E7
:10457000D07029469047CFE2B9F80600B8F8141673
:1045800088426DD80021CAB2904240F28582D9F8A3
:104590000030D8F8104653F82230013144F8223068
:1045A000F1E7D9F80000002800F17382C8F814027E
:1045B000B2E200BF0400000301F800010700100090
:1045C0000000FC0CD9F80000002800F162820121F3
:1045D00088F80C16C8F810029EE299F800104046C0
:1045E000FDF7E6FA002840F0988299F8000088F874
:1045F000C00391E299F80010404641B0BDE8F04F89
:10460000FDF790BD0424D1E0002088F84C06B9F8ED
:10461000061008F24C6201230024A14200F0178228
:10462000B9F80450AC4280F01282D9F800502D5DE8
:104630000134013D03FA05F528431070EDE74046CB
:1046400049460222A8E0D8F804E2BEF1000F00F0CB
:1046500067829EF8053099F805C09C4540F221829A
:104660000BF1020059E2DFF840C50422BCF800005B
:104670000027811C40F29170ACF80010ADF80600E4
:1046800099F805E001A8BE4500F0F081D9F80030A6
:10469000D5B213F8374003EBC70344554C1CACF8B4
:1046A00000405D68531CB5F5803F0ADADBB22C0A86
:1046B000C454931CDBB203310332C554ACF8001070
:1046C00001E021461A460137DDE7D9F80000C8F8B5
:1046D0000C0221E24FF4007372E1002370E14FF409
:1046E00080736DE14FF480536AE14FF4885367E1C2
:1046F00099F8000088F83F060EE24FF4B0535FE1EE
:104700004FF4B8535CE10BF1050C58466EE601AE70
:10471000304649463822FBF714FD002088F86E0623
:10472000D8F80422D8F8BC334046314602F034FDB4
:10473000002840F0F28199F8000001280ED198F885
:104740008006002800F0118201A9404602F074F9A9
:10475000002840F0E281012088F86E06D8F8500069
:1047600001A93822FBF7EDFCD6E1D9F8001040464C
:1047700041B0BDE8F04FFDF7ABBBD9F800104046A3
:1047800041B0BDE8F04FFDF7D7BD40464946002295
:1047900002E040464946012241B0BDE8F04F02F038
:1047A000B5BB062402E0002400E00824E1B2404644
:1047B0004A46FDF7B1FBB0E1D8F80402002800F04A
:1047C000B781437999F800100022934210D0047900
:1047D000A2420DD2046802EB4205655D01328D42B2
:1047E000F3D102EB420088F85410204410F8021C68
:1047F0000029DC463FF4FAAD40460022FDF77EFC7E
:10480000AEE199F80010404602F0DAFB002840F0D3
:10481000848199F80010002088F8800688F85510E7
:104820007BE1D9F8002099F80610404641B0BDE878
:10483000F04FFDF743B9D9F8001040460122D0E00F
:1048400099F800104046FDF7CBFB002840F0658149
:1048500099F8000088F818025EE199F8002098F8AD
:104860001812404641B0BDE8F04FFDF72BBC99F857
:10487000002098F81812404641B0BDE8F04FFDF70F
:1048800007BC99F9002098F81812404641B0BDE8DD
:10489000F04FFDF71BBCB9F8002098F818124046FD
:1048A00041B0BDE8F04FFDF7D9BBB9F80630D9F8F3
:1048B000002040460121A4E099F8002099F8011059
:1048C0004046012341B0BDE8F04FFDF72FBC404604
:1048D0000B2141B0BDE8F04FFDF722B8404640F64D
:1048E000C17141B0BDE8F04FFDF732B840460C2130
:1048F0004A46FDF711FB002840F00F8199F80000AF
:10490000012188F80B1688F80A0605E199F80010CD
:1049100098F86F06002914BF40F0080000F0F70077
:1049200014E099F8001098F86F0600290CBF00F009
:10493000FD0040F0020009E099F8001098F86F06B9
:1049400000290CBF00F0FB0040F0040088F86F065F
:10495000E2E0D9F8000001AAB0F1FF3118BF01462A
:10496000019140460D2124E740460B214A4641B0C3
:10497000BDE8F04FFDF7D0BAB9F80000A8F86C0612
:10498000CAE000208DF80400B9F8061001220023C7
:10499000994271D0B9F80440A3426DD2D9F80040D1
:1049A000E45C0133013C02FA04F420438DF8040076
:1049B000EEE7B9F80000A8F87006ADE04FF4A85390
:1049C000052143EA010240464B46FDF709F9A4E000
:1049D000D9F800104046022203E0D9F80010404602
:1049E000032241B0BDE8F04FFDF79EB8B9F1000FCA
:1049F00000F0A680D9F8040099F80010C388026876
:104A0000404641B0BDE8F04FFDF7EAB94FF40073FE
:104A10000921D6E74FF400730A21D2E74FF400735F
:104A20000B21CEE74FF4007305E04FF4007315211E
:104A3000C7E74FF480631421C3E740464946FDF7BA
:104A40000DFA002869D1012088F8800664E040460C
:104A50000321FDF761FA844600287FF4C7AC0120EA
:104A600088F83A06404601F0C1FE79E0D2B201A9C9
:104A7000404600F0EEFD73E001AA40461E21FDF71E
:104A80004BFA6DE0002088F84106084645E0604694
:104A900043E00BF10A0040E0A8F816064FF0000CC6
:104AA000A4E442484FF0000AE24566D00024A34245
:104AB00049D0DEF8002004EB4401575CD9F800101F
:104AC0000AEB4A0211444D78BD4202D189788D42E9
:104AD00001D00134EBE7A1B29942CDF800C032D049
:104AE0005546DDF800C06C1C644510D2D9F80010A2
:104AF00005EB45050D4411F802C0EF78BC450CD01C
:104B000011442D794978A9422546EAD105E00AF1F8
:104B1000010AC9E7C8F80052002041B0BDE8F08F93
:104B2000404601F063FE0028F7D1D8F804E290E592
:104B3000404601F05BFE0028EFD1D8F8040240E6C1
:104B4000ABF10300E9E75846E7E799F8000080F089
:104B500001008DF8040001AA40460521FDF722FA64
:104B60008446FFF743BC01208DE799F814104046B6
:104B700002F026FA0028D0D1E6E5002084450DD0C9
:104B8000D9F8002000EB4001535ADEF80040013014
:104B900063526318114489789970EFE7012088F80F
:104BA0003A068EF805C079E72200002007050002CA
:104BB0002DE9F843DDF820801E4617460C46CDF857
:104BC000008000F099F88146002840F0918030780C
:104BD00002303070C0B2404410F8021C10F8010CD2
:104BE00040EA012002F047FA94F83E1005461D29DC
:104BF00018BF023D0128D8BF0546052948D13078A5
:104C0000012D00F10101317018F8000084F8450011
:104C1000307800F10101317018F800004FF0020106
:104C200084F8441084F84600C8BF023D94F845005B
:104C300080072DD53078411C317018F8000084F8B9
:104C400047003078411C317018F8000084F84800A3
:104C500094F84400023084F8440094F94700B0F11D
:104C6000FF3F01DD023D13E03078043D411C31700F
:104C700018F8000084F849003078411C317018F8A9
:104C8000000084F84A0094F84400023084F844009C
:104C9000284617F4805718BF0238C1B23E2928BFF2
:104CA0003E2084F83F00C2B2307808EB0001204675
:104CB00002F0CBF93078284430703FB1C0B24044A4
:104CC000811E04F14000022202F0BFF994F83E0078
:104CD0001D2802D14FF6FF7008E0307802303070A6
:104CE000C0B2404430F8020C00BA000CA4F84200F4
:104CF0004846BDE8F88300002DE9FC4781460020C6
:104D0000DDF828809A4616460C4681F89700A1F8EF
:104D10005220C1F8D80081F85600D007A9F87026B3
:104D200008D09AF80000411C8AF8001018F800001A
:104D3000C4F89800B00708D59AF80000411C8AF81A
:104D4000001018F90000C4F89C00700708D59AF804
:104D50000000411C8AF8001018F8000084F8560082
:104D6000300712D59AF8000003308AF80000C0B26C
:104D7000404410F8022C10F8031C10F8010C120229
:104D800042EA01410844C4F8A000F0060BD59AF8A5
:104D9000000004308AF80000C0B2404450F8040C0F
:104DA00000BAC4F8D800B0060CD59AF8000002305A
:104DB0008AF80000C0B2404430F8020C00BA000C7F
:104DC000A4F85400700608D59AF80000411C8AF82F
:104DD000001018F8000084F83E0030063AD599F823
:104DE000960010B10120A9F806069AF800000230DA
:104DF0008AF80000C0B2404430F8020C00BA000C3F
:104E0000A4F8B60002F037F90746B0F5805F06D087
:104E1000B4F8B400874202DD4D48BDE8FC87D4F801
:104E2000B00060B1F90442BF4FF40041A4F8B610DD
:104E300002279AF800103A46414402F006F999F820
:104E4000400610B1204601F0C7F89AF80000384437
:104E50008AF80000F00523D59AF80000411C8AF872
:104E6000001099F8B02318F800000421202A4FF010
:104E7000000208BF022184F89710914210D004EB81
:104E80008203571C20FA02F283F85770C2F3001510
:104E900002F0010283F8595083F858203A46ECE7B3
:104EA00094F83E00052832D1B00508D59AF80000E4
:104EB000411C8AF8001018F8000084F84D007005B5
:104EC00014D59AF80000411C8AF8001018F8000068
:104ED000042804D0022805D040B9FA2004E04FF499
:104EE000207001E04FF4A070A4F84E0030050ED5FC
:104EF0009AF80000411C8AF8001018F800000128F8
:104F000002D020B9002000E0012084F85000F00415
:104F10000DD59AF80000022208EB000104F1A4006C
:104F200002F093F89AF8000002308AF80000B0040A
:104F30000BD56E4640463146524601F046FD0146CD
:104F40003046FDF763FAC4E938010020BDE8FC876C
:104F50000C000003F0B5D1E99142224BD1E99476DF
:104F6000C0F8AC20D0F8D8501B68DFF8ACC79D4221
:104F7000D8BF5D1CCCF810502544731B77EB02039F
:104F800021BF16F101050132C0F8AC200025A54271
:104F90003CBF0132C0F8AC20C1E99425C0F8A8504C
:104FA0009CF8082002B1F0BD91F89A24002AFAD0AA
:104FB000D1F864C000239CF805209A42F3D0DCF8B5
:104FC000005003EB43042E19B17890F856708F42CD
:104FD00002D171788F4201D00133EEE7295D80F86C
:104FE0005610F0BD0800002010B504460020B0EBBC
:104FF000114F01D00B4810BDC4F80606C4F8FC03DD
:10500000236D0AB100201060204600F00DF800B1B9
:1050100010BD94F8960010B1012084F89B01002087
:1050200010BD00BF170000032DE9F04FD5B00546B5
:105030000020ADF8500153906961884695F88016BC
:105040001878E24C1F46934649B1022802D095F8E1
:10505000961061B9002085F88006A01CBDE10228E9
:1050600005D1397D202940F2E880601DB5E100219D
:10507000022800F0DB800128204640F0AE8197F83E
:105080002C0085F8990097F8200085F85C0697F8C1
:10509000240085F84506B86AC5F8480695F86E06F6
:1050A000002800F0228195F89600002800F05A812F
:1050B00050A8894651A901F0B5FFDDE9500105F579
:1050C0007C7282E80301C5E9F91002F002F85199F7
:1050D00001F0CBFF95F896208246A8F10101002A45
:1050E00018BF8A46414528BF8246A8EB00004FF60C
:1050F000FF76B04228BF304606AC05904846A14630
:10510000C24500F26A81A8EB0A00B04228BF3046CF
:10511000F969A1B302208DF8180146A800900598FE
:105120003A4601904EA8029028462346FBF70CFA17
:10513000002840F052819DF838019DF8181153ABBA
:105140000A1A023A2254C81E8DF819001FFA88F272
:1051500028462146FDF766FA0446B5F80606BDF86E
:105160004E110844A5F80606B5F80806BDF850111A
:105170000844A5F80806BDF84C01529028E095F8BF
:105180009610D1B140F20110ADF83C0146A84E9006
:10519000387D03218DF81801B8694EAA06901FFAD0
:1051A00088F0B5F87036CDE90014029052A803904B
:1051B00028462221FCF784FA09E0397DBB69009179
:1051C00052A9019181B228460322FCF75BFB0446F9
:1051D00034B18448844240F0D4800020529000E0F2
:1051E0005298D5F8FC13BBF1000F01444C46C5F8AA
:1051F000FC1304D0DBF800100844CBF8000095F84D
:105200009600002840F0DC8095F84506002840F024
:10521000DF8001F05EFF519901F027FF734A0146DC
:1052200000201070704A8A44107069E73869D5F818
:1052300010A0002861D000246BE046A88DF83C1136
:105240008DF83D114E90002006AE88420ED2F968CE
:105250004E9A51F82010097D1154F96851F8201028
:10526000896946F82010397D0130EEE721B1F868F0
:1052700000680078012803D095F89600002878D0BF
:105280002846394601F0D8FB5549884273D000289A
:1052900040F0A3800120C5F8F88385F86E0695F8E4
:1052A000960048B950A851A901F0BCFEDDE95001B3
:1052B000C5E9FC01C5E9F910B5F8703652A81FFA26
:1052C00088F10322CDE90026CDE902104EAA284636
:1052D0002221FCF7F5F9BBF1000F7ED0DBF80010BE
:1052E000529A1144CBF8001077E02846394601F075
:1052F000A3FB002871D10021D5E6387D00289AD083
:10530000B8FBF0F4BAF1000F1CBFBAFBF0F0C5F81F
:105310009C013448002681460846397D8E425CD285
:10532000386980B1F968BAF1000F51F82610496860
:1053300001FB08F2B2FBF0F405D001FB0AF1B1FB6E
:10534000F0F0C5F89C01F868214650F82630284650
:105350005A46FFF769FE4845494618BF00283CD128
:105360000136DAE7397D284601F02AFEA8BB002184
:105370009EE6002103E00020A11C85F89600387805
:1053800076E69648844219D09748844216D0002089
:1053900085F8450606A92846FCF760F9E8B9D5F86E
:1053A000FC13BDF81800BBF1000F0144C5F8FC1355
:1053B00004D0DBF800100844CBF8000020460CE0D5
:1053C0000120C5F8FC03002007E000BF0100000336
:1053D0000549002008700549087055B0BDE8F08FF8
:1053E00003000003000400021A000020190000203E
:1053F0002DE9F04F85B082460020CDE90300DAF8B0
:105400001002174600EB030B0AF5D07002900C4611
:10541000222A04BFDAF81000834400260DF10C089C
:105420004FF00009DAF8AC510298A319C6F1070150
:105430004246CDF800B0A84750BB03980644072E5B
:1054400004961ED300210846052912D0225C411C77
:10545000FF2AF8D122185378F82BF4D89278BA4260
:1054600018BF222A03D09D2A01D02F2AEBD1010692
:1054700013D0C0F107062118204632460496FAF7E9
:1054800060FE09F10109B9F1140FCBD3534D00E0CF
:105490000546284605B0BDE8F08FB9F1130FF5D8E1
:1054A000264616F8018FB8F1000F04D0B8F1F90FB5
:1054B00004D94B4DEDE70025049509E0DAF8AC512D
:1054C0000298E31D04AA4146CDF800B0A84705465E
:1054D000DAF8080040B104980021C21D5046234666
:1054E000CDF800B000F094F9002DD2D19AF83B0627
:1054F00090B108F10400C1B2304601F073FD08EB31
:1055000004014A79354BB2EB102F03F10505C0D1E8
:105510008979C0B28142BCD1324D2878D0B19AF895
:105520009610B9B1A178814207D16079042801D0E1
:10553000022802D1002028700CE001F0A5FDD5E979
:105540000623264D801A99410022BBEB000072EB26
:1055500001009ED3A078B84224D1E078217941EAB5
:10556000002050B3204E00F10075B5427FF491AF9A
:105570000AF2035528464FF48071FAF709FED4F871
:1055800005001AA102BA284601F06AFE2846FAF779
:1055900016FE284404F10901A8F1040201F055FDAA
:1055A000354676E704280AD09D2810D02F280BD145
:1055B0009AF896000028D0D106E0002569E7DAF8CD
:1055C000B8110298884730B10448051D61E70448C6
:1055D00000F10D055DE70148851D5AE70100000156
:1055E0000600000318000020017F0002417373656C
:1055F0007274696F6E206661696C656420617420E5
:105600006C696E6520256420696E2066696C652072
:1056100000000000D0F8142200F082B82DE9FC410F
:10562000074600F5D07880681C4615460E4630B116
:105630003846012132462B46009400F0E9F8D7F8AD
:10564000A8C1404631462A46234602B0BDE8F04193
:105650006047033A4A70FFF7DDBF00002DE9F843C9
:105660000546D0F81092FF200C4608709846A378A3
:10567000084610F8011F137095F89B216AB195F840
:10568000962052B10022D3B28B4208D8EE182344A0
:105690009B78013286F89B30F5E70F4613E01D4AF0
:1056A000A171C4F802204F1D00226770D3B28B4253
:1056B00006D81E192B4493F89B300132F371F5E79D
:1056C000012185F89A10B91CC9B201F08BFCF9B21E
:1056D000214440BA104EA1F8030070890021FB2834
:1056E000718102D90D48BDE8F88395F89700C84448
:1056F00028B101F0C9FCC6E90601A0783070781D18
:10570000C1B228462246434601B0BDE8F043FFF748
:1057100085BF00BF2F000004180000201D000003FB
:1057200070B5ADF55E7D16460DF2773233460C4608
:105730000546FFF793FF10B10DF55E7D70BD95F83E
:105740009B01A0B195F8960088B16E4695F89A0035
:10575000B8B12846FDF7CCF80028F7D128463146E5
:10576000FDF704F82846314601F01EF9EEE79DF8F2
:105770007723284621463346FFF73AFE0028DBD13F
:105780001AE0002085F89A0095F89C2005F1A00108
:10579000204601F05AFCFF20207095F89E0095F8F5
:1057A0009F1041EA002020B9E078217941EA0020E9
:1057B00010B100F10070BFE70020BDE7B0B50446AE
:1057C0000020C4F8D800A4F84200E087C4E92A0009
:1057D000C4F84D0004F152005221FAF7D9FC04F547
:1057E0003A70C4F8D00004F51A7004F5F47104F5A9
:1057F000B47204F1E8038025C4F8D450C4E92C3510
:10580000C4E92E25C4E93015C4E932050020B0BD35
:105810002DE9F843DDF82080994615460E460830FC
:10582000076857B1D7E900402946009030464A46FC
:105830004346A04707F10800F2E7BDE8F8830000FF
:1058400010B5E24B013269B10478013924091C5DBD
:1058500002F8014C10F8014B04F00F041C5D1470A9
:105860000232F0E7002002F8010C10BD2DE9F047EC
:1058700090B0894682460020CAF86006CAF86406DD
:10588000CAF868068AF89A008AF89B01CAF80000EC
:105890002BA148460722FAF7A7FC50B12AA1484697
:1058A0000622FAF7A1FC002843D199F806002F2818
:1058B0003FD100F08DF96E463046494601F0CEFBEF
:1058C00024A13046FAF7A0FCDFF87483064698F866
:1058D00004003821C0EBC000D8F8084001EBC00537
:1058E000002000F13807BD4226D021183046FAF7D3
:1058F0006DFC00283846F4D199F800400AF15600B2
:1059000049464022FAF74FFC0620652C08BF0720C5
:1059100009EB0002D8F808000AF5DE71384450F8A7
:10592000043C0AF5D070984738B95046FAF77EFD26
:1059300003E007480F3000E0054810B0BDE8F087ED
:10594000656170693A2F2F00746D723A2F2F000035
:10595000010000033A0000002DE9FE4FDDF8309011
:105960009B468846064600200DF1030A8DF80B0081
:105970009BF801105FFA89F00231814240F2058103
:10598000584651460DF10B028DF80B9001F01DF8B1
:1059900001465046FCF73AFDC10755D1410600F1DA
:1059A0008480010600F1AF80C10500F1BE80410591
:1059B00000F1C580810500F1CC80000540F1E88050
:1059C00009F103095FFA89F0584410F8012C4FF0EF
:1059D000000CA8F812205FFA8CFE90B27045C7D96F
:1059E0005FFA89F01BF80000D8F80C10574601F850
:1059F0000E0009F101095FEA0C6018BF1EF00100FA
:105A00001CD1D6F804A200239AF80500DAB282422B
:105A100014D2DAF80010D8F80C0002EB42028D180C
:105A200010F80E406D78A54206D1895C00F80E1082
:105A3000D6F804A29AF805300133E5E7B8F8122049
:105A40000CF1010CBA46C6E709F10100C0B21BF81F
:105A5000000009F1020900EB090C5FFA8CF15FFA12
:105A600089F08842BFF484AF09F105091BF80010E2
:105A70005FFA89F0584450F8040C002302BA002061
:105A8000D6F804526C79A042E7D22D6800EB4004AE
:105A90002F197F78B94205D12C5DD8F85450EC54B9
:105AA000EC1862600C330130EAE709F10100C0B282
:105AB0001BF8000009F1020901063FF459AF5FFA33
:105AC00089F11BF8011009F1010900220023D6F821
:105AD00004526C79A342EFD22D6803EB43042F19D3
